{
  "contractName": "DefaultSTOFactory",
  "abi": [
    {
      "constant": true,
      "inputs": [],
      "name": "racRegistry",
      "outputs": [
        {
          "name": "",
          "type": "address"
        }
      ],
      "payable": false,
      "stateMutability": "view",
      "type": "function"
    },
    {
      "inputs": [
        {
          "name": "_racRegistry",
          "type": "address"
        }
      ],
      "payable": false,
      "stateMutability": "nonpayable",
      "type": "constructor"
    },
    {
      "anonymous": false,
      "inputs": [
        {
          "indexed": true,
          "name": "_tranche",
          "type": "bytes32"
        },
        {
          "indexed": true,
          "name": "_sto",
          "type": "address"
        },
        {
          "indexed": true,
          "name": "_securityToken",
          "type": "address"
        }
      ],
      "name": "CreateSTO",
      "type": "event"
    },
    {
      "constant": false,
      "inputs": [
        {
          "name": "_securityToken",
          "type": "address"
        },
        {
          "name": "_tranche",
          "type": "bytes32"
        },
        {
          "name": "_paused",
          "type": "bool"
        },
        {
          "name": "_addresses",
          "type": "address[]"
        },
        {
          "name": "_values",
          "type": "uint256[]"
        }
      ],
      "name": "create",
      "outputs": [
        {
          "name": "",
          "type": "address"
        }
      ],
      "payable": false,
      "stateMutability": "nonpayable",
      "type": "function"
    }
  ],
  "bytecode": "0x608060405234801561001057600080fd5b5060405160208061244b833981016040525160008054600160a060020a03909216600160a060020a03199092169190911790556123f9806100526000396000f3006080604052600436106100325763ffffffff60e060020a6000350416630139057c8114610037578063ae4b110414610068575b600080fd5b34801561004357600080fd5b5061004c6100ab565b60408051600160a060020a039092168252519081900360200190f35b34801561007457600080fd5b5061004c60048035600160a060020a03169060248035916044351515916064358082019290810135916084359081019101356100ba565b600054600160a060020a031681565b60408051808201909152600981527f63726561746553544f000000000000000000000000000000000000000000000060208201526000805490918291600160a060020a03161515610155576040805160e560020a62461bcd02815260206004820152601560248201527f52414320646f6573206e6f742052656769737465720000000000000000000000604482015290519081900360640190fd5b600054600160a060020a031663253bd7b73361017084610483565b6040805160e060020a63ffffffff8616028152600160a060020a03909316600484015260248301919091525160448083019260209291908290030181600087803b1580156101bd57600080fd5b505af11580156101d1573d6000803e3d6000fd5b505050506040513d60208110156101e757600080fd5b5051151561023f576040805160e560020a62461bcd02815260206004820152600f60248201527f5065726d697373696f6e2064656e790000000000000000000000000000000000604482015290519081900360640190fd5b60028614610297576040805160e560020a62461bcd02815260206004820152601260248201527f696e76616c6964205f6164647265737365730000000000000000000000000000604482015290519081900360640190fd5b600884146102ef576040805160e560020a62461bcd02815260206004820152600f60248201527f696e76616c6964205f76616c7565730000000000000000000000000000000000604482015290519081900360640190fd5b898989898989896102fe6104a7565b600160a060020a03881681526020808201889052861515604083015260a06060830181815290830186905290608083019060c08401908890880280828437909101848103835285815260209081019150869086028082843782019150509950505050505050505050604051809103906000f080158015610382573d6000803e3d6000fd5b5060005460408051808201909152600481527f6d696e74000000000000000000000000000000000000000000000000000000006020820152919350600160a060020a03169063a73f7f8a9084906103d890610483565b6040805160e060020a63ffffffff8616028152600160a060020a039093166004840152602483019190915251604480830192600092919082900301818387803b15801561042457600080fd5b505af1158015610438573d6000803e3d6000fd5b5050604051600160a060020a03808e169350851691508b907f07bef8859fa875dc0043ef2624ba09c2bc35b7782c1f5eedb362b3cb38f0fc9390600090a45098975050505050505050565b80516000908290151561049957600091506104a1565b602083015191505b50919050565b604051611f16806104b88339019056006000805461ffff191661010017905560c0604052600a60808190527f44656661756c7453544f0000000000000000000000000000000000000000000060a09081526200004f91600191906200060f565b503480156200005d57600080fd5b5060405162001f1638038062001f1683398101604081815282516020808501518386015160608701516080880151600c8054600160a060020a038816600160a060020a031991821681179092556000805460ff191660011781556002805490921633179091557f0139057c000000000000000000000000000000000000000000000000000000008a529751969994989397928501969190940194630139057c93600480820194929392918390030190829087803b1580156200011e57600080fd5b505af115801562000133573d6000803e3d6000fd5b505050506040513d60208110156200014a57600080fd5b505160038054600160a060020a031916600160a060020a0390921691909117905562000182848484846401000000006200018d810204565b5050505050620006b4565b8151600214620001fe57604080517f08c379a000000000000000000000000000000000000000000000000000000000815260206004820152601260248201527f696e76616c6964205f6164647265737365730000000000000000000000000000604482015290519081900360640190fd5b80516008146200026f57604080517f08c379a000000000000000000000000000000000000000000000000000000000815260206004820152600f60248201527f696e76616c6964205f76616c7565730000000000000000000000000000000000604482015290519081900360640190fd5b600f8490556000805460ff1916841515178155825183919081106200029057fe5b602090810291909101015160098054600160a060020a031916600160a060020a03909216919091179055815182906001908110620002ca57fe5b6020908102919091010151600a8054600160a060020a031916600160a060020a039092169190911790558051819060009081106200030457fe5b602090810290910101516005558051819060019081106200032157fe5b602090810290910101516006558051819060029081106200033e57fe5b60209081029091010151600e558051819060039081106200035b57fe5b60209081029091010151600d558051819060049081106200037857fe5b602090810290910101516010558051819060059081106200039557fe5b60209081029091010151601155805181906006908110620003b257fe5b60209081029091010151601255805181906007908110620003cf57fe5b60209081029091010151601355600554421115620003ec57426005555b600d546000106200048457604080517f08c379a000000000000000000000000000000000000000000000000000000000815260206004820152602660248201527f52617465206f6620746f6b656e2073686f756c6420626520677265617465722060448201527f7468616e20300000000000000000000000000000000000000000000000000000606482015290519081900360840190fd5b600a54600160a060020a03161515620004fe57604080517f08c379a000000000000000000000000000000000000000000000000000000000815260206004820152601d60248201527f5a65726f2061646472657373206973206e6f74207065726d6974746564000000604482015290519081900360640190fd5b600554600654116200057157604080517f08c379a000000000000000000000000000000000000000000000000000000000815260206004820152601d60248201527f4461746520706172616d657465727320617265206e6f742076616c6964000000604482015290519081900360640190fd5b600e546000106200060957604080517f08c379a000000000000000000000000000000000000000000000000000000000815260206004820152602260248201527f4d6178416d6f756e742073686f756c642062652067726561746572207468616e60448201527f2030000000000000000000000000000000000000000000000000000000000000606482015290519081900360840190fd5b50505050565b828054600181600116156101000203166002900490600052602060002090601f016020900481019282601f106200065257805160ff191683800117855562000682565b8280016001018555821562000682579182015b828111156200068257825182559160200191906001019062000665565b506200069092915062000694565b5090565b620006b191905b808211156200069057600081556001016200069b565b90565b61185280620006c46000396000f30060806040526004361061018a5763ffffffff7c01000000000000000000000000000000000000000000000000000000006000350416630139057c811461018f57806306fdde03146101c05780630cc349bd1461024a5780630edc54a8146102715780631040dc2714610292578063234817e71461031857806323c7e09c146103395780632c4e722e1461034e5780632c6858dd146103635780633197cbb6146103785780633f4ba83a1461038d57806341f778e8146103a457806354fd4d50146103cd578063570f2e00146103f85780635c975abb146104915780635f48f393146104a657806363b20117146104bb5780636ebc0af1146104d057806376db8dcb146104e557806378e97925146104fa5780638456cb591461050f5780638661bcc0146105245780638da5cb5b14610539578063a2153e411461054e578063a6f2ae3a1461056f578063ac74b42d14610577578063b2cca39d1461058f578063b84dfbd2146105a4578063bc99cc37146105b9578063d7e64c00146105ce578063ee7c0db0146105e3575b600080fd5b34801561019b57600080fd5b506101a46105f8565b60408051600160a060020a039092168252519081900360200190f35b3480156101cc57600080fd5b506101d5610607565b6040805160208082528351818301528351919283929083019185019080838360005b8381101561020f5781810151838201526020016101f7565b50505050905090810190601f16801561023c5780820380516001836020036101000a031916815260200191505b509250505060405180910390f35b34801561025657600080fd5b5061025f610694565b60408051918252519081900360200190f35b34801561027d57600080fd5b5061025f600160a060020a036004351661069a565b34801561029e57600080fd5b506102a76106ac565b604080519d8e5260208e019c909c528c8c019a909a5260608c019890985260808b019690965260a08a019490945260c0890192909252600160a060020a0390811660e08901521661010087015261012086015261014085015261016084015261018083015251908190036101a00190f35b34801561032457600080fd5b5061025f600160a060020a03600435166106f3565b34801561034557600080fd5b506101a461070e565b34801561035a57600080fd5b5061025f61071d565b34801561036f57600080fd5b506101a4610723565b34801561038457600080fd5b5061025f610732565b34801561039957600080fd5b506103a2610738565b005b3480156103b057600080fd5b506103b96107d3565b604080519115158252519081900360200190f35b3480156103d957600080fd5b506103e26107de565b6040805160ff9092168252519081900360200190f35b34801561040457600080fd5b5060408051602060046044358181013583810280860185019096528085526103a29583359560248035151596369695606495939492019291829185019084908082843750506040805187358901803560208181028481018201909552818452989b9a9989019892975090820195509350839250850190849080828437509497506107ec9650505050505050565b34801561049d57600080fd5b506103b96109c1565b3480156104b257600080fd5b5061025f6109ca565b3480156104c757600080fd5b5061025f6109d0565b3480156104dc57600080fd5b5061025f6109d6565b3480156104f157600080fd5b5061025f6109dc565b34801561050657600080fd5b5061025f6109e2565b34801561051b57600080fd5b506103a26109e8565b34801561053057600080fd5b5061025f610a85565b34801561054557600080fd5b506101a4610a8b565b34801561055a57600080fd5b5061025f600160a060020a0360043516610a9a565b6103a2610aac565b34801561058357600080fd5b506103a2600435610b53565b34801561059b57600080fd5b5061025f610c66565b3480156105b057600080fd5b506101a4610c6c565b3480156105c557600080fd5b5061025f610c7b565b3480156105da57600080fd5b5061025f610c81565b3480156105ef57600080fd5b5061025f610c87565b600354600160a060020a031681565b60018054604080516020600284861615610100026000190190941693909304601f8101849004840282018401909252818152929183018282801561068c5780601f106106615761010080835404028352916020019161068c565b820191906000526020600020905b81548152906001019060200180831161066f57829003601f168201915b505050505081565b60135481565b60146020526000908152604090205481565b600f54600554600654600e54600d54600854600b54600954600a54601054601154601254601354600160a060020a03958616959490941693909192939495969798999a9b9c565b600160a060020a031660009081526004602052604090205490565b600a54600160a060020a031681565b600d5481565b600954600160a060020a031681565b60065481565b60005460ff161515610794576040805160e560020a62461bcd02815260206004820152601660248201527f436f6e7472616374206973206e6f742070617573656400000000000000000000604482015290519081900360640190fd5b6000805460ff191690556040805142815290517faaa520fdd7d2c83061d632fa017b0432407e798818af63ea908589fceda39ab79181900360200190a1565b600e54600b54101590565b600054610100900460ff1681565b60408051808201909152600c81527f636f6e66696775726553544f00000000000000000000000000000000000000006020820152600354600160a060020a03161515610882576040805160e560020a62461bcd02815260206004820152601560248201527f52414320646f6573206e6f742052656769737465720000000000000000000000604482015290519081900360640190fd5b600354600160a060020a031663253bd7b73361089d84610c8d565b604080517c010000000000000000000000000000000000000000000000000000000063ffffffff8616028152600160a060020a03909316600484015260248301919091525160448083019260209291908290030181600087803b15801561090357600080fd5b505af1158015610917573d6000803e3d6000fd5b505050506040513d602081101561092d57600080fd5b50511515610985576040805160e560020a62461bcd02815260206004820152600f60248201527f5065726d697373696f6e2064656e790000000000000000000000000000000000604482015290519081900360640190fd5b61099185858585610cb1565b6040517f497188418a570015094348d6fc49e58cba90f327dbadf1286fe5aa1374387ae090600090a15050505050565b60005460ff1681565b600e5481565b600b5481565b600f5481565b60105481565b60055481565b60005460ff1615610a43576040805160e560020a62461bcd02815260206004820152601260248201527f436f6e7472616374206973207061757365640000000000000000000000000000604482015290519081900360640190fd5b6000805460ff191660011790556040805142815290517f68b095021b1f40fe513109f513c66692f0b3219aee674a69f4efc57badb8201d9181900360200190a1565b60115481565b600254600160a060020a031681565b60046020526000908152604090205481565b600954600160a060020a031615610b0d576040805160e560020a62461bcd02815260206004820152601360248201527f4d75737420626520455448206164647265737300000000000000000000000000604482015290519081900360640190fd5b610b1733346110b2565b600a54604051600160a060020a03909116903480156108fc02916000818181858888f19350505050158015610b50573d6000803e3d6000fd5b50565b600954600160a060020a03161515610bb5576040805160e560020a62461bcd02815260206004820152601760248201527f4d757374206265206e6f74204554482061646472657373000000000000000000604482015290519081900360640190fd5b610bbf33826110b2565b600954600a54604080517f23b872dd000000000000000000000000000000000000000000000000000000008152336004820152600160a060020a03928316602482015260448101859052905191909216916323b872dd9160648083019260209291908290030181600087803b158015610c3757600080fd5b505af1158015610c4b573d6000803e3d6000fd5b505050506040513d6020811015610c6157600080fd5b505050565b60075481565b600c54600160a060020a031681565b60125481565b60085481565b600b5490565b805160009082901515610ca35760009150610cab565b602083015191505b50919050565b8151600214610d0a576040805160e560020a62461bcd02815260206004820152601260248201527f696e76616c6964205f6164647265737365730000000000000000000000000000604482015290519081900360640190fd5b8051600814610d63576040805160e560020a62461bcd02815260206004820152600f60248201527f696e76616c6964205f76616c7565730000000000000000000000000000000000604482015290519081900360640190fd5b600f8490556000805460ff191684151517815582518391908110610d8357fe5b60209081029190910101516009805473ffffffffffffffffffffffffffffffffffffffff1916600160a060020a03909216919091179055815182906001908110610dc957fe5b6020908102919091010151600a805473ffffffffffffffffffffffffffffffffffffffff1916600160a060020a03909216919091179055805181906000908110610e0f57fe5b60209081029091010151600555805181906001908110610e2b57fe5b60209081029091010151600655805181906002908110610e4757fe5b60209081029091010151600e55805181906003908110610e6357fe5b60209081029091010151600d55805181906004908110610e7f57fe5b60209081029091010151601055805181906005908110610e9b57fe5b60209081029091010151601155805181906006908110610eb757fe5b60209081029091010151601255805181906007908110610ed357fe5b60209081029091010151601355600554421115610eef57426005555b600d54600010610f6f576040805160e560020a62461bcd02815260206004820152602660248201527f52617465206f6620746f6b656e2073686f756c6420626520677265617465722060448201527f7468616e20300000000000000000000000000000000000000000000000000000606482015290519081900360840190fd5b600a54600160a060020a03161515610fd1576040805160e560020a62461bcd02815260206004820152601d60248201527f5a65726f2061646472657373206973206e6f74207065726d6974746564000000604482015290519081900360640190fd5b6005546006541161102c576040805160e560020a62461bcd02815260206004820152601d60248201527f4461746520706172616d657465727320617265206e6f742076616c6964000000604482015290519081900360640190fd5b600e546000106110ac576040805160e560020a62461bcd02815260206004820152602260248201527f4d6178416d6f756e742073686f756c642062652067726561746572207468616e60448201527f2030000000000000000000000000000000000000000000000000000000000000606482015290519081900360840190fd5b50505050565b6000805460ff161561110e576040805160e560020a62461bcd02815260206004820152601260248201527f436f6e7472616374206973207061757365640000000000000000000000000000604482015290519081900360640190fd5b61111883836113b4565b611121826117c4565b600954600160a060020a031660009081526004602052604090205490915061114f908363ffffffff6117e116565b600954600160a060020a0316600090815260046020526040902055600b5461117d908263ffffffff6117e116565b600b55600160a060020a03831660009081526014602052604090205415156111a9576008805460010190555b600160a060020a0383166000908152601460205260409020546111d2908263ffffffff6117e116565b600160a060020a03808516600090815260146020908152604080832094909455601581528382206009549093168252919091522054611217908363ffffffff6117e116565b600160a060020a03808516600081815260156020908152604080832060095486168452825280832095909555600c54600f5486517f6bcf5004000000000000000000000000000000000000000000000000000000008152600481019190915260248101949094526044840187905260806064850152600360848501527f73746f000000000000000000000000000000000000000000000000000000000060a485015294519490931693636bcf50049360c4808501949193918390030190829087803b1580156112e557600080fd5b505af11580156112f9573d6000803e3d6000fd5b505050506040513d602081101561130f57600080fd5b50511515611367576040805160e560020a62461bcd02815260206004820152601b60248201527f4572726f7220696e206d696e74696e672074686520746f6b656e730000000000604482015290519081900360640190fd5b60408051838152602081018390528151600160a060020a0386169233927f623b3804fa71d67900d064613da8f94b9617215ee90799290593e1745087ad18929081900390910190a3505050565b600160a060020a0382161515611439576040805160e560020a62461bcd028152602060048201526024808201527f42656e656669636961727920616464726573732073686f756c64206e6f74206260448201527f6520307800000000000000000000000000000000000000000000000000000000606482015290519081900360840190fd5b8015156114b6576040805160e560020a62461bcd02815260206004820152602860248201527f416d6f756e7420696e7665737465642073686f756c64206e6f7420626520657160448201527f75616c20746f2030000000000000000000000000000000000000000000000000606482015290519081900360840190fd5b6012546008541115611538576040805160e560020a62461bcd02815260206004820152603760248201527f696e766573746f72436f756e742073686f756c6420626520657175616c206f7260448201527f206c657373207468616e206d6178496e766573746f7273000000000000000000606482015290519081900360840190fd5b600e54611556611547836117c4565b600b549063ffffffff6117e116565b11156115d2576040805160e560020a62461bcd02815260206004820152602d60248201527f496e766573746d656e74206d6f7265207468616e206d6178416d6f756e74206960448201527f73206e6f7420616c6c6f77656400000000000000000000000000000000000000606482015290519081900360840190fd5b601054811015611678576040805160e560020a62461bcd02815260206004820152604160248201527f416d6f756e7420696e7665737465642073686f756c6420626520657175616c2060448201527f6f722067726561746572207468616e206d696e496e766573746f72416d6f756e60648201527f7400000000000000000000000000000000000000000000000000000000000000608482015290519081900360a40190fd5b601154600160a060020a038084166000908152601560209081526040808320600954909416835292905220546116b4908363ffffffff6117e116565b1115611730576040805160e560020a62461bcd02815260206004820152603260248201527f416d6f756e7420696e766573746564206d6f7265207468616e206d6178416d6f60448201527f756e74206973206e6f7420616c6c6f7765640000000000000000000000000000606482015290519081900360840190fd5b600554421015801561174457506006544211155b15156117c0576040805160e560020a62461bcd02815260206004820152602260248201527f4f66666572696e6720697320636c6f7365642f4e6f742079657420737461727460448201527f6564000000000000000000000000000000000000000000000000000000000000606482015290519081900360840190fd5b5050565b60006117db600d54836117fb90919063ffffffff16565b92915050565b6000828201838110156117f057fe5b8091505b5092915050565b60008083151561180e57600091506117f4565b5082820282848281151561181e57fe5b04146117f057fe00a165627a7a72305820bec8242c2a7b571a728b30081338fb1aef5bd492c0244d85c87f21728b71f9a40029a165627a7a72305820b138bd1bbf8418187a5a94f9709eb986e5a77af5d9bd2b5b266246792d7311880029",
  "source": "pragma solidity ^0.4.24;\n\nimport \"./DefaultSTO.sol\";\nimport \"../interfaces/ICheckRAC.sol\";\nimport \"../interfaces/IAddRAC.sol\";\nimport \"../modules/DataType.sol\";\n\n/**\n * @title Proxy for deploying STO instances\n */\ncontract DefaultSTOFactory is DataType {\n\n    address public racRegistry;\n\n    event CreateSTO(bytes32 indexed _tranche, address indexed _sto, address indexed _securityToken);\n\n    // Constructor\n    constructor (address _racRegistry) public\n    {\n        racRegistry = _racRegistry;\n    }\n\n    /**\n    * @dev modifier to scope access to a single role (uses msg.sender as addr)\n    * @param _action the name of the role\n    */\n    modifier onlyRole(string _action)\n    {\n        require(racRegistry != address(0), \"RAC does not Register\");\n        require(ICheckRAC(racRegistry).check(msg.sender, stringToBytes32(_action)), \"Permission deny\");\n        _;\n    }\n\n    /**\n     * @notice create the sto.\n     * PARAMS:\n     * @param _tranche special tranche\n     * @param _paused value: false or true\n     * @param _addresses value: [_fundRaiseToken, _fundsReceiver]\n     * @param _values  value: [_startTime, _endTime, _maxAmount, _rate, _minInvestorAmount, _maxInvestorAmount, _maxInvestors, _lockMonths]\n     */\n    function create(address _securityToken, bytes32 _tranche, bool _paused, address[] _addresses, uint256[] _values) external onlyRole('createSTO') returns (address) {\n        require(_addresses.length == 2, \"invalid _addresses\");\n        require(_values.length == 8, \"invalid _values\");\n        address newAddress = new DefaultSTO(_securityToken, _tranche, _paused, _addresses, _values);\n\n        IAddRAC(racRegistry).addRole(newAddress, stringToBytes32(\"mint\"));\n\n        emit CreateSTO(_tranche, newAddress, _securityToken);\n        return newAddress;\n    }\n}\n",
  "sourcePath": "/Users/tercel/Workspace/oneroot-sto/contracts/stos/DefaultSTOFactory.sol",
  "compiler": {
    "name": "solc",
    "version": "0.4.24+commit.e67f0147.Emscripten.clang"
  },
  "schemaVersion": "2.0.1",
  "updatedAt": "2019-01-08T11:20:26.324Z"
}