{
  "contractName": "ExtString",
  "abi": [
    {
      "constant": true,
      "inputs": [
        {
          "name": "v",
          "type": "uint256"
        }
      ],
      "name": "uintToString",
      "outputs": [
        {
          "name": "str",
          "type": "string"
        }
      ],
      "payable": false,
      "stateMutability": "view",
      "type": "function"
    }
  ],
  "bytecode": "0x610255610030600b82828239805160001a6073146000811461002057610022565bfe5b5030600052607381538281f30073000000000000000000000000000000000000000030146080604052600436106100575763ffffffff7c0100000000000000000000000000000000000000000000000000000000600035041663e9395679811461005c575b600080fd5b6100676004356100dc565b6040805160208082528351818301528351919283929083019185019080838360005b838110156100a1578181015183820152602001610089565b50505050905090810190601f1680156100ce5780820380516001836020036101000a031916815260200191505b509250505060405180910390f35b60408051606480825260a082019092526060919082906000908190839082908660208201610c8080388339019050509450600093505b8715610175578451600a808a04996001870196919006945060f860020a603086010291879190811061014057fe5b9060200101907effffffffffffffffffffffffffffffffffffffffffffffffffffffffffffff1916908160001a905350610112565b836001016040519080825280601f01601f1916602001820160405280156101a6578160200160208202803883390190505b509150600090505b83811161021e57848185038151811015156101c557fe5b90602001015160f860020a900460f860020a0282828151811015156101e657fe5b9060200101907effffffffffffffffffffffffffffffffffffffffffffffffffffffffffffff1916908160001a9053506001016101ae565b5096955050505050505600a165627a7a72305820b445fa79c585670af7c51d1d93c5a090f27468f93164ab744f76749b0db9bd150029",
  "source": "pragma solidity ^0.4.24;\n\nlibrary ExtString {\n    function strConcat(string _a, string _b) internal returns (string){\n        bytes memory _ba = bytes(_a);\n        bytes memory _bb = bytes(_b);\n        string memory ret = new string(_ba.length + _bb.length);\n        bytes memory bret = bytes(ret);\n        uint k = 0;\n        for (uint i = 0; i < _ba.length; i++)bret[k++] = _ba[i];\n        for (i = 0; i < _bb.length; i++) bret[k++] = _bb[i];\n        return string(ret);\n    }\n\n\n    function uintToString(uint256 v) constant returns (string str) {\n        uint256 maxLength = 100;\n        bytes memory reversed = new bytes(maxLength);\n        uint i = 0;\n        while (v != 0) {\n            uint remainder = v % 10;\n            v = v / 10;\n            reversed[i++] = byte(48 + remainder);\n        }\n        bytes memory s = new bytes(i + 1);\n        for (uint j = 0; j <= i; j++) {\n            s[j] = reversed[i - j];\n        }\n        str = string(s);\n    }\n}",
  "sourcePath": "/Users/tercel/Workspace/oneroot-sto/contracts/libraries/ExtString.sol",
  "compiler": {
    "name": "solc",
    "version": "0.4.24+commit.e67f0147.Emscripten.clang"
  },
  "schemaVersion": "2.0.1",
  "updatedAt": "2018-12-12T03:51:29.306Z"
}