{
  "contractName": "GeneralPolicy",
  "abi": [
    {
      "constant": true,
      "inputs": [],
      "name": "racRegistry",
      "outputs": [
        {
          "name": "",
          "type": "address"
        }
      ],
      "payable": false,
      "stateMutability": "view",
      "type": "function"
    },
    {
      "constant": true,
      "inputs": [
        {
          "name": "",
          "type": "bytes32"
        }
      ],
      "name": "maxHolderCount",
      "outputs": [
        {
          "name": "",
          "type": "uint256"
        }
      ],
      "payable": false,
      "stateMutability": "view",
      "type": "function"
    },
    {
      "constant": true,
      "inputs": [],
      "name": "name",
      "outputs": [
        {
          "name": "",
          "type": "string"
        }
      ],
      "payable": false,
      "stateMutability": "view",
      "type": "function"
    },
    {
      "constant": true,
      "inputs": [
        {
          "name": "",
          "type": "address"
        },
        {
          "name": "",
          "type": "bytes32"
        }
      ],
      "name": "whitelist",
      "outputs": [
        {
          "name": "fromTime",
          "type": "uint256"
        },
        {
          "name": "toTime",
          "type": "uint256"
        },
        {
          "name": "expiryTime",
          "type": "uint256"
        },
        {
          "name": "canTransfer",
          "type": "bool"
        }
      ],
      "payable": false,
      "stateMutability": "view",
      "type": "function"
    },
    {
      "constant": true,
      "inputs": [],
      "name": "version",
      "outputs": [
        {
          "name": "",
          "type": "uint8"
        }
      ],
      "payable": false,
      "stateMutability": "view",
      "type": "function"
    },
    {
      "constant": true,
      "inputs": [
        {
          "name": "",
          "type": "bytes32"
        }
      ],
      "name": "maxHolderPercentage",
      "outputs": [
        {
          "name": "",
          "type": "uint256"
        }
      ],
      "payable": false,
      "stateMutability": "view",
      "type": "function"
    },
    {
      "constant": true,
      "inputs": [],
      "name": "securityToken",
      "outputs": [
        {
          "name": "",
          "type": "address"
        }
      ],
      "payable": false,
      "stateMutability": "view",
      "type": "function"
    },
    {
      "inputs": [
        {
          "name": "_securityToken",
          "type": "address"
        }
      ],
      "payable": false,
      "stateMutability": "nonpayable",
      "type": "constructor"
    },
    {
      "anonymous": false,
      "inputs": [
        {
          "indexed": false,
          "name": "_tranche",
          "type": "bytes32"
        },
        {
          "indexed": false,
          "name": "_investor",
          "type": "address"
        },
        {
          "indexed": false,
          "name": "_fromTime",
          "type": "uint256"
        },
        {
          "indexed": false,
          "name": "_toTime",
          "type": "uint256"
        },
        {
          "indexed": false,
          "name": "_expiryTime",
          "type": "uint256"
        },
        {
          "indexed": false,
          "name": "_canTransfer",
          "type": "bool"
        },
        {
          "indexed": false,
          "name": "_addedBy",
          "type": "address"
        }
      ],
      "name": "ModifyWhitelist",
      "type": "event"
    },
    {
      "anonymous": false,
      "inputs": [
        {
          "indexed": false,
          "name": "_tranche",
          "type": "bytes32"
        },
        {
          "indexed": false,
          "name": "_oldHolderCount",
          "type": "uint256"
        },
        {
          "indexed": false,
          "name": "_newHolderCount",
          "type": "uint256"
        },
        {
          "indexed": false,
          "name": "_oldHolderPercentage",
          "type": "uint256"
        },
        {
          "indexed": false,
          "name": "_newHolderPercentage",
          "type": "uint256"
        }
      ],
      "name": "ConfigHolder",
      "type": "event"
    },
    {
      "anonymous": false,
      "inputs": [
        {
          "indexed": false,
          "name": "_name",
          "type": "string"
        },
        {
          "indexed": false,
          "name": "_errcode",
          "type": "uint256"
        },
        {
          "indexed": false,
          "name": "_errmsg",
          "type": "string"
        }
      ],
      "name": "Error",
      "type": "event"
    },
    {
      "constant": false,
      "inputs": [
        {
          "name": "_tranche",
          "type": "bytes32"
        },
        {
          "name": "_from",
          "type": "address"
        },
        {
          "name": "_to",
          "type": "address"
        },
        {
          "name": "_amount",
          "type": "uint256"
        },
        {
          "name": "_data",
          "type": "bytes"
        }
      ],
      "name": "checkTransfer",
      "outputs": [
        {
          "name": "",
          "type": "bool"
        }
      ],
      "payable": false,
      "stateMutability": "nonpayable",
      "type": "function"
    },
    {
      "constant": false,
      "inputs": [
        {
          "name": "_tranche",
          "type": "bytes32"
        },
        {
          "name": "_to",
          "type": "address"
        },
        {
          "name": "_amount",
          "type": "uint256"
        },
        {
          "name": "_data",
          "type": "bytes"
        }
      ],
      "name": "checkMint",
      "outputs": [
        {
          "name": "",
          "type": "bool"
        }
      ],
      "payable": false,
      "stateMutability": "nonpayable",
      "type": "function"
    },
    {
      "constant": false,
      "inputs": [
        {
          "name": "_tranche",
          "type": "bytes32"
        },
        {
          "name": "_to",
          "type": "address"
        },
        {
          "name": "_amount",
          "type": "uint256"
        },
        {
          "name": "_data",
          "type": "bytes"
        }
      ],
      "name": "checkBurn",
      "outputs": [
        {
          "name": "",
          "type": "bool"
        }
      ],
      "payable": false,
      "stateMutability": "nonpayable",
      "type": "function"
    },
    {
      "constant": false,
      "inputs": [
        {
          "name": "_owner",
          "type": "address"
        },
        {
          "name": "_from",
          "type": "bytes32"
        },
        {
          "name": "_to",
          "type": "bytes32"
        },
        {
          "name": "_amount",
          "type": "uint256"
        },
        {
          "name": "_data",
          "type": "bytes"
        }
      ],
      "name": "checkChangeTranche",
      "outputs": [
        {
          "name": "",
          "type": "bool"
        }
      ],
      "payable": false,
      "stateMutability": "nonpayable",
      "type": "function"
    },
    {
      "constant": false,
      "inputs": [
        {
          "name": "_investor",
          "type": "address"
        },
        {
          "name": "_fromTime",
          "type": "uint256"
        },
        {
          "name": "_toTime",
          "type": "uint256"
        },
        {
          "name": "_expiryTime",
          "type": "uint256"
        },
        {
          "name": "_canTransfer",
          "type": "bool"
        },
        {
          "name": "_tranche",
          "type": "bytes32"
        }
      ],
      "name": "modifyWhitelist",
      "outputs": [],
      "payable": false,
      "stateMutability": "nonpayable",
      "type": "function"
    },
    {
      "constant": false,
      "inputs": [
        {
          "name": "_investors",
          "type": "address[]"
        },
        {
          "name": "_fromTimes",
          "type": "uint256[]"
        },
        {
          "name": "_toTimes",
          "type": "uint256[]"
        },
        {
          "name": "_expiryTimes",
          "type": "uint256[]"
        },
        {
          "name": "_canTransfer",
          "type": "bool[]"
        },
        {
          "name": "_tranches",
          "type": "bytes32[]"
        }
      ],
      "name": "batchModifyWhitelist",
      "outputs": [],
      "payable": false,
      "stateMutability": "nonpayable",
      "type": "function"
    },
    {
      "constant": false,
      "inputs": [
        {
          "name": "_tranche",
          "type": "bytes32"
        },
        {
          "name": "_maxHolderCount",
          "type": "uint256"
        },
        {
          "name": "_maxHolderPercentage",
          "type": "uint256"
        }
      ],
      "name": "configHolder",
      "outputs": [],
      "payable": false,
      "stateMutability": "nonpayable",
      "type": "function"
    },
    {
      "constant": true,
      "inputs": [
        {
          "name": "_investor",
          "type": "address"
        },
        {
          "name": "_tranche",
          "type": "bytes32"
        }
      ],
      "name": "getPolicyDetails",
      "outputs": [
        {
          "name": "",
          "type": "uint256"
        },
        {
          "name": "",
          "type": "uint256"
        },
        {
          "name": "",
          "type": "uint256"
        },
        {
          "name": "",
          "type": "bool"
        },
        {
          "name": "",
          "type": "uint256"
        },
        {
          "name": "",
          "type": "uint256"
        }
      ],
      "payable": false,
      "stateMutability": "view",
      "type": "function"
    }
  ],
  "bytecode": "0x6000805460ff1916600190811790915560c0604052601360808190527f5365637572697479546f6b656e506f6c6963790000000000000000000000000060a09081526200004d929162000137565b503480156200005b57600080fd5b5060405160208062001746833981016040818152915160028054600160a060020a031916600160a060020a0380841691909117918290557f0139057c000000000000000000000000000000000000000000000000000000008452935191931691630139057c9160048083019260209291908290030181600087803b158015620000e357600080fd5b505af1158015620000f8573d6000803e3d6000fd5b505050506040513d60208110156200010f57600080fd5b505160038054600160a060020a031916600160a060020a0390921691909117905550620001dc565b828054600181600116156101000203166002900490600052602060002090601f016020900481019282601f106200017a57805160ff1916838001178555620001aa565b82800160010185558215620001aa579182015b82811115620001aa5782518255916020019190600101906200018d565b50620001b8929150620001bc565b5090565b620001d991905b80821115620001b85760008155600101620001c3565b90565b61155a80620001ec6000396000f3006080604052600436106100c15763ffffffff60e060020a6000350416630139057c81146100c65780630345abe9146100f757806303977b541461018457806306fdde03146101ae578063118ec75114610238578063261540a4146102845780632f456e8a146103f857806348703cfe1461046757806354fd4d50146104855780637716841d146104b05780637a6fade714610524578063a5198d901461057b578063b84dfbd214610593578063c2e0cb47146105a8578063ff79acd1146105da575b600080fd5b3480156100d257600080fd5b506100db610649565b60408051600160a060020a039092168252519081900360200190f35b34801561010357600080fd5b50604080516020600460843581810135601f81018490048402850184019095528484526101709482359460248035600160a060020a039081169660443590911695606435953695919460a49490939101919081908401838280828437509497506106589650505050505050565b604080519115158252519081900360200190f35b34801561019057600080fd5b5061019c6004356106c7565b60408051918252519081900360200190f35b3480156101ba57600080fd5b506101c36106d9565b6040805160208082528351818301528351919283929083019185019080838360005b838110156101fd5781810151838201526020016101e5565b50505050905090810190601f16801561022a5780820380516001836020036101000a031916815260200191505b509250505060405180910390f35b34801561024457600080fd5b5061025c600160a060020a0360043516602435610766565b6040805194855260208501939093528383019190915215156060830152519081900360800190f35b34801561029057600080fd5b50604080516020600480358082013583810280860185019096528085526103f695369593946024949385019291829185019084908082843750506040805187358901803560208181028481018201909552818452989b9a998901989297509082019550935083925085019084908082843750506040805187358901803560208181028481018201909552818452989b9a998901989297509082019550935083925085019084908082843750506040805187358901803560208181028481018201909552818452989b9a998901989297509082019550935083925085019084908082843750506040805187358901803560208181028481018201909552818452989b9a998901989297509082019550935083925085019084908082843750506040805187358901803560208181028481018201909552818452989b9a99890198929750908201955093508392508501908490808284375094975061079b9650505050505050565b005b34801561040457600080fd5b50604080516020601f60643560048181013592830184900484028501840190955281845261017094803594600160a060020a036024803591909116956044359536956084949301918190840183828082843750949750610b4f9650505050505050565b34801561047357600080fd5b506103f6600435602435604435610bd8565b34801561049157600080fd5b5061049a610ddf565b6040805160ff9092168252519081900360200190f35b3480156104bc57600080fd5b50604080516020601f60843560048181013592830184900484028501840190955281845261017094600160a060020a03813516946024803595604435956064359536959460a4949093910191908190840183828082843750949750610de89650505050505050565b34801561053057600080fd5b50610548600160a060020a0360043516602435610df3565b604080519687526020870195909552858501939093529015156060850152608084015260a0830152519081900360c00190f35b34801561058757600080fd5b5061019c600435610e4c565b34801561059f57600080fd5b506100db610e5e565b3480156105b457600080fd5b506103f6600160a060020a0360043516602435604435606435608435151560a435610e6d565b3480156105e657600080fd5b50604080516020601f60643560048181013592830184900484028501840190955281845261017094803594600160a060020a0360248035919091169560443595369560849493019181908401838280828437509497506111309650505050505050565b600354600160a060020a031681565b600061066586868661113a565b15156106bb576040805160e560020a62461bcd02815260206004820152601360248201527f636865636b5768696c654c697374206661696c00000000000000000000000000604482015290519081900360640190fd5b50600195945050505050565b60056020526000908152604090205481565b60018054604080516020600284861615610100026000190190941693909304601f8101849004840282018401909252818152929183018282801561075e5780601f106107335761010080835404028352916020019161075e565b820191906000526020600020905b81548152906001019060200180831161074157829003601f168201915b505050505081565b600460209081526000928352604080842090915290825290208054600182015460028301546003909301549192909160ff1684565b60408051808201909152600f81527f6d6f6469667957686974656c6973740000000000000000000000000000000000602082015260035460009190600160a060020a03161515610835576040805160e560020a62461bcd02815260206004820152601560248201527f52414320646f6573206e6f742052656769737465720000000000000000000000604482015290519081900360640190fd5b600354600160a060020a031663253bd7b733610850846114aa565b6040805160e060020a63ffffffff8616028152600160a060020a03909316600484015260248301919091525160448083019260209291908290030181600087803b15801561089d57600080fd5b505af11580156108b1573d6000803e3d6000fd5b505050506040513d60208110156108c757600080fd5b5051151561091f576040805160e560020a62461bcd02815260206004820152600f60248201527f5065726d697373696f6e2064656e790000000000000000000000000000000000604482015290519081900360640190fd5b8251885114610966576040805160e560020a62461bcd02815260206004820152601860248201526000805160206114ef833981519152604482015290519081900360640190fd5b86518851146109ad576040805160e560020a62461bcd02815260206004820152601860248201526000805160206114ef833981519152604482015290519081900360640190fd5b85518751146109f4576040805160e560020a62461bcd02815260206004820152601860248201526000805160206114ef833981519152604482015290519081900360640190fd5b8451865114610a3b576040805160e560020a62461bcd02815260206004820152601860248201526000805160206114ef833981519152604482015290519081900360640190fd5b8551845114610a94576040805160e560020a62461bcd02815260206004820152601760248201527f4d69736d61746368656420696e707574206c656e677468000000000000000000604482015290519081900360640190fd5b600091505b8751821015610b4557610b3a8883815181101515610ab357fe5b906020019060200201518884815181101515610acb57fe5b906020019060200201518885815181101515610ae357fe5b906020019060200201518886815181101515610afb57fe5b906020019060200201518887815181101515610b1357fe5b906020019060200201518888815181101515610b2b57fe5b90602001906020020151610e6d565b600190910190610a99565b5050505050505050565b600160a060020a0383166000908152600460209081526040808320878452909152812060020154421115610bcd576040805160e560020a62461bcd02815260206004820152600f60248201527f6163636f756e7420657870697265640000000000000000000000000000000000604482015290519081900360640190fd5b506001949350505050565b60408051808201909152600c81527f636f6e666967506f6c69637900000000000000000000000000000000000000006020820152600354600160a060020a03161515610c6e576040805160e560020a62461bcd02815260206004820152601560248201527f52414320646f6573206e6f742052656769737465720000000000000000000000604482015290519081900360640190fd5b600354600160a060020a031663253bd7b733610c89846114aa565b6040805160e060020a63ffffffff8616028152600160a060020a03909316600484015260248301919091525160448083019260209291908290030181600087803b158015610cd657600080fd5b505af1158015610cea573d6000803e3d6000fd5b505050506040513d6020811015610d0057600080fd5b50511515610d58576040805160e560020a62461bcd02815260206004820152600f60248201527f5065726d697373696f6e2064656e790000000000000000000000000000000000604482015290519081900360640190fd5b60008481526005602090815260408083205460068352928190205481518881529283019390935281810186905260608201929092526080810184905290517f3efe5ecfb49866315de7659e7f52e27e7121c2f2b35c239f4ac31b4a53930e5c9181900360a00190a15060009283526005602090815260408085209390935560069052912055565b60005460ff1681565b600195945050505050565b600160a060020a0391909116600090815260046020908152604080832093835292815282822080546001820154600283015460039093015460058552868620546006909552959094205490959394919360ff9092169291565b60066020526000908152604090205481565b600254600160a060020a031681565b60408051808201909152600f81527f6d6f6469667957686974656c69737400000000000000000000000000000000006020820152600354600160a060020a03161515610f03576040805160e560020a62461bcd02815260206004820152601560248201527f52414320646f6573206e6f742052656769737465720000000000000000000000604482015290519081900360640190fd5b600354600160a060020a031663253bd7b733610f1e846114aa565b6040805160e060020a63ffffffff8616028152600160a060020a03909316600484015260248301919091525160448083019260209291908290030181600087803b158015610f6b57600080fd5b505af1158015610f7f573d6000803e3d6000fd5b505050506040513d6020811015610f9557600080fd5b50511515610fed576040805160e560020a62461bcd02815260206004820152600f60248201527f5065726d697373696f6e2064656e790000000000000000000000000000000000604482015290519081900360640190fd5b6080604051908101604052808781526020018681526020018581526020018415158152506004600089600160a060020a0316600160a060020a031681526020019081526020016000206000846000191660001916815260200190815260200160002060008201518160000155602082015181600101556040820151816002015560608201518160030160006101000a81548160ff0219169083151502179055509050507f470b2da8ce108716374df2bca80ab2136e62432634b20d62a600692daec87e5a8288888888883360405180886000191660001916815260200187600160a060020a0316600160a060020a031681526020018681526020018581526020018481526020018315151515815260200182600160a060020a0316600160a060020a0316815260200197505050505050505060405180910390a150505050505050565b6001949350505050565b600160a060020a038216600090815260046020908152604080832086845290915281206003015460ff1615156111ea5760408051600160208201526060808252600e9082015260008051602061150f833981519152608082015260a08183018190526017908201527f5f66726f6d2063616e5472616e736665722066616c736500000000000000000060c082015290516000805160206114cf8339815191529181900360e00190a15060006114a3565b600160a060020a03831660009081526004602090815260408083208784529091529020544210156112955760408051600260208201526060808252600e9082015260008051602061150f833981519152608082015260a08183018190526014908201527f5f66726f6d2066726f6d54696d65203e206e6f7700000000000000000000000060c082015290516000805160206114cf8339815191529181900360e00190a15060006114a3565b600160a060020a03831660009081526004602090815260408083208784529091529020600201544211156113435760408051600360208201526060808252600e9082015260008051602061150f833981519152608082015260a08183018190526016908201527f5f66726f6d2065787069727954696d65203c206e6f770000000000000000000060c082015290516000805160206114cf8339815191529181900360e00190a15060006114a3565b600160a060020a03821660009081526004602090815260408083208784529091529020600101544210156113f15760408051600460208201526060808252600e9082015260008051602061150f833981519152608082015260a08183018190526010908201527f5f746f20746f54696d65203e206e6f770000000000000000000000000000000060c082015290516000805160206114cf8339815191529181900360e00190a15060006114a3565b600160a060020a038216600090815260046020908152604080832087845290915290206002015442111561149f5760408051600560208201526060808252600e9082015260008051602061150f833981519152608082015260a08183018190526014908201527f5f746f2065787069727954696d65203c206e6f7700000000000000000000000060c082015290516000805160206114cf8339815191529181900360e00190a15060006114a3565b5060015b9392505050565b8051600090829015156114c057600091506114c8565b602083015191505b5091905056002889a9dad0676c5d3968f68aee3cf08ec189617986e3bc741824fabbae1dfddd4d69736d61746368656420696e707574206c656e677468730000000000000000636865636b5768696c654c697374000000000000000000000000000000000000a165627a7a723058200fc37f467d124891b259c900d4dba4aaa5e2f59aa29e609d1c5917f901e5094f0029",
  "source": "pragma solidity ^0.4.24;\n\nimport \"../interfaces/IPolicy.sol\";\nimport \"../interfaces/ICheckRAC.sol\";\nimport \"../interfaces/ISecurityToken.sol\";\nimport \"../libraries/SafeMath.sol\";\nimport \"../modules/Pausable.sol\";\nimport \"../modules/Versionable.sol\";\nimport \"../modules/DataType.sol\";\n\ncontract GeneralPolicy is DataType {\n    using SafeMath for uint256;\n\n    uint8 public version = 1;\n    string public name = \"SecurityTokenPolicy\";\n    address public securityToken;\n    address public racRegistry;\n\n    //from and to timestamps that an investor can transfer tokens respectively\n    struct Restriction {\n        uint256 fromTime;\n        uint256 toTime;\n        uint256 expiryTime;\n        bool canTransfer;\n    }\n\n\n    // An address can only transfer tokens once their corresponding uint256 > block.number\n    // (unless allowAllTransfers == true or allowAllWhitelistTransfers == true)\n    // (investor, tranche, Restriction)\n    mapping (address => mapping (bytes32 => Restriction)) public whitelist;\n    // The maximum number of concurrent token holders\n    mapping (bytes32 => uint256) public maxHolderCount;\n    // Maximum percentage that any holder can have\n    mapping (bytes32 => uint256) public maxHolderPercentage;\n\n\n    // Emit when investor details get modified related to their whitelisting\n    event ModifyWhitelist(\n        bytes32 _tranche,\n        address _investor,\n        uint256 _fromTime,\n        uint256 _toTime,\n        uint256 _expiryTime,\n        bool _canTransfer,\n        address _addedBy\n    );\n\n    event ConfigHolder(bytes32 _tranche, uint256 _oldHolderCount, uint256 _newHolderCount, uint256 _oldHolderPercentage, uint256 _newHolderPercentage);\n    event Error(string _name, uint256 _errcode, string _errmsg);\n\n    // Constructor\n    constructor (address _securityToken) public\n    {\n        securityToken = _securityToken;\n        racRegistry = ISecurityToken(securityToken).racRegistry();\n    }\n\n    /**\n    * @dev modifier to scope access to a single role (uses msg.sender as addr)\n    * @param _action the name of the role\n    * // reverts\n    */\n    modifier onlyRole(string _action)\n    {\n        require(racRegistry != address(0), \"RAC does not Register\");\n        require(ICheckRAC(racRegistry).check(msg.sender, stringToBytes32(_action)), \"Permission deny\");\n        _;\n    }\n\n    function checkTransfer(bytes32 _tranche, address _from, address _to, uint256 _amount, bytes _data) public returns(bool) {\n        require(_checkWhileList(_tranche, _from, _to), \"checkWhileList fail\");\n//        require(_checkCount(_tranche, _from, _to), \"checkCount fail\");\n//        require(_checkPercentage(_tranche, _from, _to, _amount), \"checkPercentage\");\n        return true;\n    }\n\n    function checkMint(bytes32 _tranche, address _to, uint256 _amount, bytes _data) public returns(bool) {\n        require(whitelist[_to][_tranche].expiryTime >= now, \"account expired\");\n        return true;\n    }\n\n    function checkBurn(bytes32 _tranche, address _to, uint256 _amount, bytes _data) public returns(bool) {\n        return true;\n    }\n\n    function checkChangeTranche(address _owner, bytes32 _from, bytes32 _to, uint256 _amount, bytes _data) public returns(bool) {\n        return true;\n    }\n\n    /**\n    * @notice Adds or removes addresses from the whitelist.\n    * @param _investor is the address to whitelist\n    * @param _fromTime is the moment when the sale lockup period ends and the investor can freely sell his tokens\n    * @param _toTime is the moment when the purchase lockup period ends and the investor can freely purchase tokens from others\n    * @param _expiryTime is the moment till investors KYC will be validated. After that investor need to do re-KYC\n    * @param _canTransfer is used to know whether the investor is restricted investor or not.\n    */\n    function modifyWhitelist(\n        address _investor,\n        uint256 _fromTime,\n        uint256 _toTime,\n        uint256 _expiryTime,\n        bool _canTransfer,\n        bytes32 _tranche\n    )\n    public onlyRole('modifyWhitelist') {\n        //Passing a _time == 0 into this function, is equivalent to removing the _investor from the whitelist\n        whitelist[_investor][_tranche] = Restriction(_fromTime, _toTime, _expiryTime, _canTransfer);\n        /*solium-disable-next-line security/no-block-members*/\n        emit ModifyWhitelist(_tranche, _investor, _fromTime, _toTime, _expiryTime, _canTransfer, msg.sender);\n    }\n\n\n    /**\n    * @notice Adds or removes addresses from the whitelist.\n    * @param _investors List of the addresses to whitelist\n    * @param _fromTimes An array of the moment when the sale lockup period ends and the investor can freely sell his tokens\n    * @param _toTimes An array of the moment when the purchase lockup period ends and the investor can freely purchase tokens from others\n    * @param _expiryTimes An array of the moment till investors KYC will be validated. After that investor need to do re-KYC\n    * @param _canTransfer An array of boolean values\n    */\n    function batchModifyWhitelist(\n        address[] _investors,\n        uint256[] _fromTimes,\n        uint256[] _toTimes,\n        uint256[] _expiryTimes,\n        bool[] _canTransfer,\n        bytes32[] _tranches\n    ) public onlyRole('modifyWhitelist') {\n        require(_investors.length == _tranches.length, \"Mismatched input lengths\");\n        require(_investors.length == _fromTimes.length, \"Mismatched input lengths\");\n        require(_fromTimes.length == _toTimes.length, \"Mismatched input lengths\");\n        require(_toTimes.length == _expiryTimes.length, \"Mismatched input lengths\");\n        require(_canTransfer.length == _toTimes.length, \"Mismatched input length\");\n        for (uint256 i = 0; i < _investors.length; i++) {\n            modifyWhitelist(_investors[i], _fromTimes[i], _toTimes[i], _expiryTimes[i], _canTransfer[i], _tranches[i]);\n        }\n    }\n\n    function _checkWhileList(bytes32 _tranche, address _from, address _to) internal returns(bool) {\n        if(!whitelist[_from][_tranche].canTransfer) {\n            emit Error(\"checkWhileList\", 1, '_from canTransfer false');\n            return false;\n        }\n        if(whitelist[_from][_tranche].fromTime > now) {\n            emit Error(\"checkWhileList\", 2, '_from fromTime > now');\n            return false;\n        }\n        if(whitelist[_from][_tranche].expiryTime < now) {\n            emit Error(\"checkWhileList\", 3, '_from expiryTime < now');\n            return false;\n        }\n\n        if(whitelist[_to][_tranche].toTime > now) {\n            emit Error(\"checkWhileList\", 4, '_to toTime > now');\n            return false;\n        }\n\n        if(whitelist[_to][_tranche].expiryTime < now) {\n            emit Error(\"checkWhileList\", 5, '_to expiryTime < now');\n            return false;\n        }\n\n        return true;\n    }\n\n    /**\n    * @notice config holders there can be\n    * @param _maxHolderCount is the new maximum amount of token holders\n    * @param _maxHolderPercentage is the new maximum percentage (0~100)\n    */\n    function configHolder(bytes32 _tranche, uint256 _maxHolderCount, uint256 _maxHolderPercentage) public onlyRole('configPolicy') {\n        emit ConfigHolder(_tranche, maxHolderCount[_tranche], _maxHolderCount, maxHolderPercentage[_tranche], _maxHolderPercentage);\n        maxHolderCount[_tranche] = _maxHolderCount;\n        maxHolderPercentage[_tranche] = _maxHolderPercentage;\n    }\n\n\n    function _checkCount(bytes32 _tranche, address _from, address _to) internal returns(bool) {\n        // Allow transfers to existing maxHolders\n        if (ISecurityToken(securityToken).balanceOfTranche(_tranche, _to) != 0) {\n            return true;\n        }\n        if (maxHolderCount[_tranche] >= ISecurityToken(securityToken).getInvestorCount(_tranche)) {\n            return true;\n        }\n\n        emit Error(\"checkCount\", 1, 'over maxHolderCount');\n        return false;\n    }\n\n\n    function _checkPercentage(bytes32 _tranche, address _from, address _to, uint256 _amount) internal returns(bool) {\n        uint256 newBalance = ISecurityToken(securityToken).balanceOfTranche(_tranche, _to).add(_amount);\n        uint256 trancheTotalSupply = ISecurityToken(securityToken).getTrancheTotalSupply(_tranche);\n        // if decimals is 18 then multiplied by 10**16 - e.g. 20% is 20 * 10**16\n        if (newBalance.mul(uint256(10)**18).div(trancheTotalSupply) <= maxHolderPercentage[_tranche].mul(uint256(10)**16)) {\n            return true;\n        }\n\n        emit Error(\"checkPercentage\", 1, 'newBalance.mul(uint256(10)**18).div(trancheTotalSupply) <= maxHolderPercentage[_tranche].mul(uint256(10)**16)');\n        return false;\n    }\n\n    /**\n    * @notice Return the Policy details\n    */\n    function getPolicyDetails(address _investor, bytes32 _tranche) public view returns(uint256, uint256, uint256, bool,uint256, uint256) {\n        return (\n        whitelist[_investor][_tranche].fromTime,\n        whitelist[_investor][_tranche].toTime,\n        whitelist[_investor][_tranche].expiryTime,\n        whitelist[_investor][_tranche].canTransfer,\n        maxHolderCount[_tranche],\n        maxHolderPercentage[_tranche]\n        );\n    }\n\n\n}\n",
  "sourcePath": "/Users/tercel/Workspace/oneroot-sto/contracts/policies/GeneralPolicy.sol",
  "compiler": {
    "name": "solc",
    "version": "0.4.24+commit.e67f0147.Emscripten.clang"
  },
  "schemaVersion": "2.0.1",
  "updatedAt": "2019-01-08T11:20:26.393Z"
}