{
  "contractName": "Migrations",
  "abi": [
    {
      "constant": true,
      "inputs": [],
      "name": "owner",
      "outputs": [
        {
          "name": "",
          "type": "address"
        }
      ],
      "payable": false,
      "stateMutability": "view",
      "type": "function"
    },
    {
      "constant": true,
      "inputs": [],
      "name": "lastCompletedMigration",
      "outputs": [
        {
          "name": "",
          "type": "uint256"
        }
      ],
      "payable": false,
      "stateMutability": "view",
      "type": "function"
    },
    {
      "inputs": [],
      "payable": false,
      "stateMutability": "nonpayable",
      "type": "constructor"
    },
    {
      "constant": false,
      "inputs": [
        {
          "name": "_completed",
          "type": "uint256"
        }
      ],
      "name": "setCompleted",
      "outputs": [],
      "payable": false,
      "stateMutability": "nonpayable",
      "type": "function"
    },
    {
      "constant": false,
      "inputs": [
        {
          "name": "_newAddress",
          "type": "address"
        }
      ],
      "name": "upgrade",
      "outputs": [],
      "payable": false,
      "stateMutability": "nonpayable",
      "type": "function"
    }
  ],
  "bytecode": "0x608060405234801561001057600080fd5b5060008054600160a060020a03191633179055610303806100326000396000f3006080604052600436106100615763ffffffff7c01000000000000000000000000000000000000000000000000000000006000350416630900f01081146100665780638da5cb5b14610096578063fbdbad3c146100d4578063fdacd576146100fb575b600080fd5b34801561007257600080fd5b5061009473ffffffffffffffffffffffffffffffffffffffff60043516610113565b005b3480156100a257600080fd5b506100ab61022a565b6040805173ffffffffffffffffffffffffffffffffffffffff9092168252519081900360200190f35b3480156100e057600080fd5b506100e9610246565b60408051918252519081900360200190f35b34801561010757600080fd5b5061009460043561024c565b6000805473ffffffffffffffffffffffffffffffffffffffff16331461019a57604080517f08c379a000000000000000000000000000000000000000000000000000000000815260206004820152601460248201527f53656e646572206d757374206265206f776e6572000000000000000000000000604482015290519081900360640190fd5b8190508073ffffffffffffffffffffffffffffffffffffffff1663fdacd5766001546040518263ffffffff167c010000000000000000000000000000000000000000000000000000000002815260040180828152602001915050600060405180830381600087803b15801561020e57600080fd5b505af1158015610222573d6000803e3d6000fd5b505050505050565b60005473ffffffffffffffffffffffffffffffffffffffff1681565b60015481565b60005473ffffffffffffffffffffffffffffffffffffffff1633146102d257604080517f08c379a000000000000000000000000000000000000000000000000000000000815260206004820152601460248201527f53656e646572206d757374206265206f776e6572000000000000000000000000604482015290519081900360640190fd5b6001555600a165627a7a72305820399f33c1f92616f04c7ca90db1d029d879c1f7c559c3ce885258b2bcee667a8a0029",
  "source": "pragma solidity ^0.4.24;\n\n\ncontract Migrations {\n\n    address public owner;\n\n    uint public lastCompletedMigration;\n\n    modifier restricted() {\n        require(msg.sender == owner, \"Sender must be owner\");\n        _;\n    }\n\n    constructor() public {\n        owner = msg.sender;\n    }\n\n    function setCompleted(uint _completed)public  restricted {\n        lastCompletedMigration = _completed;\n    }\n\n    function upgrade(address _newAddress)public  restricted {\n        Migrations upgraded = Migrations(_newAddress);\n        upgraded.setCompleted(lastCompletedMigration);\n    }\n}\n",
  "sourcePath": "/Users/tercel/Workspace/oneroot-sto/contracts/Migrations.sol",
  "compiler": {
    "name": "solc",
    "version": "0.4.24+commit.e67f0147.Emscripten.clang"
  },
  "schemaVersion": "2.0.1",
  "updatedAt": "2019-01-08T11:20:26.320Z"
}