{
  "contractName": "Pausable",
  "abi": [
    {
      "constant": true,
      "inputs": [],
      "name": "paused",
      "outputs": [
        {
          "name": "",
          "type": "bool"
        }
      ],
      "payable": false,
      "stateMutability": "view",
      "type": "function"
    },
    {
      "anonymous": false,
      "inputs": [
        {
          "indexed": false,
          "name": "_timestammp",
          "type": "uint256"
        }
      ],
      "name": "Pause",
      "type": "event"
    },
    {
      "anonymous": false,
      "inputs": [
        {
          "indexed": false,
          "name": "_timestamp",
          "type": "uint256"
        }
      ],
      "name": "Unpause",
      "type": "event"
    },
    {
      "constant": false,
      "inputs": [],
      "name": "pause",
      "outputs": [],
      "payable": false,
      "stateMutability": "nonpayable",
      "type": "function"
    },
    {
      "constant": false,
      "inputs": [],
      "name": "unpause",
      "outputs": [],
      "payable": false,
      "stateMutability": "nonpayable",
      "type": "function"
    }
  ],
  "bytecode": "0x60806040526000805460ff1916905534801561001a57600080fd5b5061024b8061002a6000396000f3006080604052600436106100565763ffffffff7c01000000000000000000000000000000000000000000000000000000006000350416633f4ba83a811461005b5780635c975abb146100725780638456cb591461009b575b600080fd5b34801561006757600080fd5b506100706100b0565b005b34801561007e57600080fd5b50610087610162565b604080519115158252519081900360200190f35b3480156100a757600080fd5b5061007061016b565b60005460ff16151561012357604080517f08c379a000000000000000000000000000000000000000000000000000000000815260206004820152601660248201527f436f6e7472616374206973206e6f742070617573656400000000000000000000604482015290519081900360640190fd5b6000805460ff191690556040805142815290517faaa520fdd7d2c83061d632fa017b0432407e798818af63ea908589fceda39ab79181900360200190a1565b60005460ff1681565b60005460ff16156101dd57604080517f08c379a000000000000000000000000000000000000000000000000000000000815260206004820152601260248201527f436f6e7472616374206973207061757365640000000000000000000000000000604482015290519081900360640190fd5b6000805460ff191660011790556040805142815290517f68b095021b1f40fe513109f513c66692f0b3219aee674a69f4efc57badb8201d9181900360200190a15600a165627a7a7230582000b6c4436227ad046576cfdf262ef9710df39244cc9ba1b471865feff2e08ca20029",
  "source": "pragma solidity ^0.4.24;\n\n/**\n * @title Utility contract to allow pausing and unpausing of certain functions\n */\ncontract Pausable {\n\n    event Pause(uint256 _timestammp);\n    event Unpause(uint256 _timestamp);\n\n    bool public paused = false;\n\n    /**\n    * @notice Modifier to make a function callable only when the contract is not paused.\n    */\n    modifier whenNotPaused() {\n        require(!paused, \"Contract is paused\");\n        _;\n    }\n\n    /**\n    * @notice Modifier to make a function callable only when the contract is paused.\n    */\n    modifier whenPaused() {\n        require(paused, \"Contract is not paused\");\n        _;\n    }\n\n    /**\n     * @notice Called by the owner to pause, triggers stopped state\n     */\n    function pause() public whenNotPaused {\n        paused = true;\n        emit Pause(now);\n    }\n\n    /**\n    * @notice Called by the owner to unpause, returns to normal state\n    */\n    function unpause() public whenPaused {\n        paused = false;\n        emit Unpause(now);\n    }\n\n}\n",
  "sourcePath": "/Users/tercel/Workspace/oneroot-sto/contracts/modules/Pausable.sol",
  "compiler": {
    "name": "solc",
    "version": "0.4.24+commit.e67f0147.Emscripten.clang"
  },
  "schemaVersion": "2.0.1",
  "updatedAt": "2019-01-08T11:19:28.835Z"
}