{
  "contractName": "PolicyRegistry",
  "abi": [
    {
      "constant": true,
      "inputs": [
        {
          "name": "",
          "type": "address"
        },
        {
          "name": "",
          "type": "bytes32"
        }
      ],
      "name": "policies",
      "outputs": [
        {
          "name": "",
          "type": "address"
        }
      ],
      "payable": false,
      "stateMutability": "view",
      "type": "function"
    },
    {
      "inputs": [],
      "payable": false,
      "stateMutability": "nonpayable",
      "type": "constructor"
    },
    {
      "anonymous": false,
      "inputs": [
        {
          "indexed": true,
          "name": "_sender",
          "type": "address"
        },
        {
          "indexed": false,
          "name": "_tranche",
          "type": "bytes32"
        },
        {
          "indexed": true,
          "name": "_old",
          "type": "address"
        },
        {
          "indexed": true,
          "name": "_new",
          "type": "address"
        }
      ],
      "name": "Registered",
      "type": "event"
    },
    {
      "constant": false,
      "inputs": [
        {
          "name": "_tranche",
          "type": "bytes32"
        },
        {
          "name": "_policy",
          "type": "address"
        }
      ],
      "name": "register",
      "outputs": [
        {
          "name": "",
          "type": "bool"
        }
      ],
      "payable": false,
      "stateMutability": "nonpayable",
      "type": "function"
    },
    {
      "constant": false,
      "inputs": [
        {
          "name": "_tranche",
          "type": "bytes32"
        },
        {
          "name": "_from",
          "type": "address"
        },
        {
          "name": "_to",
          "type": "address"
        },
        {
          "name": "_amount",
          "type": "uint256"
        },
        {
          "name": "_data",
          "type": "bytes"
        }
      ],
      "name": "checkTransfer",
      "outputs": [
        {
          "name": "",
          "type": "bool"
        }
      ],
      "payable": false,
      "stateMutability": "nonpayable",
      "type": "function"
    },
    {
      "constant": false,
      "inputs": [
        {
          "name": "_tranche",
          "type": "bytes32"
        },
        {
          "name": "_to",
          "type": "address"
        },
        {
          "name": "_amount",
          "type": "uint256"
        },
        {
          "name": "_data",
          "type": "bytes"
        }
      ],
      "name": "checkMint",
      "outputs": [
        {
          "name": "",
          "type": "bool"
        }
      ],
      "payable": false,
      "stateMutability": "nonpayable",
      "type": "function"
    },
    {
      "constant": false,
      "inputs": [
        {
          "name": "_tranche",
          "type": "bytes32"
        },
        {
          "name": "_to",
          "type": "address"
        },
        {
          "name": "_amount",
          "type": "uint256"
        },
        {
          "name": "_data",
          "type": "bytes"
        }
      ],
      "name": "checkBurn",
      "outputs": [
        {
          "name": "",
          "type": "bool"
        }
      ],
      "payable": false,
      "stateMutability": "nonpayable",
      "type": "function"
    },
    {
      "constant": false,
      "inputs": [
        {
          "name": "_owner",
          "type": "address"
        },
        {
          "name": "_from",
          "type": "bytes32"
        },
        {
          "name": "_to",
          "type": "bytes32"
        },
        {
          "name": "_amount",
          "type": "uint256"
        },
        {
          "name": "_data",
          "type": "bytes"
        }
      ],
      "name": "checkChangeTranche",
      "outputs": [
        {
          "name": "",
          "type": "bool"
        }
      ],
      "payable": false,
      "stateMutability": "nonpayable",
      "type": "function"
    }
  ],
  "bytecode": "0x608060405234801561001057600080fd5b50610752806100206000396000f3006080604052600436106100775763ffffffff7c01000000000000000000000000000000000000000000000000000000006000350416630345abe9811461007c5780632f456e8a146101095780637716841d14610178578063d22057a9146101ec578063e8f180b714610210578063ff79acd114610250575b600080fd5b34801561008857600080fd5b50604080516020600460843581810135601f81018490048402850184019095528484526100f59482359460248035600160a060020a039081169660443590911695606435953695919460a49490939101919081908401838280828437509497506102bf9650505050505050565b604080519115158252519081900360200190f35b34801561011557600080fd5b50604080516020601f6064356004818101359283018490048402850184019095528184526100f594803594600160a060020a0360248035919091169560443595369560849493019181908401838280828437509497506103f79650505050505050565b34801561018457600080fd5b50604080516020601f6084356004818101359283018490048402850184019095528184526100f594600160a060020a03813516946024803595604435956064359536959460a49490939101919081908401838280828437509497506105239650505050505050565b3480156101f857600080fd5b506100f5600435600160a060020a03602435166105d5565b34801561021c57600080fd5b50610234600160a060020a036004351660243561065c565b60408051600160a060020a039092168252519081900360200190f35b34801561025c57600080fd5b50604080516020601f6064356004818101359283018490048402850184019095528184526100f594803594600160a060020a03602480359190911695604435953695608494930191819084018382808284375094975061067f9650505050505050565b3360009081526020818152604080832088845282528083205490517f0345abe900000000000000000000000000000000000000000000000000000000815260048101898152600160a060020a03898116602484015288811660448401526064830188905260a060848401908152875160a485015287519190941694630345abe9948c948c948c948c948c94929360c40191908501908083838f5b83811015610371578181015183820152602001610359565b50505050905090810190601f16801561039e5780820380516001836020036101000a031916815260200191505b509650505050505050602060405180830381600087803b1580156103c157600080fd5b505af11580156103d5573d6000803e3d6000fd5b505050506040513d60208110156103eb57600080fd5b50519695505050505050565b3360009081526020818152604080832087845282528083205490517f2f456e8a00000000000000000000000000000000000000000000000000000000815260048101888152600160a060020a038881166024840152604483018890526080606484019081528751608485015287519190941694632f456e8a948b948b948b948b9491939260a401918501908083838e5b8381101561049f578181015183820152602001610487565b50505050905090810190601f1680156104cc5780820380516001836020036101000a031916815260200191505b5095505050505050602060405180830381600087803b1580156104ee57600080fd5b505af1158015610502573d6000803e3d6000fd5b505050506040513d602081101561051857600080fd5b505195945050505050565b3360009081526020818152604080832086845282528083205490517f7716841d000000000000000000000000000000000000000000000000000000008152600160a060020a0389811660048301908152602483018a9052604483018990526064830188905260a060848401908152875160a485015287519490921694637716841d948c948c948c948c948c94919360c40191908501908083838f83811015610371578181015183820152602001610359565b336000818152602081815260408083208684528252808320805473ffffffffffffffffffffffffffffffffffffffff1916600160a060020a0387811691821792839055835189815293519596919592169390927f81976c3520536e61cf80b3706769a61ac060a91ca24ef362e8d591667df6c583929081900390910190a450600192915050565b6000602081815292815260408082209093529081522054600160a060020a031681565b3360009081526020818152604080832087845282528083205490517fff79acd100000000000000000000000000000000000000000000000000000000815260048101888152600160a060020a03888116602484015260448301889052608060648401908152875160848501528751919094169463ff79acd1948b948b948b948b9491939260a401918501908083838e8381101561049f5781810151838201526020016104875600a165627a7a723058205f255e803b564fc77bad54e4532808d30a78c80e2ba7626c35637370c0da8e320029",
  "source": "pragma solidity ^0.4.24;\n\nimport \"./interfaces/IPolicy.sol\";\n\ncontract PolicyRegistry {\n\n    // (sender/securityTokenAddress, tranche, policy)\n    mapping (address => mapping (bytes32 => address)) public policies;\n\n    // Emit when the policy gets registered on the PolicyRegistry contract\n    event Registered(address indexed _sender, bytes32 _tranche, address indexed _old, address indexed _new);\n\n    // Constructor\n    constructor () public\n    {\n\n    }\n\n    /**\n     * @notice register new policy for SecurityTokens to use\n     * @param _policy is the address of the security policy to be registered\n     */\n    function register(bytes32 _tranche, address _policy) external returns(bool) {\n        policies[msg.sender][_tranche] = _policy;\n        emit Registered(msg.sender, _tranche, policies[msg.sender][_tranche], _policy);\n        return true;\n    }\n\n\n    function checkTransfer(bytes32 _tranche, address _from, address _to, uint256 _amount, bytes _data) public returns(bool) {\n        return IPolicy(policies[msg.sender][_tranche]).checkTransfer(_tranche, _from, _to, _amount, _data);\n    }\n\n    function checkMint(bytes32 _tranche, address _to, uint256 _amount, bytes _data) public returns(bool) {\n        return IPolicy(policies[msg.sender][_tranche]).checkMint(_tranche, _to, _amount, _data);\n    }\n\n    function checkBurn(bytes32 _tranche, address _to, uint256 _amount, bytes _data) public returns(bool) {\n        return IPolicy(policies[msg.sender][_tranche]).checkBurn(_tranche, _to, _amount, _data);\n    }\n\n    function checkChangeTranche(address _owner, bytes32 _from, bytes32 _to, uint256 _amount, bytes _data) public returns(bool) {\n        return IPolicy(policies[msg.sender][_to]).checkChangeTranche(_owner, _from, _to, _amount, _data);\n    }\n\n}\n",
  "sourcePath": "/Users/tercel/Workspace/oneroot-sto/contracts/PolicyRegistry.sol",
  "compiler": {
    "name": "solc",
    "version": "0.4.24+commit.e67f0147.Emscripten.clang"
  },
  "schemaVersion": "2.0.1",
  "updatedAt": "2019-01-08T11:20:26.327Z"
}