{
  "contractName": "RAC",
  "abi": [
    {
      "inputs": [],
      "payable": false,
      "stateMutability": "nonpayable",
      "type": "constructor"
    },
    {
      "anonymous": false,
      "inputs": [
        {
          "indexed": false,
          "name": "_operator",
          "type": "address"
        },
        {
          "indexed": false,
          "name": "_action",
          "type": "bytes32"
        }
      ],
      "name": "AddRole",
      "type": "event"
    },
    {
      "anonymous": false,
      "inputs": [
        {
          "indexed": false,
          "name": "_operator",
          "type": "address"
        },
        {
          "indexed": false,
          "name": "_action",
          "type": "bytes32"
        }
      ],
      "name": "RemoveRole",
      "type": "event"
    },
    {
      "anonymous": false,
      "inputs": [
        {
          "indexed": false,
          "name": "_operator",
          "type": "address"
        },
        {
          "indexed": false,
          "name": "_action",
          "type": "bytes32"
        }
      ],
      "name": "AddPrivateRole",
      "type": "event"
    },
    {
      "anonymous": false,
      "inputs": [
        {
          "indexed": false,
          "name": "_operator",
          "type": "address"
        },
        {
          "indexed": false,
          "name": "_action",
          "type": "bytes32"
        }
      ],
      "name": "RemovePrivateRole",
      "type": "event"
    },
    {
      "constant": true,
      "inputs": [
        {
          "name": "_operator",
          "type": "address"
        },
        {
          "name": "_action",
          "type": "bytes32"
        }
      ],
      "name": "check",
      "outputs": [
        {
          "name": "",
          "type": "bool"
        }
      ],
      "payable": false,
      "stateMutability": "view",
      "type": "function"
    },
    {
      "constant": false,
      "inputs": [
        {
          "name": "_operator",
          "type": "address"
        },
        {
          "name": "_action",
          "type": "bytes32"
        }
      ],
      "name": "addRole",
      "outputs": [],
      "payable": false,
      "stateMutability": "nonpayable",
      "type": "function"
    },
    {
      "constant": false,
      "inputs": [
        {
          "name": "_operator",
          "type": "address"
        },
        {
          "name": "_actions",
          "type": "bytes32[]"
        }
      ],
      "name": "batchAddRole",
      "outputs": [],
      "payable": false,
      "stateMutability": "nonpayable",
      "type": "function"
    },
    {
      "constant": false,
      "inputs": [
        {
          "name": "_operator",
          "type": "address"
        },
        {
          "name": "_action",
          "type": "bytes32"
        }
      ],
      "name": "removeRole",
      "outputs": [],
      "payable": false,
      "stateMutability": "nonpayable",
      "type": "function"
    },
    {
      "constant": false,
      "inputs": [
        {
          "name": "_operator",
          "type": "address"
        },
        {
          "name": "_actions",
          "type": "bytes32[]"
        }
      ],
      "name": "batchRemoveRole",
      "outputs": [],
      "payable": false,
      "stateMutability": "nonpayable",
      "type": "function"
    },
    {
      "constant": true,
      "inputs": [
        {
          "name": "_action",
          "type": "bytes32"
        }
      ],
      "name": "checkPrivate",
      "outputs": [
        {
          "name": "",
          "type": "bool"
        }
      ],
      "payable": false,
      "stateMutability": "view",
      "type": "function"
    },
    {
      "constant": false,
      "inputs": [
        {
          "name": "_action",
          "type": "bytes32"
        }
      ],
      "name": "addPrivateRole",
      "outputs": [],
      "payable": false,
      "stateMutability": "nonpayable",
      "type": "function"
    },
    {
      "constant": false,
      "inputs": [
        {
          "name": "_actions",
          "type": "bytes32"
        }
      ],
      "name": "batchAddPrivateRole",
      "outputs": [],
      "payable": false,
      "stateMutability": "nonpayable",
      "type": "function"
    },
    {
      "constant": false,
      "inputs": [
        {
          "name": "_action",
          "type": "bytes32"
        }
      ],
      "name": "removePrivateRole",
      "outputs": [],
      "payable": false,
      "stateMutability": "nonpayable",
      "type": "function"
    },
    {
      "constant": false,
      "inputs": [
        {
          "name": "_actions",
          "type": "bytes32"
        }
      ],
      "name": "batchRemovePrivateRole",
      "outputs": [],
      "payable": false,
      "stateMutability": "nonpayable",
      "type": "function"
    }
  ],
  "bytecode": "0x608060405234801561001057600080fd5b5060016000806100636040805190810160405280600a81526020017f6d616e616765526f6c6500000000000000000000000000000000000000000000815250610094640100000000026401000000009004565b8152602080820192909252604090810160009081203382529092529020805460ff19169115159190911790556100b8565b8051600090829015156100aa57600091506100b2565b602083015191505b50919050565b6108b4806100c76000396000f3006080604052600436106100a35763ffffffff7c0100000000000000000000000000000000000000000000000000000000600035041663253bd7b781146100a8578063502895f6146100e057806367c83495146100f85780636853920e146101125780637e60059b14610136578063a73f7f8a1461014e578063aebe717214610172578063cebe436e1461018a578063efa7b17c146101a2578063f8dfa15914610205575b600080fd5b3480156100b457600080fd5b506100cc600160a060020a0360043516602435610268565b604080519115158252519081900360200190f35b3480156100ec57600080fd5b506100cc600435610290565b34801561010457600080fd5b506101106004356102b0565b005b34801561011e57600080fd5b50610110600160a060020a0360043516602435610311565b34801561014257600080fd5b506101106004356104ad565b34801561015a57600080fd5b50610110600160a060020a036004351660243561051e565b34801561017e57600080fd5b506101106004356105fb565b34801561019657600080fd5b50610110600435610668565b3480156101ae57600080fd5b50604080516020600460248035828101358481028087018601909752808652610110968435600160a060020a0316963696604495919490910192918291850190849080828437509497506106c69650505050505050565b34801561021157600080fd5b50604080516020600460248035828101358481028087018601909752808652610110968435600160a060020a0316963696604495919490910192918291850190849080828437509497506107789650505050505050565b600090815260208181526040808320600160a060020a03949094168352929052205460ff1690565b600090815260016020908152604080832033845290915290205460ff1690565b60008181526001602081815260408084203380865290835293819020805460ff19169093179092558151928352820183905280517fed47333d657e2b7407f2adf58d1a940c3e75b7099c3cfb07391fcb71354b20dc9281900390910190a150565b60408051808201909152600a815260008051602061086983398151915260208201526103453361034083610824565b610268565b1515610389576040805160e560020a62461bcd02815260206004820152600f6024820152600080516020610849833981519152604482015290519081900360640190fd5b600160a060020a038316331480156103cb57506103c86040805190810160405280600a8152602001600080516020610869833981519152815250610824565b82145b15610446576040805160e560020a62461bcd02815260206004820152603160248201527f63616e206e6f742072656d6f7665206974206966206f70657261746f7220746860448201527f657265206973206d616e616765526f6c65000000000000000000000000000000606482015290519081900360840190fd5b600082815260208181526040808320600160a060020a03871680855290835292819020805460ff19169055805192835290820184905280517fc705f8484c88e800a94d693561aaefd7bd22e6524a01f5168ed4f74faef75e799281900390910190a1505050565b60005b602081101561051a576105128282602081106104c857fe5b1a7f0100000000000000000000000000000000000000000000000000000000000000027effffffffffffffffffffffffffffffffffffffffffffffffffffffffffffff1916610668565b6001016104b0565b5050565b60408051808201909152600a8152600080516020610869833981519152602082015261054d3361034083610824565b1515610591576040805160e560020a62461bcd02815260206004820152600f6024820152600080516020610849833981519152604482015290519081900360640190fd5b600082815260208181526040808320600160a060020a03871680855290835292819020805460ff19166001179055805192835290820184905280517f97daecab48c1292afa1401a4490de6361e0567c87b9d6f2cb2d61e7a0a8929269281900390910190a1505050565b60005b602081101561051a5761066082826020811061061657fe5b1a7f0100000000000000000000000000000000000000000000000000000000000000027effffffffffffffffffffffffffffffffffffffffffffffffffffffffffffff19166102b0565b6001016105fe565b60008181526001602090815260408083203380855290835292819020805460ff19169055805192835290820183905280517ff676fcb3b021b576ba3a7cfb6f956e0d0787803a81cb332bf90cdd19616ea8d39281900390910190a150565b60006040805190810160405280600a81526020016000805160206108698339815191528152506106f93361034083610824565b151561073d576040805160e560020a62461bcd02815260206004820152600f6024820152600080516020610849833981519152604482015290519081900360640190fd5b82518210156107725761076784848481518110151561075857fe5b9060200190602002015161051e565b60019091019061073d565b50505050565b60006040805190810160405280600a81526020016000805160206108698339815191528152506107ab3361034083610824565b15156107ef576040805160e560020a62461bcd02815260206004820152600f6024820152600080516020610849833981519152604482015290519081900360640190fd5b82518210156107725761081984848481518110151561080a57fe5b90602001906020020151610311565b6001909101906107ef565b80516000908290151561083a5760009150610842565b602083015191505b5091905056005065726d697373696f6e2064656e7900000000000000000000000000000000006d616e616765526f6c6500000000000000000000000000000000000000000000a165627a7a7230582092baae25a13cee577759b3a2bf2d53fba25d15894fef864132b890f7c2c881550029",
  "source": "pragma solidity ^0.4.24;\n\nimport \"./modules/DataType.sol\";\n/**\n * @title RAC (Role Access Control)\n */\ncontract RAC is DataType {\n\n    //(action => operator => permission), action recommend use string(business directive)\n    mapping(bytes32=>mapping (address => bool)) roles;\n    //(action => operator => permission), action recommend use string(business directive)\n    mapping(bytes32=>mapping (address => bool)) privateRoles;\n\n    event AddRole(address _operator, bytes32 _action);\n    event RemoveRole(address _operator, bytes32 _action);\n\n    event AddPrivateRole(address _operator, bytes32 _action);\n    event RemovePrivateRole(address _operator, bytes32 _action);\n\n    constructor () public {\n        roles[stringToBytes32(\"manageRole\")][msg.sender] = true;\n    }\n\n    /**\n    * @dev modifier to scope access to a single role (uses msg.sender as addr)\n    * @param _action the name of the role\n    * // reverts\n    */\n    modifier onlyRole(string _action)\n    {\n        require(check(msg.sender, stringToBytes32(_action)), \"Permission deny\");\n        _;\n    }\n\n    /**\n    * check permission\n    * @param _operator address of operator\n    * @param _action the name of the role\n    */\n    function check(address _operator, bytes32 _action) public view returns (bool) {\n        return roles[_action][_operator];\n    }\n\n    /**\n    * @dev add a role to an address\n    * @param _operator address of operator\n    * @param _action the name of the role\n    */\n    function addRole(address _operator, bytes32 _action) public onlyRole(\"manageRole\") {\n        roles[_action][_operator] = true;\n        emit AddRole(_operator, _action);\n    }\n\n    /**\n    * @dev add roles to an address\n    * @param _operator address of operator\n    * @param _actions the name of the role\n    */\n    function batchAddRole(address _operator, bytes32[] _actions) public onlyRole(\"manageRole\") {\n        for(uint256 i; i<_actions.length; i++) {\n            addRole(_operator, _actions[i]);\n        }\n    }\n\n    /**\n     * @dev remove a role from an address\n     * @param _operator address of operator\n     * @param _action the name of the role\n     */\n    function removeRole(address _operator, bytes32 _action) public onlyRole(\"manageRole\") {\n        if(_operator == msg.sender && _action == stringToBytes32(\"manageRole\")) {\n            revert(\"can not remove it if operator there is manageRole\");\n        }\n        roles[_action][_operator] = false;\n        emit RemoveRole(_operator, _action);\n    }\n\n    /**\n     * @dev remove roles from an address\n     * @param _operator address of operator\n     * @param _actions the name of the role\n     */\n    function batchRemoveRole(address _operator, bytes32[] _actions) public onlyRole(\"manageRole\") {\n        for(uint256 i; i<_actions.length; i++) {\n            removeRole(_operator, _actions[i]);\n        }\n    }\n\n    /**\n    * check permission\n    * @param _action the name of the role\n    */\n    function checkPrivate(bytes32 _action) public view returns (bool) {\n        return privateRoles[_action][msg.sender];\n    }\n\n    /**\n    * @dev add a private role to an address\n    * @param _action the name of the role\n    */\n    function addPrivateRole(bytes32 _action) public {\n        privateRoles[_action][msg.sender] = true;\n        emit AddPrivateRole(msg.sender, _action);\n    }\n\n    /**\n    * @dev add private role to an address\n    * @param _actions the name of the role\n    */\n    function batchAddPrivateRole(bytes32 _actions) public {\n        for(uint256 i; i<_actions.length; i++) {\n            addPrivateRole(_actions[i]);\n        }\n    }\n\n    /**\n    * @dev remove a private role to an address\n    * @param _action the name of the role\n    */\n    function removePrivateRole(bytes32 _action) public {\n        privateRoles[_action][msg.sender] = false;\n        emit RemovePrivateRole(msg.sender, _action);\n    }\n\n    /**\n    * @dev remove private role to an address\n    * @param _actions the name of the role\n    */\n    function batchRemovePrivateRole(bytes32 _actions) public {\n        for(uint256 i; i<_actions.length; i++) {\n            removePrivateRole(_actions[i]);\n        }\n    }\n\n}\n",
  "sourcePath": "/Users/tercel/Workspace/oneroot-sto/contracts/RAC.sol",
  "compiler": {
    "name": "solc",
    "version": "0.4.24+commit.e67f0147.Emscripten.clang"
  },
  "schemaVersion": "2.0.1",
  "updatedAt": "2019-01-08T11:20:26.342Z"
}