{
  "contractName": "SecurityToken",
  "abi": [
    {
      "constant": true,
      "inputs": [],
      "name": "racRegistry",
      "outputs": [
        {
          "name": "",
          "type": "address"
        }
      ],
      "payable": false,
      "stateMutability": "view",
      "type": "function"
    },
    {
      "constant": true,
      "inputs": [],
      "name": "name",
      "outputs": [
        {
          "name": "",
          "type": "string"
        }
      ],
      "payable": false,
      "stateMutability": "view",
      "type": "function"
    },
    {
      "constant": true,
      "inputs": [],
      "name": "totalSupply",
      "outputs": [
        {
          "name": "",
          "type": "uint256"
        }
      ],
      "payable": false,
      "stateMutability": "view",
      "type": "function"
    },
    {
      "constant": true,
      "inputs": [],
      "name": "policyRegistry",
      "outputs": [
        {
          "name": "",
          "type": "address"
        }
      ],
      "payable": false,
      "stateMutability": "view",
      "type": "function"
    },
    {
      "constant": true,
      "inputs": [],
      "name": "issuer",
      "outputs": [
        {
          "name": "",
          "type": "address"
        }
      ],
      "payable": false,
      "stateMutability": "view",
      "type": "function"
    },
    {
      "constant": true,
      "inputs": [],
      "name": "defaultTranche",
      "outputs": [
        {
          "name": "",
          "type": "bytes32"
        }
      ],
      "payable": false,
      "stateMutability": "view",
      "type": "function"
    },
    {
      "constant": true,
      "inputs": [],
      "name": "decimals",
      "outputs": [
        {
          "name": "",
          "type": "uint8"
        }
      ],
      "payable": false,
      "stateMutability": "view",
      "type": "function"
    },
    {
      "constant": true,
      "inputs": [],
      "name": "version",
      "outputs": [
        {
          "name": "",
          "type": "uint8"
        }
      ],
      "payable": false,
      "stateMutability": "view",
      "type": "function"
    },
    {
      "constant": true,
      "inputs": [],
      "name": "granularity",
      "outputs": [
        {
          "name": "",
          "type": "uint256"
        }
      ],
      "payable": false,
      "stateMutability": "view",
      "type": "function"
    },
    {
      "constant": true,
      "inputs": [],
      "name": "symbol",
      "outputs": [
        {
          "name": "",
          "type": "string"
        }
      ],
      "payable": false,
      "stateMutability": "view",
      "type": "function"
    },
    {
      "inputs": [
        {
          "name": "_issuer",
          "type": "address"
        },
        {
          "name": "_name",
          "type": "string"
        },
        {
          "name": "_symbol",
          "type": "string"
        },
        {
          "name": "_decimals",
          "type": "uint8"
        },
        {
          "name": "_granularity",
          "type": "uint256"
        },
        {
          "name": "_racRegistry",
          "type": "address"
        }
      ],
      "payable": false,
      "stateMutability": "nonpayable",
      "type": "constructor"
    },
    {
      "anonymous": false,
      "inputs": [
        {
          "indexed": true,
          "name": "_owner",
          "type": "address"
        },
        {
          "indexed": true,
          "name": "_spender",
          "type": "address"
        },
        {
          "indexed": false,
          "name": "_value",
          "type": "uint256"
        }
      ],
      "name": "Approval",
      "type": "event"
    },
    {
      "anonymous": false,
      "inputs": [
        {
          "indexed": true,
          "name": "_from",
          "type": "address"
        },
        {
          "indexed": true,
          "name": "_to",
          "type": "address"
        },
        {
          "indexed": false,
          "name": "_value",
          "type": "uint256"
        }
      ],
      "name": "Transfer",
      "type": "event"
    },
    {
      "anonymous": false,
      "inputs": [
        {
          "indexed": true,
          "name": "_tranche",
          "type": "bytes32"
        },
        {
          "indexed": true,
          "name": "_owner",
          "type": "address"
        },
        {
          "indexed": false,
          "name": "_amount",
          "type": "uint256"
        },
        {
          "indexed": false,
          "name": "_data",
          "type": "bytes"
        }
      ],
      "name": "Minted",
      "type": "event"
    },
    {
      "anonymous": false,
      "inputs": [
        {
          "indexed": true,
          "name": "_tranche",
          "type": "bytes32"
        },
        {
          "indexed": true,
          "name": "_owner",
          "type": "address"
        },
        {
          "indexed": false,
          "name": "_amount",
          "type": "uint256"
        },
        {
          "indexed": false,
          "name": "_data",
          "type": "bytes"
        }
      ],
      "name": "Burnt",
      "type": "event"
    },
    {
      "anonymous": false,
      "inputs": [
        {
          "indexed": false,
          "name": "tranche",
          "type": "bytes32"
        },
        {
          "indexed": true,
          "name": "operator",
          "type": "address"
        },
        {
          "indexed": true,
          "name": "from",
          "type": "address"
        },
        {
          "indexed": true,
          "name": "to",
          "type": "address"
        },
        {
          "indexed": false,
          "name": "amount",
          "type": "uint256"
        },
        {
          "indexed": false,
          "name": "data",
          "type": "bytes"
        }
      ],
      "name": "SentTranche",
      "type": "event"
    },
    {
      "anonymous": false,
      "inputs": [
        {
          "indexed": true,
          "name": "_operator",
          "type": "address"
        },
        {
          "indexed": true,
          "name": "_owner",
          "type": "address"
        }
      ],
      "name": "AuthorizedOperator",
      "type": "event"
    },
    {
      "anonymous": false,
      "inputs": [
        {
          "indexed": true,
          "name": "_tranche",
          "type": "bytes32"
        },
        {
          "indexed": true,
          "name": "_operator",
          "type": "address"
        },
        {
          "indexed": true,
          "name": "_owner",
          "type": "address"
        }
      ],
      "name": "AuthorizedOperatorTranche",
      "type": "event"
    },
    {
      "anonymous": false,
      "inputs": [
        {
          "indexed": true,
          "name": "_operator",
          "type": "address"
        },
        {
          "indexed": true,
          "name": "_owner",
          "type": "address"
        }
      ],
      "name": "RevokedOperator",
      "type": "event"
    },
    {
      "anonymous": false,
      "inputs": [
        {
          "indexed": true,
          "name": "_tranche",
          "type": "bytes32"
        },
        {
          "indexed": true,
          "name": "_operator",
          "type": "address"
        },
        {
          "indexed": true,
          "name": "_owner",
          "type": "address"
        }
      ],
      "name": "RevokedOperatorTranche",
      "type": "event"
    },
    {
      "anonymous": false,
      "inputs": [
        {
          "indexed": true,
          "name": "_old",
          "type": "address"
        },
        {
          "indexed": true,
          "name": "_new",
          "type": "address"
        }
      ],
      "name": "ChangeIssuer",
      "type": "event"
    },
    {
      "anonymous": false,
      "inputs": [
        {
          "indexed": false,
          "name": "_old",
          "type": "uint256"
        },
        {
          "indexed": false,
          "name": "_new",
          "type": "uint256"
        }
      ],
      "name": "ChangeGranularity",
      "type": "event"
    },
    {
      "anonymous": false,
      "inputs": [
        {
          "indexed": false,
          "name": "_owner",
          "type": "address"
        },
        {
          "indexed": false,
          "name": "_old",
          "type": "bytes32"
        },
        {
          "indexed": false,
          "name": "_new",
          "type": "bytes32"
        }
      ],
      "name": "ChangeInvestorDefaultTranche",
      "type": "event"
    },
    {
      "anonymous": false,
      "inputs": [
        {
          "indexed": false,
          "name": "_old",
          "type": "address"
        },
        {
          "indexed": false,
          "name": "_new",
          "type": "address"
        }
      ],
      "name": "ChangePolicyRegistry",
      "type": "event"
    },
    {
      "anonymous": false,
      "inputs": [
        {
          "indexed": false,
          "name": "_tranche",
          "type": "bytes32"
        },
        {
          "indexed": false,
          "name": "_policy",
          "type": "address"
        }
      ],
      "name": "RegistryPolicy",
      "type": "event"
    },
    {
      "anonymous": false,
      "inputs": [
        {
          "indexed": false,
          "name": "_tranche",
          "type": "bytes32"
        },
        {
          "indexed": true,
          "name": "_operator",
          "type": "address"
        },
        {
          "indexed": true,
          "name": "_from",
          "type": "address"
        },
        {
          "indexed": true,
          "name": "_to",
          "type": "address"
        },
        {
          "indexed": false,
          "name": "_value",
          "type": "uint256"
        },
        {
          "indexed": false,
          "name": "_verifyTransfer",
          "type": "bool"
        },
        {
          "indexed": false,
          "name": "_data",
          "type": "bytes"
        }
      ],
      "name": "ForceTransfer",
      "type": "event"
    },
    {
      "anonymous": false,
      "inputs": [
        {
          "indexed": false,
          "name": "_tranche",
          "type": "bytes32"
        },
        {
          "indexed": true,
          "name": "_operator",
          "type": "address"
        },
        {
          "indexed": true,
          "name": "_from",
          "type": "address"
        },
        {
          "indexed": false,
          "name": "_value",
          "type": "uint256"
        },
        {
          "indexed": false,
          "name": "_verifyTransfer",
          "type": "bool"
        },
        {
          "indexed": false,
          "name": "_data",
          "type": "bytes"
        }
      ],
      "name": "ForceBurn",
      "type": "event"
    },
    {
      "anonymous": false,
      "inputs": [
        {
          "indexed": false,
          "name": "_owner",
          "type": "address"
        },
        {
          "indexed": false,
          "name": "_from",
          "type": "bytes32"
        },
        {
          "indexed": false,
          "name": "_to",
          "type": "bytes32"
        },
        {
          "indexed": false,
          "name": "_value",
          "type": "uint256"
        },
        {
          "indexed": false,
          "name": "_data",
          "type": "bytes"
        }
      ],
      "name": "ChangeTranche",
      "type": "event"
    },
    {
      "constant": false,
      "inputs": [
        {
          "name": "_issuer",
          "type": "address"
        }
      ],
      "name": "changeIssuer",
      "outputs": [],
      "payable": false,
      "stateMutability": "nonpayable",
      "type": "function"
    },
    {
      "constant": false,
      "inputs": [
        {
          "name": "_policy",
          "type": "address"
        }
      ],
      "name": "changePolicyRegistry",
      "outputs": [],
      "payable": false,
      "stateMutability": "nonpayable",
      "type": "function"
    },
    {
      "constant": true,
      "inputs": [
        {
          "name": "_tranche",
          "type": "bytes32"
        }
      ],
      "name": "getPolicy",
      "outputs": [
        {
          "name": "",
          "type": "address"
        }
      ],
      "payable": false,
      "stateMutability": "view",
      "type": "function"
    },
    {
      "constant": false,
      "inputs": [
        {
          "name": "_tranche",
          "type": "bytes32"
        },
        {
          "name": "_policy",
          "type": "address"
        }
      ],
      "name": "registryPolicy",
      "outputs": [],
      "payable": false,
      "stateMutability": "nonpayable",
      "type": "function"
    },
    {
      "constant": false,
      "inputs": [
        {
          "name": "_granularity",
          "type": "uint256"
        }
      ],
      "name": "changeGranularity",
      "outputs": [],
      "payable": false,
      "stateMutability": "nonpayable",
      "type": "function"
    },
    {
      "constant": false,
      "inputs": [
        {
          "name": "_owner",
          "type": "address"
        },
        {
          "name": "_tranche",
          "type": "bytes32"
        }
      ],
      "name": "changeInvestorDefaultTranche",
      "outputs": [],
      "payable": false,
      "stateMutability": "nonpayable",
      "type": "function"
    },
    {
      "constant": true,
      "inputs": [],
      "name": "getDecimals",
      "outputs": [
        {
          "name": "",
          "type": "uint256"
        }
      ],
      "payable": false,
      "stateMutability": "view",
      "type": "function"
    },
    {
      "constant": true,
      "inputs": [
        {
          "name": "_tranche",
          "type": "bytes32"
        }
      ],
      "name": "getTrancheTotalSupply",
      "outputs": [
        {
          "name": "",
          "type": "uint256"
        }
      ],
      "payable": false,
      "stateMutability": "view",
      "type": "function"
    },
    {
      "constant": true,
      "inputs": [
        {
          "name": "_owner",
          "type": "address"
        }
      ],
      "name": "balanceOf",
      "outputs": [
        {
          "name": "",
          "type": "uint256"
        }
      ],
      "payable": false,
      "stateMutability": "view",
      "type": "function"
    },
    {
      "constant": true,
      "inputs": [
        {
          "name": "_owner",
          "type": "address"
        }
      ],
      "name": "balanceOfAll",
      "outputs": [
        {
          "name": "",
          "type": "uint256"
        }
      ],
      "payable": false,
      "stateMutability": "view",
      "type": "function"
    },
    {
      "constant": true,
      "inputs": [
        {
          "name": "_tranche",
          "type": "bytes32"
        },
        {
          "name": "_owner",
          "type": "address"
        }
      ],
      "name": "balanceOfTranche",
      "outputs": [
        {
          "name": "",
          "type": "uint256"
        }
      ],
      "payable": false,
      "stateMutability": "view",
      "type": "function"
    },
    {
      "constant": true,
      "inputs": [
        {
          "name": "_owner",
          "type": "address"
        }
      ],
      "name": "getInvestorDefaultTranche",
      "outputs": [
        {
          "name": "",
          "type": "bytes32"
        }
      ],
      "payable": false,
      "stateMutability": "view",
      "type": "function"
    },
    {
      "constant": true,
      "inputs": [
        {
          "name": "_tranche",
          "type": "bytes32"
        },
        {
          "name": "_start",
          "type": "uint256"
        },
        {
          "name": "_end",
          "type": "uint256"
        }
      ],
      "name": "iterateInvestors",
      "outputs": [
        {
          "name": "",
          "type": "address[]"
        }
      ],
      "payable": false,
      "stateMutability": "view",
      "type": "function"
    },
    {
      "constant": true,
      "inputs": [
        {
          "name": "_tranche",
          "type": "bytes32"
        }
      ],
      "name": "getInvestorCount",
      "outputs": [
        {
          "name": "",
          "type": "uint256"
        }
      ],
      "payable": false,
      "stateMutability": "view",
      "type": "function"
    },
    {
      "constant": false,
      "inputs": [
        {
          "name": "_to",
          "type": "address"
        },
        {
          "name": "_value",
          "type": "uint256"
        }
      ],
      "name": "transfer",
      "outputs": [
        {
          "name": "success",
          "type": "bool"
        }
      ],
      "payable": false,
      "stateMutability": "nonpayable",
      "type": "function"
    },
    {
      "constant": false,
      "inputs": [
        {
          "name": "_tranche",
          "type": "bytes32"
        },
        {
          "name": "_to",
          "type": "address"
        },
        {
          "name": "_value",
          "type": "uint256"
        },
        {
          "name": "_data",
          "type": "bytes"
        }
      ],
      "name": "sendTranche",
      "outputs": [
        {
          "name": "success",
          "type": "bool"
        }
      ],
      "payable": false,
      "stateMutability": "nonpayable",
      "type": "function"
    },
    {
      "constant": false,
      "inputs": [
        {
          "name": "_tranche",
          "type": "bytes32"
        },
        {
          "name": "_to",
          "type": "address[]"
        },
        {
          "name": "_values",
          "type": "uint256[]"
        },
        {
          "name": "_data",
          "type": "bytes"
        }
      ],
      "name": "batchSendTranche",
      "outputs": [
        {
          "name": "success",
          "type": "bool"
        }
      ],
      "payable": false,
      "stateMutability": "nonpayable",
      "type": "function"
    },
    {
      "constant": false,
      "inputs": [
        {
          "name": "_from",
          "type": "address"
        },
        {
          "name": "_to",
          "type": "address"
        },
        {
          "name": "_value",
          "type": "uint256"
        }
      ],
      "name": "transferFrom",
      "outputs": [
        {
          "name": "",
          "type": "bool"
        }
      ],
      "payable": false,
      "stateMutability": "nonpayable",
      "type": "function"
    },
    {
      "constant": false,
      "inputs": [
        {
          "name": "_tranche",
          "type": "bytes32"
        },
        {
          "name": "_from",
          "type": "address"
        },
        {
          "name": "_to",
          "type": "address"
        },
        {
          "name": "_value",
          "type": "uint256"
        },
        {
          "name": "_data",
          "type": "bytes"
        }
      ],
      "name": "operatorSendTranche",
      "outputs": [
        {
          "name": "success",
          "type": "bool"
        }
      ],
      "payable": false,
      "stateMutability": "nonpayable",
      "type": "function"
    },
    {
      "constant": false,
      "inputs": [
        {
          "name": "_investor",
          "type": "address"
        },
        {
          "name": "_value",
          "type": "uint256"
        }
      ],
      "name": "mint",
      "outputs": [
        {
          "name": "success",
          "type": "bool"
        }
      ],
      "payable": false,
      "stateMutability": "nonpayable",
      "type": "function"
    },
    {
      "constant": false,
      "inputs": [
        {
          "name": "_investors",
          "type": "address[]"
        },
        {
          "name": "_values",
          "type": "uint256[]"
        }
      ],
      "name": "batchMint",
      "outputs": [
        {
          "name": "success",
          "type": "bool"
        }
      ],
      "payable": false,
      "stateMutability": "nonpayable",
      "type": "function"
    },
    {
      "constant": false,
      "inputs": [
        {
          "name": "_tranche",
          "type": "bytes32"
        },
        {
          "name": "_investor",
          "type": "address"
        },
        {
          "name": "_value",
          "type": "uint256"
        },
        {
          "name": "_data",
          "type": "bytes"
        }
      ],
      "name": "mintTranche",
      "outputs": [
        {
          "name": "success",
          "type": "bool"
        }
      ],
      "payable": false,
      "stateMutability": "nonpayable",
      "type": "function"
    },
    {
      "constant": false,
      "inputs": [
        {
          "name": "_tranche",
          "type": "bytes32"
        },
        {
          "name": "_investors",
          "type": "address[]"
        },
        {
          "name": "_values",
          "type": "uint256[]"
        },
        {
          "name": "_data",
          "type": "bytes"
        }
      ],
      "name": "batchMintTranche",
      "outputs": [
        {
          "name": "success",
          "type": "bool"
        }
      ],
      "payable": false,
      "stateMutability": "nonpayable",
      "type": "function"
    },
    {
      "constant": false,
      "inputs": [
        {
          "name": "_tranche",
          "type": "bytes32"
        },
        {
          "name": "_value",
          "type": "uint256"
        },
        {
          "name": "_data",
          "type": "bytes"
        }
      ],
      "name": "burn",
      "outputs": [
        {
          "name": "success",
          "type": "bool"
        }
      ],
      "payable": false,
      "stateMutability": "nonpayable",
      "type": "function"
    },
    {
      "constant": false,
      "inputs": [
        {
          "name": "_tranche",
          "type": "bytes32"
        },
        {
          "name": "_investor",
          "type": "address"
        },
        {
          "name": "_value",
          "type": "uint256"
        },
        {
          "name": "_data",
          "type": "bytes"
        }
      ],
      "name": "burnFrom",
      "outputs": [
        {
          "name": "success",
          "type": "bool"
        }
      ],
      "payable": false,
      "stateMutability": "nonpayable",
      "type": "function"
    },
    {
      "constant": false,
      "inputs": [
        {
          "name": "_tranche",
          "type": "bytes32"
        },
        {
          "name": "_from",
          "type": "address"
        },
        {
          "name": "_to",
          "type": "address"
        },
        {
          "name": "_value",
          "type": "uint256"
        },
        {
          "name": "_data",
          "type": "bytes"
        }
      ],
      "name": "forceTransfer",
      "outputs": [],
      "payable": false,
      "stateMutability": "nonpayable",
      "type": "function"
    },
    {
      "constant": false,
      "inputs": [
        {
          "name": "_tranche",
          "type": "bytes32"
        },
        {
          "name": "_from",
          "type": "address"
        },
        {
          "name": "_value",
          "type": "uint256"
        },
        {
          "name": "_data",
          "type": "bytes"
        }
      ],
      "name": "forceBurn",
      "outputs": [],
      "payable": false,
      "stateMutability": "nonpayable",
      "type": "function"
    },
    {
      "constant": false,
      "inputs": [
        {
          "name": "_from",
          "type": "bytes32"
        },
        {
          "name": "_to",
          "type": "bytes32"
        },
        {
          "name": "_value",
          "type": "uint256"
        },
        {
          "name": "_data",
          "type": "bytes"
        }
      ],
      "name": "changeTranche",
      "outputs": [],
      "payable": false,
      "stateMutability": "nonpayable",
      "type": "function"
    },
    {
      "constant": true,
      "inputs": [
        {
          "name": "_owner",
          "type": "address"
        }
      ],
      "name": "tranchesOf",
      "outputs": [
        {
          "name": "",
          "type": "bytes32[]"
        }
      ],
      "payable": false,
      "stateMutability": "view",
      "type": "function"
    },
    {
      "constant": false,
      "inputs": [
        {
          "name": "_operator",
          "type": "address"
        }
      ],
      "name": "authorizeOperator",
      "outputs": [],
      "payable": false,
      "stateMutability": "nonpayable",
      "type": "function"
    },
    {
      "constant": false,
      "inputs": [
        {
          "name": "_tranche",
          "type": "bytes32"
        },
        {
          "name": "_operator",
          "type": "address"
        }
      ],
      "name": "authorizeOperatorTranche",
      "outputs": [],
      "payable": false,
      "stateMutability": "nonpayable",
      "type": "function"
    },
    {
      "constant": false,
      "inputs": [
        {
          "name": "_operator",
          "type": "address"
        }
      ],
      "name": "revokeOperator",
      "outputs": [],
      "payable": false,
      "stateMutability": "nonpayable",
      "type": "function"
    },
    {
      "constant": false,
      "inputs": [
        {
          "name": "_tranche",
          "type": "bytes32"
        },
        {
          "name": "_operator",
          "type": "address"
        }
      ],
      "name": "revokeOperatorTranche",
      "outputs": [],
      "payable": false,
      "stateMutability": "nonpayable",
      "type": "function"
    },
    {
      "constant": true,
      "inputs": [
        {
          "name": "_operator",
          "type": "address"
        },
        {
          "name": "_owner",
          "type": "address"
        }
      ],
      "name": "isOperatorFor",
      "outputs": [
        {
          "name": "",
          "type": "bool"
        }
      ],
      "payable": false,
      "stateMutability": "view",
      "type": "function"
    },
    {
      "constant": true,
      "inputs": [
        {
          "name": "_tranche",
          "type": "bytes32"
        },
        {
          "name": "_operator",
          "type": "address"
        },
        {
          "name": "_owner",
          "type": "address"
        }
      ],
      "name": "isOperatorForTranche",
      "outputs": [
        {
          "name": "",
          "type": "bool"
        }
      ],
      "payable": false,
      "stateMutability": "view",
      "type": "function"
    },
    {
      "constant": false,
      "inputs": [
        {
          "name": "_spender",
          "type": "address"
        },
        {
          "name": "_value",
          "type": "uint256"
        }
      ],
      "name": "approve",
      "outputs": [
        {
          "name": "",
          "type": "bool"
        }
      ],
      "payable": false,
      "stateMutability": "nonpayable",
      "type": "function"
    },
    {
      "constant": true,
      "inputs": [
        {
          "name": "_owner",
          "type": "address"
        },
        {
          "name": "_spender",
          "type": "address"
        }
      ],
      "name": "allowance",
      "outputs": [
        {
          "name": "",
          "type": "uint256"
        }
      ],
      "payable": false,
      "stateMutability": "view",
      "type": "function"
    }
  ],
  "bytecode": "0x60806040526000805460ff191660011790553480156200001e57600080fd5b50604051620040e4380380620040e48339810160409081528151602080840151928401516060850151608086015160a08701516009805433600160a060020a03199182161790915560088054909116600160a060020a03881617905595870180519597909693019491939092916200009d91600191908801906200013c565b508351620000b39060029060208701906200013c565b506004805460ff191660ff8516179055600582905560078054600160a060020a031916600160a060020a038316179055604080516020810190915260008152620001069064010000000062000116810204565b60115550620001e1945050505050565b8051600090829015156200012e576000915062000136565b602083015191505b50919050565b828054600181600116156101000203166002900490600052602060002090601f016020900481019282601f106200017f57805160ff1916838001178555620001af565b82800160010185558215620001af579182015b82811115620001af57825182559160200191906001019062000192565b50620001bd929150620001c1565b5090565b620001de91905b80821115620001bd5760008155600101620001c8565b90565b613ef380620001f16000396000f3006080604052600436106102215763ffffffff60e060020a6000350416630139057c811461022657806301788d561461025757806306fdde031461028d578063095ea7b3146103175780630b3a6a991461034f57806313d867011461042057806318160ddd1461048e5780631b953909146104a35780631c4dd7d0146104c95780631d143848146104de578063210a8d0e146104f357806323b872dd1461050b5780632a8cae51146105355780632a91ec3914610572578063313ce56714610587578063330dfd1f146105b25780633781e5761461061257806340c10f191461063c57806353e1467e1461066057806354990b15146106cf57806354fd4d501461073e578063556f0dc7146107535780635e343e431461076857806368573107146107cb5780636bcf50041461085957806370a08231146108c8578063719181bd146108e95780637e8931591461090a5780639152fa141461092b578063959b8c3f1461094357806395d89b41146109645780639bd80eed146109795780639d68521a14610991578063a1554d35146109b5578063a1ed5cc114610a24578063a3f685f914610a45578063a9059cbb14610a5d578063bd18dee114610a81578063bfbd442a14610b52578063d95b637114610b76578063db7716c314610b9d578063dd62ed3e14610bc1578063e1e2e63414610be8578063e3da9f8f14610c61578063f0141d8414610c82578063fad8b32a14610c97578063fe992c9814610cb8575b600080fd5b34801561023257600080fd5b5061023b610cd9565b60408051600160a060020a039092168252519081900360200190f35b34801561026357600080fd5b5061027b600435600160a060020a0360243516610ce8565b60408051918252519081900360200190f35b34801561029957600080fd5b506102a2610d13565b6040805160208082528351818301528351919283929083019185019080838360005b838110156102dc5781810151838201526020016102c4565b50505050905090810190601f1680156103095780820380516001836020036101000a031916815260200191505b509250505060405180910390f35b34801561032357600080fd5b5061033b600160a060020a0360043516602435610da0565b604080519115158252519081900360200190f35b34801561035b57600080fd5b5060408051602060046024803582810135848102808701860190975280865261033b96843596369660449591949091019291829185019084908082843750506040805187358901803560208181028481018201909552818452989b9a99890198929750908201955093508392508501908490808284375050604080516020601f89358b018035918201839004830284018301909452808352979a999881019791965091820194509250829150840183828082843750949750610e869650505050505050565b34801561042c57600080fd5b5061043e600435602435604435610ee4565b60408051602080825283518183015283519192839290830191858101910280838360005b8381101561047a578181015183820152602001610462565b505050509050019250505060405180910390f35b34801561049a57600080fd5b5061027b611011565b3480156104af57600080fd5b506104c7600435600160a060020a0360243516611017565b005b3480156104d557600080fd5b5061023b61107b565b3480156104ea57600080fd5b5061023b61108a565b3480156104ff57600080fd5b506104c7600435611099565b34801561051757600080fd5b5061033b600160a060020a03600435811690602435166044356112dc565b34801561054157600080fd5b5061033b6004803590600160a060020a03602480358216926044359092169160643591608435908101910135611372565b34801561057e57600080fd5b5061027b61143d565b34801561059357600080fd5b5061059c611443565b6040805160ff9092168252519081900360200190f35b3480156105be57600080fd5b50604080516020600460443581810135601f810184900484028501840190955284845261033b94823594602480359536959460649492019190819084018382808284375094975061144c9650505050505050565b34801561061e57600080fd5b5061033b600435600160a060020a0360243581169060443516611619565b34801561064857600080fd5b5061033b600160a060020a036004351660243561164f565b34801561066c57600080fd5b50604080516020601f6064356004818101359283018490048402850184019095528184526104c794803594600160a060020a03602480359190911695604435953695608494930191819084018382808284375094975061168a9650505050505050565b3480156106db57600080fd5b50604080516020601f60643560048181013592830184900484028501840190955281845261033b94803594600160a060020a0360248035919091169560443595369560849493019181908401838280828437509497506118ae9650505050505050565b34801561074a57600080fd5b5061059c611990565b34801561075f57600080fd5b5061027b611999565b34801561077457600080fd5b50604080516020601f6064356004818101359283018490048402850184019095528184526104c7948035946024803595604435953695608494930191819084018382808284375094975061199f9650505050505050565b3480156107d757600080fd5b506040805160206004803580820135838102808601850190965280855261033b95369593946024949385019291829185019084908082843750506040805187358901803560208181028481018201909552818452989b9a998901989297509082019550935083925085019084908082843750949750611b269650505050505050565b34801561086557600080fd5b50604080516020601f60643560048181013592830184900484028501840190955281845261033b94803594600160a060020a036024803591909116956044359536956084949301918190840183828082843750949750611bdc9650505050505050565b3480156108d457600080fd5b5061027b600160a060020a0360043516612039565b3480156108f557600080fd5b5061027b600160a060020a0360043516612066565b34801561091657600080fd5b506104c7600160a060020a0360043516612081565b34801561093757600080fd5b5061027b60043561226f565b34801561094f57600080fd5b506104c7600160a060020a0360043516612281565b34801561097057600080fd5b506102a261229e565b34801561098557600080fd5b5061027b6004356122f6565b34801561099d57600080fd5b506104c7600435600160a060020a036024351661230b565b3480156109c157600080fd5b50604080516020601f60643560048181013592830184900484028501840190955281845261033b94803594600160a060020a03602480359190911695604435953695608494930191819084018382808284375094975061236c9650505050505050565b348015610a3057600080fd5b506104c7600160a060020a0360043516612442565b348015610a5157600080fd5b5061023b60043561260d565b348015610a6957600080fd5b5061033b600160a060020a0360043516602435612628565b348015610a8d57600080fd5b5060408051602060046024803582810135848102808701860190975280865261033b96843596369660449591949091019291829185019084908082843750506040805187358901803560208181028481018201909552818452989b9a99890198929750908201955093508392508501908490808284375050604080516020601f89358b018035918201839004830284018301909452808352979a9998810197919650918201945092508291508401838280828437509497506126a79650505050505050565b348015610b5e57600080fd5b506104c7600160a060020a0360043516602435612755565b348015610b8257600080fd5b5061033b600160a060020a03600435811690602435166127c8565b348015610ba957600080fd5b506104c7600435600160a060020a03602435166127e3565b348015610bcd57600080fd5b5061027b600160a060020a0360043581169060243516612aab565b348015610bf457600080fd5b50604080516020600460843581810135601f81018490048402850184019095528484526104c79482359460248035600160a060020a039081169660443590911695606435953695919460a4949093910191908190840183828082843750949750612b1f9650505050505050565b348015610c6d57600080fd5b5061043e600160a060020a0360043516612ef3565b348015610c8e57600080fd5b5061027b612f60565b348015610ca357600080fd5b506104c7600160a060020a0360043516612f69565b348015610cc457600080fd5b5061027b600160a060020a0360043516612f83565b600754600160a060020a031681565b600160a060020a0381166000908152600d602090815260408083208584529091529020545b92915050565b60018054604080516020600284861615610100026000190190941693909304601f81018490048402820184019092528181529291830182828015610d985780601f10610d6d57610100808354040283529160200191610d98565b820191906000526020600020905b815481529060010190602001808311610d7b57829003601f168201915b505050505081565b6000600160a060020a0383161515610db757600080fd5b6000821115610e0257336000908152600e60209081526040808320601083528184205484528252808320600160a060020a03871684529091529020805460ff19166001179055610e3d565b336000908152600e60209081526040808320601083528184205484528252808320600160a060020a03871684529091529020805460ff191690555b604080518381529051600160a060020a0385169133917f8c5be1e5ebec7d5bd14f71427d1e84f3dd0314c0f7b2291e5b200ac8c7c3b9259181900360200190a350600192915050565b6000805b8451811015610ed657610ecd868683815181101515610ea557fe5b906020019060200201518684815181101515610ebd57fe5b90602001906020020151866118ae565b50600101610e8a565b600191505b50949350505050565b60008381526013602052604081206001015460609182918190851115610f54576040805160e560020a62461bcd02815260206004820152600b60248201527f496e76616c696420656e64000000000000000000000000000000000000000000604482015290519081900360640190fd5b610f64858763ffffffff612f9e16565b604051908082528060200260200182016040528015610f8d578160200160208202803883390190505b509250600091508590505b84811015611006576000878152601360205260409020600101805482908110610fbd57fe5b6000918252602090912001548351600160a060020a0390911690849084908110610fe357fe5b600160a060020a0390921660209283029091019091015260019182019101610f98565b509095945050505050565b60035481565b336000818152600e602090815260408083208684528252808320600160a060020a0386168085529252808320805460ff1916600117905551909185917f85c214eb8cf789828d89c4f6a3b38d8aaba82abe793d4f911ca7a1e5cda403339190a45050565b600654600160a060020a031681565b600854600160a060020a031681565b60408051808201909152601181527f6368616e67654772616e756c61726974790000000000000000000000000000006020820152600754600160a060020a0316151561111d576040805160e560020a62461bcd0281526020600482015260156024820152600080516020613e08833981519152604482015290519081900360640190fd5b600854600160a060020a03163314156111bc57811515611175576040805160e560020a62461bcd0281526020600482015260136024820152600080516020613e28833981519152604482015290519081900360640190fd5b600554604080519182526020820184905280517f869e3a0fda6d95b52cf731650d000a783a37c9c798737bba1ce3e0ae0ea99cba9281900390910190a160058290556112d8565b600754600160a060020a031663253bd7b7336111d784612fb0565b6040805160e060020a63ffffffff8616028152600160a060020a03909316600484015260248301919091525160448083019260209291908290030181600087803b15801561122457600080fd5b505af1158015611238573d6000803e3d6000fd5b505050506040513d602081101561124e57600080fd5b50511561129a57811515611175576040805160e560020a62461bcd0281526020600482015260136024820152600080516020613e28833981519152604482015290519081900360640190fd5b6040805160e560020a62461bcd02815260206004820152600f6024820152600080516020613ea8833981519152604482015290519081900360640190fd5b5050565b600160a060020a038316600090815260106020908152604080832054815192830190915282825261131291869086908690612fd4565b151561131d57600080fd5b82600160a060020a031684600160a060020a03167fddf252ad1be2c89b69c2b068fc378daa952ba7f163c4a11628f55a4df523b3ef846040518082815260200191505060405180910390a35060019392505050565b60006113b18787878787878080601f01602080910402602001604051908101604052809392919081815260200183838082843750612fd4945050505050565b15156113bc57600080fd5b84600160a060020a031686600160a060020a031633600160a060020a0316600080516020613e488339815191528a888888604051808560001916600019168152602001848152602001806020018281038252848482818152602001925080828437604051920182900397509095505050505050a45060019695505050505050565b60115481565b60045460ff1681565b60408051808201909152600481527f6275726e00000000000000000000000000000000000000000000000000000000602082015260075460009190600160a060020a031615156114d4576040805160e560020a62461bcd0281526020600482015260156024820152600080516020613e08833981519152604482015290519081900360640190fd5b600754600160a060020a031663253bd7b7336114ef84612fb0565b6040805160e060020a63ffffffff8616028152600160a060020a03909316600484015260248301919091525160448083019260209291908290030181600087803b15801561153c57600080fd5b505af1158015611550573d6000803e3d6000fd5b505050506040513d602081101561156657600080fd5b505115156115ac576040805160e560020a62461bcd02815260206004820152600f6024820152600080516020613ea8833981519152604482015290519081900360640190fd5b6115b88533868661322a565b151561160e576040805160e560020a62461bcd02815260206004820152600c60248201527f4275726e20696e76616c69640000000000000000000000000000000000000000604482015290519081900360640190fd5b506001949350505050565b600160a060020a039081166000908152600e60209081526040808320958352948152848220939092168152919052205460ff1690565b600160a060020a03821660009081526010602090815260408083205481519283019091528282526116839185908590611bdc565b9392505050565b60408051808201909152600d81527f666f7263655472616e73666572000000000000000000000000000000000000006020820152600754600160a060020a0316151561170e576040805160e560020a62461bcd0281526020600482015260156024820152600080516020613e08833981519152604482015290519081900360640190fd5b600854600160a060020a03163314156118025761172d8585858561322a565b151561173857600080fd5b60408051868152602080820186905260019282018390526080606083018181528651918401919091528551600160a060020a0389169433947f5347cf2ebefe07b0c1e994def87539634cfcaba78f4a344bf1018ef62e61da88948c948b948b939260a08401919085019080838360005b838110156117c05781810151838201526020016117a8565b50505050905090810190601f1680156117ed5780820380516001836020036101000a031916815260200191505b509550505050505060405180910390a36118a7565b600754600160a060020a031663253bd7b73361181d84612fb0565b6040805160e060020a63ffffffff8616028152600160a060020a03909316600484015260248301919091525160448083019260209291908290030181600087803b15801561186a57600080fd5b505af115801561187e573d6000803e3d6000fd5b505050506040513d602081101561189457600080fd5b50511561129a5761172d8585858561322a565b5050505050565b60006118bc85858585613463565b15156118c757600080fd5b83600160a060020a031633600160a060020a03166000600160a060020a0316600080516020613e4883398151915288878760405180846000191660001916815260200183815260200180602001828103825283818151815260200191508051906020019080838360005b83811015611949578181015183820152602001611931565b50505050905090810190601f1680156119765780820380516001836020036101000a031916815260200191505b5094505050505060405180910390a4506001949350505050565b60005460ff1681565b60055481565b600082116119ac57600080fd5b336000908152600d602090815260408083208784529091529020548211156119d357600080fd5b6119e033858585856135a5565b15156119eb57600080fd5b336000908152600d60209081526040808320878452909152902054611a16908363ffffffff612f9e16565b336000908152600d60209081526040808320888452909152808220929092558481522054611a44908361382f565b336000818152600d6020908152604080832088845282528083209490945583518381528082018990529384018790526060840186905260a06080850181815286519186019190915285517f8ca566a30ea19f07ab98d3c336b45b3a981ccb5d7e2f30570299c6d363fbcbd2958a948a948a948a94909260c0850192860191908190849084905b83811015611ae2578181015183820152602001611aca565b50505050905090810190601f168015611b0f5780820380516001836020036101000a031916815260200191505b50965050505050505060405180910390a150505050565b60008082518451141515611b84576040805160e560020a62461bcd02815260206004820152601060248201527f496e636f727265637420696e7075747300000000000000000000000000000000604482015290519081900360640190fd5b5060005b8351811015611bd257611bc98482815181101515611ba257fe5b906020019060200201518483815181101515611bba57fe5b9060200190602002015161164f565b50600101611b88565b5060019392505050565b60408051808201909152600481527f6d696e7400000000000000000000000000000000000000000000000000000000602082015260075460009190600160a060020a03161515611c64576040805160e560020a62461bcd0281526020600482015260156024820152600080516020613e08833981519152604482015290519081900360640190fd5b600854600160a060020a0316331415611f4057600160a060020a0385161515611cd7576040805160e560020a62461bcd02815260206004820152600d60248201527f496e766573746f72206973203000000000000000000000000000000000000000604482015290519081900360640190fd5b611ce38686868661383e565b1515611d39576040805160e560020a62461bcd02815260206004820152600e60248201527f636865636b4d696e74206661696c000000000000000000000000000000000000604482015290519081900360640190fd5b600354611d4c908563ffffffff61382f16565b6003556000868152600a6020526040902054611d6e908563ffffffff61382f16565b6000878152600a6020908152604080832093909355600160a060020a0388168252600d815282822089835290522054611dad908563ffffffff61382f16565b600160a060020a0386166000818152600d602090815260408083208b84528252808320949094558351888152808201858152885195820195909552875193948b947f32a79e9033cdca8f42e7929c4db83677b87e1894ad6bf03293a9677fa684425b948b948b9493926060850192918601918190849084905b83811015611e3e578181015183820152602001611e26565b50505050905090810190601f168015611e6b5780820380516001836020036101000a031916815260200191505b50935050505060405180910390a384600160a060020a03166000600160a060020a031633600160a060020a0316600080516020613e4883398151915289888860405180846000191660001916815260200183815260200180602001828103825283818151815260200191508051906020019080838360005b83811015611efb578181015183820152602001611ee3565b50505050905090810190601f168015611f285780820380516001836020036101000a031916815260200191505b5094505050505060405180910390a460019150610edb565b600754600160a060020a031663253bd7b733611f5b84612fb0565b6040805160e060020a63ffffffff8616028152600160a060020a03909316600484015260248301919091525160448083019260209291908290030181600087803b158015611fa857600080fd5b505af1158015611fbc573d6000803e3d6000fd5b505050506040513d6020811015611fd257600080fd5b50511561129a57600160a060020a0385161515611cd7576040805160e560020a62461bcd02815260206004820152600d60248201527f496e766573746f72206973203000000000000000000000000000000000000000604482015290519081900360640190fd5b600160a060020a03166000908152600d602090815260408083206010835281842054845290915290205490565b600160a060020a031660009081526010602052604090205490565b60408051808201909152600c81527f6368616e676549737375657200000000000000000000000000000000000000006020820152600754600160a060020a03161515612105576040805160e560020a62461bcd0281526020600482015260156024820152600080516020613e08833981519152604482015290519081900360640190fd5b600854600160a060020a0316331415612177576008805473ffffffffffffffffffffffffffffffffffffffff1916600160a060020a0384811691821792839055604051919216907ff18be32d78988153f69d349f80001a89d9175432388626758c5a19110f5de92a90600090a36112d8565b600754600160a060020a031663253bd7b73361219284612fb0565b6040805160e060020a63ffffffff8616028152600160a060020a03909316600484015260248301919091525160448083019260209291908290030181600087803b1580156121df57600080fd5b505af11580156121f3573d6000803e3d6000fd5b505050506040513d602081101561220957600080fd5b50511561129a576008805473ffffffffffffffffffffffffffffffffffffffff1916600160a060020a0384811691821792839055604051919216907ff18be32d78988153f69d349f80001a89d9175432388626758c5a19110f5de92a90600090a36112d8565b6000908152600a602052604090205490565b3360009081526010602052604090205461229b9082611017565b50565b6002805460408051602060018416156101000260001901909316849004601f81018490048402820184019092528181529291830182828015610d985780601f10610d6d57610100808354040283529160200191610d98565b60009081526013602052604090206002015490565b336000818152600e602090815260408083208684528252808320600160a060020a0386168085529252808320805460ff1916905551909185917fa25d99fe6847fff774277d985adf86ed0406102536418309b4eb286c23be11319190a45050565b600084338561237c838383611619565b15156123d2576040805160e560020a62461bcd02815260206004820152601060248201527f496e76616c6964204f70657261746f7200000000000000000000000000000000604482015290519081900360640190fd5b6123de8888888861322a565b1515612434576040805160e560020a62461bcd02815260206004820152600c60248201527f4275726e20696e76616c69640000000000000000000000000000000000000000604482015290519081900360640190fd5b506001979650505050505050565b60408051808201909152600e81527f7265676973747279506f6c6963790000000000000000000000000000000000006020820152600754600160a060020a031615156124c6576040805160e560020a62461bcd0281526020600482015260156024820152600080516020613e08833981519152604482015290519081900360640190fd5b600754600160a060020a031663253bd7b7336124e184612fb0565b6040805160e060020a63ffffffff8616028152600160a060020a03909316600484015260248301919091525160448083019260209291908290030181600087803b15801561252e57600080fd5b505af1158015612542573d6000803e3d6000fd5b505050506040513d602081101561255857600080fd5b5051151561259e576040805160e560020a62461bcd02815260206004820152600f6024820152600080516020613ea8833981519152604482015290519081900360640190fd5b6006805473ffffffffffffffffffffffffffffffffffffffff1916600160a060020a038481169182179283905560408051939091168352602083019190915280517fe33d296a3c19a0cac91f505a8cc66e56e01db0b707f92fdf2cf1ee937f5ad2939281900390910190a15050565b600090815260126020526040902054600160a060020a031690565b3360009081526010602090815260408083205481519283019091528282526126539185908590613463565b151561265e57600080fd5b604080518381529051600160a060020a0385169133917fddf252ad1be2c89b69c2b068fc378daa952ba7f163c4a11628f55a4df523b3ef9181900360200190a350600192915050565b60008083518551141515612705576040805160e560020a62461bcd02815260206004820152601060248201527f496e636f727265637420696e7075747300000000000000000000000000000000604482015290519081900360640190fd5b5060005b8451811015610ed65761274c86868381518110151561272457fe5b90602001906020020151868481518110151561273c57fe5b9060200190602002015186611bdc565b50600101612709565b600160a060020a03821660008181526010602090815260409182902054825193845290830152818101839052517fbfb34b87e9798eecd6fa2aa01723a959fb6453d3b386709f2296a34b1fa98b309181900360600190a1600160a060020a03909116600090815260106020526040902055565b33600090815260106020526040812054611683908484611619565b600654600160a060020a03161515612833576040805160e560020a62461bcd0281526020600482018190526024820152600080516020613e88833981519152604482015290519081900360640190fd5b60408051808201909152600e81527f7265676973747279506f6c6963790000000000000000000000000000000000006020820152600754600160a060020a031615156128b7576040805160e560020a62461bcd0281526020600482015260156024820152600080516020613e08833981519152604482015290519081900360640190fd5b600754600160a060020a031663253bd7b7336128d284612fb0565b6040805160e060020a63ffffffff8616028152600160a060020a03909316600484015260248301919091525160448083019260209291908290030181600087803b15801561291f57600080fd5b505af1158015612933573d6000803e3d6000fd5b505050506040513d602081101561294957600080fd5b5051151561298f576040805160e560020a62461bcd02815260206004820152600f6024820152600080516020613ea8833981519152604482015290519081900360640190fd5b600654604080517fd22057a900000000000000000000000000000000000000000000000000000000815260048101869052600160a060020a0385811660248301529151919092169163d22057a99160448083019260209291908290030181600087803b1580156129fe57600080fd5b505af1158015612a12573d6000803e3d6000fd5b505050506040513d6020811015612a2857600080fd5b50511515612a3557600080fd5b600083815260126020908152604091829020805473ffffffffffffffffffffffffffffffffffffffff1916600160a060020a03861690811790915582518681529182015281517fe96ccc903c4ef80318825deae36e4a9da57aae208f2ea1cadda10c3416ed6c71929181900390910190a1505050565b600160a060020a038083166000908152600e6020908152604080832060108352818420548452825280832093851683529290529081205460ff1615612b165750600160a060020a0382166000908152601060209081526040808320548352600a909152902054610d0d565b50600092915050565b60408051808201909152600d81527f666f7263655472616e73666572000000000000000000000000000000000000006020820152600754600160a060020a03161515612ba3576040805160e560020a62461bcd0281526020600482015260156024820152600080516020613e08833981519152604482015290519081900360640190fd5b600854600160a060020a0316331415612e3d57600160a060020a0384161515612bcb57600080fd5b600160a060020a0385166000908152600d60209081526040808320898452909152902054831115612bfb57600080fd5b612c088686868686613a8d565b1515612c1357600080fd5b600160a060020a0385166000908152600d60209081526040808320898452909152902054612c47908463ffffffff612f9e16565b600160a060020a038087166000908152600d602081815260408084208c8552825280842095909555928816825282528281208982529091522054612c91908463ffffffff61382f16565b600160a060020a038086166000818152600d602090815260408083208c845282528083209590955584518b8152808201899052600195810186905260806060820181815289519183019190915288519496958c169533957f74e757a0d95b7d5e861f2f150c74c1a6330e1bc35993201905931abd671e9cb0958f958d9593948d9493909260a0850192860191908190849084905b83811015612d3d578181015183820152602001612d25565b50505050905090810190601f168015612d6a5780820380516001836020036101000a031916815260200191505b509550505050505060405180910390a483600160a060020a031633600160a060020a03166000600160a060020a0316600080516020613e4883398151915289878760405180846000191660001916815260200183815260200180602001828103825283818151815260200191508051906020019080838360005b83811015612dfc578181015183820152602001612de4565b50505050905090810190601f168015612e295780820380516001836020036101000a031916815260200191505b5094505050505060405180910390a4612eeb565b600754600160a060020a031663253bd7b733612e5884612fb0565b6040805160e060020a63ffffffff8616028152600160a060020a03909316600484015260248301919091525160448083019260209291908290030181600087803b158015612ea557600080fd5b505af1158015612eb9573d6000803e3d6000fd5b505050506040513d6020811015612ecf57600080fd5b50511561129a57600160a060020a0384161515612bcb57600080fd5b505050505050565b600160a060020a0381166000908152600f6020908152604091829020805483518184028101840190945280845260609392830182828015612f5457602002820191906000526020600020905b81548152600190910190602001808311612f3f575b50505050509050919050565b60045460ff1690565b3360009081526010602052604090205461229b908261230b565b600160a060020a03166000908152600c602052604090205490565b600082821115612faa57fe5b50900390565b805160009082901515612fc65760009150612fce565b602083015191505b50919050565b6000853386612fe4838383611619565b151561303a576040805160e560020a62461bcd02815260206004820152601060248201527f496e76616c6964204f70657261746f7200000000000000000000000000000000604482015290519081900360640190fd5b6130478989898989613a8d565b151561309d576040805160e560020a62461bcd02815260206004820152601260248201527f636865636b5472616e73666572206661696c0000000000000000000000000000604482015290519081900360640190fd5b600160a060020a03871615156130fd576040805160e560020a62461bcd02815260206004820152601d60248201527f746f20616464726573732073686f756c64206e6f74206265207a65726f000000604482015290519081900360640190fd5b600160a060020a0388166000908152600d602090815260408083208c8452909152902054861115613178576040805160e560020a62461bcd02815260206004820152601660248201527f62616c616e636573206973206e6f7420656e6f75676800000000000000000000604482015290519081900360640190fd5b600160a060020a0388166000908152600d602090815260408083208c84529091529020546131ac908763ffffffff612f9e16565b600160a060020a03808a166000908152600d602081815260408084208f8552825280842095909555928b16825282528281208c825290915220546131f6908763ffffffff61382f16565b600160a060020a0388166000908152600d602090815260408083208d84529091529020556001935050505095945050505050565b600160a060020a0383166000908152600d602090815260408083208784529091528120548311156132a5576040805160e560020a62461bcd02815260206004820152600e60248201527f56616c756520746f6f2068696768000000000000000000000000000000000000604482015290519081900360640190fd5b6132b18585858561383e565b1515613307576040805160e560020a62461bcd02815260206004820152600e60248201527f636865636b4275726e206661696c000000000000000000000000000000000000604482015290519081900360640190fd5b600160a060020a0384166000908152600d6020908152604080832088845290915290205461333b908463ffffffff612f9e16565b600160a060020a0385166000908152600d60209081526040808320898452909152902055600354613372908463ffffffff612f9e16565b6003556000858152600a6020526040902054613394908463ffffffff612f9e16565b6000868152600a602090815260408083209390935582518681528082018481528651948201949094528551600160a060020a038916948a947fa27ed3a442ff5022a6524967c3a958547f60418ca52548a9e3c0591db6ef99cc948a948a949093926060850192860191908190849084905b8381101561341d578181015183820152602001613405565b50505050905090810190601f16801561344a5780820380516001836020036101000a031916815260200191505b50935050505060405180910390a3506001949350505050565b60006134728533868686613a8d565b15156134c8576040805160e560020a62461bcd02815260206004820152601060248201527f5472616e7366657220696e76616c696400000000000000000000000000000000604482015290519081900360640190fd5b600160a060020a03841615156134dd57600080fd5b336000908152600d6020908152604080832088845290915290205483111561350457600080fd5b336000908152600d6020908152604080832088845290915290205461352f908463ffffffff612f9e16565b336000908152600d602081815260408084208a8552825280842094909455600160a060020a038816835290815282822088835290522054613576908463ffffffff61382f16565b600160a060020a0385166000908152600d60209081526040808320898452909152902055506001949350505050565b600654600090600160a060020a031615156135f8576040805160e560020a62461bcd0281526020600482018190526024820152600080516020613e88833981519152604482015290519081900360640190fd5b6000858152601260205260409020548590600160a060020a03161515613656576040805160e560020a62461bcd02815260206004820152601d6024820152600080516020613e68833981519152604482015290519081900360640190fd5b6000858152601260205260409020548590600160a060020a031615156136b4576040805160e560020a62461bcd02815260206004820152601d6024820152600080516020613e68833981519152604482015290519081900360640190fd5b84600554818115156136c257fe5b0615613706576040805160e560020a62461bcd0281526020600482015260136024820152600080516020613e28833981519152604482015290519081900360640190fd5b6006546040517f7716841d000000000000000000000000000000000000000000000000000000008152600160a060020a038b811660048301908152602483018c9052604483018b9052606483018a905260a060848401908152895160a485015289519290941693637716841d938e938e938e938e938e9360c490910190602085019080838360005b838110156137a657818101518382015260200161378e565b50505050905090810190601f1680156137d35780820380516001836020036101000a031916815260200191505b509650505050505050602060405180830381600087803b1580156137f657600080fd5b505af115801561380a573d6000803e3d6000fd5b505050506040513d602081101561382057600080fd5b50519998505050505050505050565b60008282018381101561168357fe5b6006546000908190600160a060020a03161515613893576040805160e560020a62461bcd0281526020600482018190526024820152600080516020613e88833981519152604482015290519081900360640190fd5b6000868152601260205260409020548690600160a060020a031615156138f1576040805160e560020a62461bcd02815260206004820152601d6024820152600080516020613e68833981519152604482015290519081900360640190fd5b84600554818115156138ff57fe5b0615613943576040805160e560020a62461bcd0281526020600482015260136024820152600080516020613e28833981519152604482015290519081900360640190fd5b6006546040517f2f456e8a000000000000000000000000000000000000000000000000000000008152600481018a8152600160a060020a038a81166024840152604483018a90526080606484019081528951608485015289519190941693632f456e8a938d938d938d938d93909160a490910190602085019080838360005b838110156139da5781810151838201526020016139c2565b50505050905090810190601f168015613a075780820380516001836020036101000a031916815260200191505b5095505050505050602060405180830381600087803b158015613a2957600080fd5b505af1158015613a3d573d6000803e3d6000fd5b505050506040513d6020811015613a5357600080fd5b505192508215613a81576000888152601360205260408120613a81918989613a7a82612039565b6000613cef565b50909695505050505050565b6006546000908190600160a060020a03161515613ae2576040805160e560020a62461bcd0281526020600482018190526024820152600080516020613e88833981519152604482015290519081900360640190fd5b6000878152601260205260409020548790600160a060020a03161515613b40576040805160e560020a62461bcd02815260206004820152601d6024820152600080516020613e68833981519152604482015290519081900360640190fd5b8460055481811515613b4e57fe5b0615613b92576040805160e560020a62461bcd0281526020600482015260136024820152600080516020613e28833981519152604482015290519081900360640190fd5b6006546040517f0345abe9000000000000000000000000000000000000000000000000000000008152600481018b8152600160a060020a038b811660248401528a81166044840152606483018a905260a060848401908152895160a485015289519190941693630345abe9938e938e938e938e938e939260c490910190602085019080838360005b83811015613c32578181015183820152602001613c1a565b50505050905090810190601f168015613c5f5780820380516001836020036101000a031916815260200191505b509650505050505050602060405180830381600087803b158015613c8257600080fd5b505af1158015613c96573d6000803e3d6000fd5b505050506040513d6020811015613cac57600080fd5b505192508215613ce2576000898152601360205260409020613ce290898989613cd482612039565b613cdd8e612039565b613cef565b5090979650505050505050565b821580613d0d575083600160a060020a031685600160a060020a0316145b15613d1757612eeb565b81158015613d2d5750600160a060020a03841615155b15613d4e576002860154613d4890600163ffffffff61382f16565b60028701555b80831415613d72576002860154613d6c90600163ffffffff612f9e16565b60028701555b600160a060020a03841660009081526020879052604090205460ff16158015613da35750600160a060020a03841615155b15612eeb57600180870180548083018255600091825260208083209091018054600160a060020a03891673ffffffffffffffffffffffffffffffffffffffff199091168117909155825288905260409020805460ff19169091179055505050505050560052414320646f6573206e6f742072656769737465720000000000000000000000496e76616c6964206772616e756c617269747900000000000000000000000000f89a8d698099cd2cc7abc25a561083447afb0c24ce401d676f040f27da0832df496e76616c696420506f6c696379206f6620746865207472616e636865000000506f6c696379526567697374727920646f6573206e6f742052656769737465725065726d697373696f6e2064656e790000000000000000000000000000000000a165627a7a723058206f95056c460ec0334ecfb98284c5973916e516b4d77dfacc67c10af32f6f88c00029",
  "source": "pragma solidity ^0.4.24;\n\n\nimport \"./interfaces/IPolicyRegistry.sol\";\nimport \"./interfaces/ICheckRAC.sol\";\nimport \"./libraries/SafeMath.sol\";\nimport \"./modules/DataType.sol\";\n\n/**\n* @title Security Token contract\n* @notice  ERC20 and ERC1410 are supported:\n* @notice - Transfers are restricted; need to check policy\n*/\ncontract SecurityToken is DataType {\n    using SafeMath for uint256;\n\n    // Used to hold the number version data\n    uint8 public version = 1;\n\n    string public name;\n    string public symbol;\n    uint256 public totalSupply;\n    uint8 public decimals;\n    uint256 public granularity;\n    address public policyRegistry;\n    address public racRegistry;\n    address public issuer;\n    address owner;\n\n    mapping (bytes32 => uint256) trancheTotalSupply;\n\n    bytes32[] tranches;\n\n    // Mapping from investor to aggregated balance across all investor token sets\n    // mapping (address investor => uint256 amount) balances;\n    mapping (address => uint256) balances;\n\n    // Mapping from investor to tranche balance token\n    // mapping (address investor => mapping (bytes32 tranche => uint256 amount)) trancheBalances;\n    mapping (address => mapping (bytes32 => uint256)) trancheBalances;\n\n    // Mapping from (investor, tranche, operator) to approved status\n    mapping (address => mapping (bytes32 => mapping (address => bool))) trancheApprovals;\n\n    // Mapping from investor to their tranches\n    mapping (address => bytes32[]) investorTranches;\n\n    // Mapping from investor to default tranches\n    mapping (address => bytes32) investorDefaultTranche;\n\n    // default tranche\n    bytes32 public defaultTranche;\n\n    mapping (bytes32 => address) policies;\n\n\n    struct InvestorData {\n        // List of investors who's balance is greater than 0\n        mapping (address => bool) investorListed;\n        // List of token holders\n        address[] investors;\n        // Total number of non-zero token holders\n        uint256 investorCount;\n    }\n\n    mapping (bytes32 => InvestorData) internal investorData;\n\n\n    event Approval(address indexed _owner, address indexed _spender, uint256 _value);\n    event Transfer(address indexed _from, address indexed _to, uint256 _value);\n\n    /// @notice This emits on any successful call to `mint`\n    event Minted(bytes32 indexed _tranche, address indexed _owner, uint256 _amount, bytes _data);\n\n    /// @notice This emits on any successful call to `burn`\n    event Burnt(bytes32 indexed _tranche, address indexed _owner, uint256 _amount, bytes _data);\n\n    /// @notice This emits on any successful transfer or minting of mocks\n    event SentTranche(\n        bytes32 tranche,\n        address indexed operator,\n        address indexed from,\n        address indexed to,\n        uint256 amount,\n        bytes data\n    );\n\n    /// @notice This emits on any successful operator approval for all tranches, excluding default operators\n    event AuthorizedOperator(address indexed _operator, address indexed _owner);\n\n    /// @notice This emits on any successful operator approval for a single tranche, excluding default tranche operators\n    event AuthorizedOperatorTranche(bytes32 indexed _tranche, address indexed _operator, address indexed _owner);\n\n    /// @notice This emits on any successful revoke of an operators approval for all tranches\n    event RevokedOperator(address indexed _operator, address indexed _owner);\n\n    /// @notice This emits on any successful revoke of an operators approval for a single tranche\n    event RevokedOperatorTranche(bytes32 indexed _tranche, address indexed _operator, address indexed _owner);\n\n    // Emit when the issuer get changed\n    event ChangeIssuer(address indexed _old, address indexed _new);\n    // Emit when the granularity get changed\n    event ChangeGranularity(uint256 _old, uint256 _new);\n\n    // Emit when the defaultTranche get changed\n    event ChangeInvestorDefaultTranche(address _owner, bytes32 _old, bytes32 _new);\n    // Emit when PolicyRegistry get change from the securityToken\n    event ChangePolicyRegistry(address _old, address _new);\n    // Emit when Module get removed from the securityToken\n    event RegistryPolicy(bytes32 _tranche, address _policy);\n\n    event ForceTransfer(bytes32 _tranche, address indexed _operator, address indexed _from, address indexed _to, uint256 _value, bool _verifyTransfer, bytes _data);\n    event ForceBurn(bytes32 _tranche, address indexed _operator, address indexed _from, uint256 _value, bool _verifyTransfer, bytes _data);\n    event ChangeTranche(address _owner, bytes32 _from, bytes32 _to, uint256 _value, bytes _data);\n\n\n    modifier checkGranularity(uint256 _value) {\n        require(_value % granularity == 0, \"Invalid granularity\");\n        _;\n    }\n\n    modifier checkOperatorForTranche(bytes32 _tranche, address _operator, address _owner) {\n        require(isOperatorForTranche(_tranche, _operator, _owner), \"Invalid Operator\");\n        _;\n    }\n\n\n    modifier checkPolicyRegistry() {\n        require(policyRegistry != address(0), \"PolicyRegistry does not Register\");\n        _;\n    }\n\n    modifier checkPolicy(bytes32 _tranche) {\n        require(policies[_tranche] != address(0), \"Invalid Policy of the tranche\");\n        _;\n    }\n\n    /**\n     * @notice Constructor\n     * @param _issuer address of issuer\n     * @param _name Name of the SecurityToken\n     * @param _symbol Symbol of the Token\n     * @param _decimals Decimals for the securityToken\n     * @param _granularity granular level of the token\n     * @param _racRegistry Contract address of the rac registry\n     */\n    constructor (\n        address _issuer,\n        string _name,\n        string _symbol,\n        uint8 _decimals,\n        uint256 _granularity,\n        address _racRegistry\n    )\n    public\n    {\n        owner = msg.sender;\n\n        issuer = _issuer;\n        name = _name;\n        symbol = _symbol;\n        decimals = _decimals;\n        granularity = _granularity;\n        racRegistry = _racRegistry;\n        defaultTranche = stringToBytes32('');\n    }\n\n    /**\n    * @dev modifier to scope access to a single role (uses msg.sender as addr)\n    * @param _action the name of the role\n    * // reverts\n    */\n    modifier onlyRole(string _action)\n    {\n        require(racRegistry != address(0), \"RAC does not register\");\n        require(ICheckRAC(racRegistry).check(msg.sender, stringToBytes32(_action)), \"Permission deny\");\n        _;\n    }\n\n    /**\n    * @dev modifier to scope access to a single role (uses msg.sender as addr)\n    * @param _action the name of the role\n    */\n    modifier onlyIssuerOrRole(string _action)\n    {\n        require(racRegistry != address(0), \"RAC does not register\");\n        if(issuer == msg.sender) {\n            _;\n        } else if (ICheckRAC(racRegistry).check(msg.sender, stringToBytes32(_action))) {\n            _;\n        } else {\n            revert(\"Permission deny\");\n        }\n    }\n\n    /**\n    * @notice change a policy registry attached to the SecurityToken\n    * @param _issuer address of issuer\n    */\n    function changeIssuer(address _issuer) external onlyIssuerOrRole(\"changeIssuer\") {\n        issuer = _issuer;\n        emit ChangeIssuer(issuer, _issuer);\n    }\n\n    /**\n    * @notice change a policy registry attached to the SecurityToken\n    * @param _policy address of policy registry\n    */\n    function changePolicyRegistry(address _policy) external onlyRole(\"registryPolicy\") {\n        policyRegistry = _policy;\n        emit ChangePolicyRegistry(policyRegistry, _policy);\n    }\n\n    /**\n    * @notice get a policy attached to the SecurityToken\n    * @param _tranche address of policy\n    */\n    function getPolicy(bytes32 _tranche) external view  returns (address) {\n        return policies[_tranche];\n    }\n\n    /**\n    * @notice Removes a policy attached to the SecurityToken\n    * @param _policy address of policy\n    */\n    function registryPolicy(bytes32 _tranche, address _policy) external checkPolicyRegistry onlyRole(\"registryPolicy\") {\n        require(IPolicyRegistry(policyRegistry).register(_tranche, _policy));\n        policies[_tranche] = _policy;\n        emit RegistryPolicy(_tranche, _policy);\n    }\n\n    /**\n    * @notice Allows owner to change token granularity\n    * @param _granularity granularity level of the token\n    */\n    function changeGranularity(uint256 _granularity) external onlyIssuerOrRole(\"changeGranularity\") {\n        require(_granularity != 0, \"Invalid granularity\");\n        emit ChangeGranularity(granularity, _granularity);\n        granularity = _granularity;\n    }\n\n    /**\n    * @notice Allows owner to change default tranche for erc20\n    */\n    function changeInvestorDefaultTranche(address _owner, bytes32 _tranche) external {\n        emit ChangeInvestorDefaultTranche(_owner, investorDefaultTranche[_owner], _tranche);\n        investorDefaultTranche[_owner] = _tranche;\n    }\n\n    /**\n     * @notice Returns the decimals\n     * @return decimals\n     */\n    function getDecimals() external view returns (uint256) {\n        return decimals;\n    }\n\n    /**\n     * @notice Counts the trancheTotalSupply associated with a specific tranche\n     * @param _tranche The tranche for which to query the TotalSupply\n     * @return The number of tranche, possibly zero\n     */\n    function getTrancheTotalSupply(bytes32 _tranche) external view returns (uint256) {\n        return trancheTotalSupply[_tranche];\n    }\n\n    /**\n     * @notice Counts the sum of all tranche balances assigned to an owner\n     * @param _owner An address for whom to query the balance\n     * @return The number of mocks owned by `_owner`, possibly zero\n     */\n    function balanceOf(address _owner) public view returns (uint256) {\n        return trancheBalances[_owner][investorDefaultTranche[_owner]];\n    }\n\n    /**\n     * @notice Counts the sum of all tranche balances assigned to an owner\n     * @param _owner An address for whom to query the balance\n     * @return The number of mocks owned by `_owner`, possibly zero\n     */\n    function balanceOfAll(address _owner) external view returns (uint256) {\n        return balances[_owner];\n    }\n\n    /**\n     * @notice Counts the balance associated with a specific tranche assigned to an owner\n     * @param _tranche The tranche for which to query the balance\n     * @param _owner An address for whom to query the balance\n     * @return The number of mocks owned by `_owner` with the metadata associated with `_tranche`, possibly zero\n     */\n    function balanceOfTranche(bytes32 _tranche, address _owner) external view returns (uint256) {\n        return trancheBalances[_owner][_tranche];\n    }\n\n    function getInvestorDefaultTranche(address _owner) public view returns (bytes32) {\n        return investorDefaultTranche[_owner];\n    }\n\n    /**\n     * @notice generates subset of investors\n     * NB - can be used in batches if investor list is large\n     * @param _start Position of investor to start iteration from\n     * @param _end Position of investor to stop iteration at\n     * @return list of investors\n     */\n    function iterateInvestors(bytes32 _tranche, uint256 _start, uint256 _end) external view returns(address[]) {\n        require(_end <= investorData[_tranche].investors.length, \"Invalid end\");\n        address[] memory investors = new address[](_end.sub(_start));\n        uint256 index = 0;\n        for (uint256 i = _start; i < _end; i++) {\n            investors[index] = investorData[_tranche].investors[i];\n            index++;\n        }\n        return investors;\n    }\n\n    /**\n     * @notice Returns the investor count\n     * @return Investor count\n     */\n    function getInvestorCount(bytes32 _tranche) external view returns(uint256) {\n        return investorData[_tranche].investorCount;\n    }\n\n    /**\n     * @notice Overloaded version of the transfer function\n     * @param _to receiver of transfer\n     * @param _value value of transfer\n     * @return bool success\n     */\n    function transfer(address _to, uint256 _value) public returns (bool success) {\n        require(_sendTranche(investorDefaultTranche[msg.sender], _to, _value, \"\"));\n        emit Transfer(msg.sender, _to, _value);\n        return true;\n    }\n\n\n    function sendTranche(bytes32 _tranche, address _to, uint256 _value, bytes _data) public returns (bool success) {\n        require(_sendTranche(_tranche, _to, _value, _data));\n        emit SentTranche(_tranche, address(0), msg.sender, _to,  _value, _data);\n        return true;\n    }\n\n    /**\n     * @notice Overloaded version of the transfer function\n     * @param _to receiver of transfer\n     * @param _values value of transfer\n     * @return bool success\n     */\n    function batchSendTranche(bytes32 _tranche, address[] _to, uint256[] _values, bytes _data) public returns (bool success) {\n        require(_to.length == _to.length, \"Incorrect inputs\");\n        for (uint256 i = 0; i < _to.length; i++) {\n            sendTranche(_tranche, _to[i], _values[i], _data);\n        }\n        return true;\n    }\n\n    /**\n     * @notice Transfers the ownership of mocks from a specified tranche from one address to another address\n     * @param _tranche The tranche from which to transfer mocks\n     * @param _to The address to which to transfer mocks to\n     * @param _value The amount of mocks to transfer from `_tranche`\n     * @param _data Additional data attached to the transfer of mocks\n     * @return bool success\n     */\n    function _sendTranche(bytes32 _tranche, address _to, uint256 _value, bytes _data) internal returns (bool success) {\n        require(_checkTransfer(_tranche, msg.sender, _to, _value, _data), \"Transfer invalid\");\n        require(_to != address(0));\n        require(_value <= trancheBalances[msg.sender][_tranche]);\n\n        trancheBalances[msg.sender][_tranche] = trancheBalances[msg.sender][_tranche].sub(_value);\n        trancheBalances[_to][_tranche] = trancheBalances[_to][_tranche].add(_value);\n        return true;\n    }\n\n    /**\n     * @notice Overloaded version of the transferFrom function\n     * @param _from sender of transfer\n     * @param _to receiver of transfer\n     * @param _value value of transfer\n     * @return bool success\n     */\n    function transferFrom(address _from, address _to, uint256 _value) public returns(bool) {\n        require(_operatorSendTranche(investorDefaultTranche[_from], _from, _to, _value, \"\"));\n        emit Transfer(_from, _to, _value);\n        return true;\n    }\n\n    function operatorSendTranche(bytes32 _tranche, address _from, address _to, uint256 _value, bytes _data) external returns (bool success) {\n        require(_operatorSendTranche(_tranche, _from, _to, _value, _data));\n        emit SentTranche(_tranche,msg.sender, _from, _to,  _value, _data);\n        return true;\n    }\n\n    /**\n     * @notice Overloaded version of the transferFrom function\n     * @param _tranche The tranche from which to transfer mocks\n     * @param _from sender of transfer\n     * @param _to receiver of transfer\n     * @param _value value of transfer\n     * @param _data data to indicate validation\n     * @return bool success\n     */\n    function _operatorSendTranche(bytes32 _tranche, address _from, address _to, uint256 _value, bytes _data) internal checkOperatorForTranche(_tranche,msg.sender,_from) returns(bool success) {\n        require(_checkTransfer(_tranche, _from, _to, _value, _data), \"checkTransfer fail\");\n        require(_to != address(0), \"to address should not be zero\");\n        require(_value <= trancheBalances[_from][_tranche], \"balances is not enough\");\n\n        trancheBalances[_from][_tranche] = trancheBalances[_from][_tranche].sub(_value);\n        trancheBalances[_to][_tranche] = trancheBalances[_to][_tranche].add(_value);\n        return true;\n    }\n\n    /**\n     * @notice mints new mocks and assigns them to the target _investor.\n     * @dev Can only be called by the issuer or STO attached to the token\n     * @param _investor Address where the minted mocks will be delivered\n     * @param _value Number of mocks be minted\n     * @return bool success\n     */\n    function mint(address _investor, uint256 _value) public returns (bool success) {\n        return mintTranche(investorDefaultTranche[_investor], _investor, _value, '');\n    }\n\n    /**\n     * @notice Mints new tokens and assigns them to the target _investor.\n     * @dev Can only be called by the issuer or STO attached to the token.\n     * @param _investors A list of addresses to whom the minted tokens will be dilivered\n     * @param _values A list of number of tokens get minted and transfer to corresponding address of the investor from _investor[] list\n     * @return success\n     */\n    function batchMint(address[] _investors, uint256[] _values) public returns (bool success) {\n        require(_investors.length == _values.length, \"Incorrect inputs\");\n        for (uint256 i = 0; i < _investors.length; i++) {\n            mint(_investors[i], _values[i]);\n        }\n        return true;\n    }\n\n    /**\n     * @notice mints new mocks and assigns them to the target _investor.\n     * @dev Can only be called by the issuer or STO attached to the token\n     * @param _tranche The tranche to allocate the increase in balance\n     * @param _investor Address where the minted mocks will be delivered\n     * @param _value Number of mocks be minted\n     * @param _data data to indicate validation\n     * @return bool success\n     */\n    function mintTranche(bytes32 _tranche, address _investor, uint256 _value, bytes _data) public onlyIssuerOrRole(\"mint\") returns (bool success) {\n        require(_investor != address(0), \"Investor is 0\");\n        require(_checkMint(_tranche, _investor, _value, _data), \"checkMint fail\");\n        totalSupply = totalSupply.add(_value);\n        trancheTotalSupply[_tranche] = trancheTotalSupply[_tranche].add(_value);\n        trancheBalances[_investor][_tranche] = trancheBalances[_investor][_tranche].add(_value);\n        emit Minted(_tranche, _investor, _value, _data);\n        emit SentTranche(_tranche, msg.sender, address(0), _investor,  _value, _data);\n        return true;\n    }\n\n    /**\n     * @notice Mints new tokens and assigns them to the target _investor.\n     * @dev Can only be called by the issuer or STO attached to the token.\n     * @param _investors A list of addresses to whom the minted tokens will be dilivered\n     * @param _values A list of number of tokens get minted and transfer to corresponding address of the investor from _investor[] list\n     * @return success\n     */\n    function batchMintTranche(bytes32 _tranche, address[] _investors, uint256[] _values, bytes _data) public returns (bool success) {\n        require(_investors.length == _values.length, \"Incorrect inputs\");\n        for (uint256 i = 0; i < _investors.length; i++) {\n            mintTranche(_tranche, _investors[i], _values[i], _data);\n        }\n        return true;\n    }\n\n    /**\n    * @notice Burn function used to burn the securityToken\n    * @param _tranche The tranche to allocate the decrease in balance\n    * @param _value No. of mocks that get burned\n    * @param _data data to indicate validation\n    */\n    function burn(bytes32 _tranche, uint256 _value, bytes _data) public onlyRole(\"burn\") returns(bool success) {\n        require(_burnTranche(_tranche, msg.sender, _value, _data), \"Burn invalid\");\n        return true;\n    }\n\n    function _burnTranche(bytes32 _tranche, address _investor, uint256 _value, bytes _data) internal returns(bool success) {\n        require(_value <= trancheBalances[_investor][_tranche], \"Value too high\");\n        require(_checkBurn(_tranche, _investor, _value, _data), \"checkBurn fail\");\n        trancheBalances[_investor][_tranche] = trancheBalances[_investor][_tranche].sub(_value);\n        totalSupply = totalSupply.sub(_value);\n        trancheTotalSupply[_tranche] = trancheTotalSupply[_tranche].sub(_value);\n        emit Burnt(_tranche, _investor, _value, _data);\n        return true;\n    }\n\n\n    /**\n     * @notice Burn function used to burn the securityToken on behalf of someone else\n     * @param _tranche The tranche to allocate the decrease in balance\n     * @param _investor Address for whom to burn mocks\n     * @param _value No. of mocks that get burned\n     * @param _data data to indicate validation\n     */\n    function burnFrom(bytes32 _tranche, address _investor, uint256 _value, bytes _data) public checkOperatorForTranche(_tranche,msg.sender,_investor)  returns(bool success) {\n        require(_burnTranche(_tranche, _investor, _value, _data), \"Burn invalid\");\n        return true;\n    }\n\n    /**\n     * @notice Used by a controller to execute a forced transfer\n     * @param _tranche The tranche to allocate the increase in balance\n     * @param _from address from which to take mocks\n     * @param _to address where to send mocks\n     * @param _value amount of mocks to transfer\n     * @param _data data to indicate validation\n     */\n    function forceTransfer(bytes32 _tranche, address _from, address _to, uint256 _value, bytes _data) public onlyIssuerOrRole(\"forceTransfer\") {\n        require(_to != address(0));\n        require(_value <= trancheBalances[_from][_tranche]);\n        require(_checkTransfer(_tranche, _from, _to, _value, _data));\n        trancheBalances[_from][_tranche] = trancheBalances[_from][_tranche].sub(_value);\n        trancheBalances[_to][_tranche] = trancheBalances[_to][_tranche].add(_value);\n        emit ForceTransfer(_tranche, msg.sender, _from, _to, _value, true, _data);\n        emit SentTranche(_tranche, address(0), msg.sender, _to,  _value, _data);\n    }\n\n    /**\n     * @notice Used by a controller to execute a forced burn\n     * @param _tranche The tranche to allocate the increase in balance\n     * @param _from address from which to take mocks\n     * @param _value amount of mocks to transfer\n     * @param _data data to indicate validation\n     */\n    function forceBurn(bytes32 _tranche, address _from, uint256 _value, bytes _data) public onlyIssuerOrRole(\"forceTransfer\") {\n        require(_burnTranche(_tranche, _from, _value, _data));\n        emit ForceBurn(_tranche, msg.sender, _from, _value, true, _data);\n    }\n\n    /**\n     * @notice change user's balance from one tranche to another tranche\n     * @param _from tranche from which to take mocks\n     * @param _to tranche where to send mocks\n     * @param _value amount of mocks to transfer\n     * @param _data data to indicate validation\n     */\n    function changeTranche(bytes32 _from, bytes32 _to, uint256 _value, bytes _data) public {\n        require(_value >0);\n        require(_value <= trancheBalances[msg.sender][_from]);\n        require(_checkChangeTranche(msg.sender, _from, _to, _value, _data));\n        trancheBalances[msg.sender][_from] = trancheBalances[msg.sender][_from].sub(_value);\n        trancheBalances[msg.sender][_to] = trancheBalances[msg.sender][_to].add(_value);\n        emit ChangeTranche(msg.sender, _from, _to, _value, _data);\n    }\n\n    // @notice Allows enumeration over an individual owners tranches\n    // @param _owner An address over which to enumerate tranches\n    // @param _index The index of the tranche\n    // @return The tranche key corresponding to `_index`\n//    function trancheByIndex(address _owner, uint256 _index) external view returns (bytes32) {\n//        return tranches[_owner][_index].tranche;\n//    }\n\n    // @notice Enables caller to determine the count of tranches owned by an address\n    // @param _owner An address over which to enumerate tranches\n    // @return The number of tranches owned by an `_owner`\n    function tranchesOf(address _owner) external view returns (bytes32[]) {\n        return investorTranches[_owner];\n    }\n\n    // @notice Defines a list of operators which can operate over all addresses and tranches\n    // @return The list of default operators\n//    function defaultOperators() public view returns (address[]) {\n//        // No default operators\n//        return new address[](0);\n//    }\n\n    // @notice Defines a list of operators which can operate over all addresses for the specified tranche\n    // @return The list of default operators for `_tranche`\n//    function defaultOperatorsTranche(bytes32 _tranche) public view returns (address[]) {\n//        // No default operators\n//        return new address[](0);\n//    }\n\n\n    // @notice Authorises an operator for all tranches of `msg.sender`\n    // @param _operator An address which is being authorised\n    function authorizeOperator(address _operator) public {\n        return authorizeOperatorTranche(investorDefaultTranche[msg.sender], _operator);\n    }\n\n    // @notice Authorises an operator for a given tranche of `msg.sender`\n    // @param _tranche The tranche to which the operator is authorised\n    // @param _operator An address which is being authorised\n    function authorizeOperatorTranche(bytes32 _tranche, address _operator) public {\n        trancheApprovals[msg.sender][_tranche][_operator] = true;\n        emit AuthorizedOperatorTranche(_tranche, _operator, msg.sender);\n    }\n\n    // @notice Revokes authorisation of an operator previously given for all tranches of `msg.sender`\n    // @param _operator An address which is being de-authorised\n    function revokeOperator(address _operator) public {\n        return revokeOperatorTranche(investorDefaultTranche[msg.sender], _operator);\n    }\n\n    // @notice Revokes authorisation of an operator previously given for a specified tranche of `msg.sender`\n    // @param _tranche The tranche to which the operator is de-authorised\n    // @param _operator An address which is being de-authorised\n    function revokeOperatorTranche(bytes32 _tranche, address _operator) public {\n        trancheApprovals[msg.sender][_tranche][_operator] = false;\n        emit RevokedOperatorTranche(_tranche, _operator, msg.sender);\n    }\n\n    // @notice Determines whether `_operator` is an operator for all tranches of `_owner`\n    // @param _operator The operator to check\n    // @param _owner The owner to check\n    // @return Whether the `_operator` is an operator for all tranches of `_owner`\n    function isOperatorFor(address _operator, address _owner) public view returns (bool) {\n        return isOperatorForTranche(investorDefaultTranche[msg.sender], _operator, _owner);\n    }\n\n    // @notice Determines whether `_operator` is an operator for a specified tranche of `_owner`\n    // @param _tranche The tranche to check\n    // @param _operator The operator to check\n    // @param _owner The owner to check\n    // @return Whether the `_operator` is an operator for a specified tranche of `_owner`\n    function isOperatorForTranche(bytes32 _tranche, address _operator, address _owner) public view returns (bool) {\n        return trancheApprovals[_owner][_tranche][_operator];\n    }\n    /**\n     * @dev Approve the passed address to spend the specified amount of mocks on behalf of msg.sender.\n     * Beware that changing an allowance with this method brings the risk that someone may use both the old\n     * and the new allowance by unfortunate transaction ordering. One possible solution to mitigate this\n     * race condition is to first reduce the spender's allowance to 0 and set the desired value afterwards:\n     * https://github.com/ethereum/EIPs/issues/20#issuecomment-263524729\n     * @param _spender The address which will spend the funds.\n     * @param _value The amount of mocks to be spent.\n     */\n    function approve(address _spender, uint256 _value) public returns (bool) {\n        require(_spender != address(0));\n\n        if(_value>0) {\n            trancheApprovals[msg.sender][investorDefaultTranche[msg.sender]][_spender] = true;\n        } else {\n            trancheApprovals[msg.sender][investorDefaultTranche[msg.sender]][_spender] = false;\n        }\n        emit Approval(msg.sender, _spender, _value);\n        return true;\n    }\n\n    /**\n     * @dev Function to check the amount of mocks that an owner allowed to a spender.\n     * @param _owner address The address which owns the funds.\n     * @param _spender address The address which will spend the funds.\n     * @return A uint256 specifying the amount of mocks still available for the spender.\n     */\n    function allowance(address _owner, address _spender) public view returns (uint256) {\n        if(trancheApprovals[_owner][investorDefaultTranche[_owner]][_spender]) {\n            return trancheTotalSupply[investorDefaultTranche[_owner]];\n        }\n        return 0;\n    }\n\n    /**\n     * @notice Updates internal variables when performing a transfer\n     * @param _from sender of transfer\n     * @param _to receiver of transfer\n     * @param _value value of transfer\n     * @param _data data to indicate validation\n     * @return bool success\n     */\n    function _checkTransfer(bytes32 _tranche, address _from, address _to, uint256 _value, bytes _data) internal checkPolicyRegistry checkPolicy(_tranche) checkGranularity(_value) returns(bool success) {\n        bool rc = IPolicyRegistry(policyRegistry).checkTransfer(_tranche, _from, _to, _value, _data);\n        if(rc) {\n            _adjustInvestorData(investorData[_tranche], _from, _to, _value, balanceOf(_to), balanceOf(_from));\n        }\n\n        return rc;\n    }\n\n    /**\n     * @notice Updates internal variables when performing a transfer\n     * @param _tranche The tranche to allocate the increase in balance\n     * @param _to receiver of transfer\n     * @param _value value of transfer\n     * @param _data data to indicate validation\n     * @return bool success\n     */\n    function _checkMint(bytes32 _tranche, address _to, uint256 _value, bytes _data) internal checkPolicyRegistry checkPolicy(_tranche) checkGranularity(_value) returns(bool success) {\n        bool rc = IPolicyRegistry(policyRegistry).checkMint(_tranche, _to, _value, _data);\n        if(rc) {\n            _adjustInvestorData(investorData[_tranche], address(0), _to, _value, balanceOf(_to), 0);\n        }\n\n        return rc;\n    }\n\n    /**\n     * @notice Updates internal variables when performing a transfer\n     * @param _tranche The tranche to allocate the increase in balance\n     * @param _to receiver of transfer\n     * @param _value value of transfer\n     * @param _data data to indicate validation\n     * @return bool success\n     */\n    function _checkBurn(bytes32 _tranche, address _to, uint256 _value, bytes _data) internal checkPolicyRegistry checkPolicy(_tranche) checkGranularity(_value) returns(bool success) {\n        bool rc = IPolicyRegistry(policyRegistry).checkMint(_tranche, _to, _value, _data);\n        if(rc) {\n            _adjustInvestorData(investorData[_tranche], address(0), _to, _value, balanceOf(_to), 0);\n        }\n\n        return rc;\n    }\n\n    /**\n     * @notice check change tranche\n     * @return bool success\n     */\n    function _checkChangeTranche(address _owner, bytes32 _from, bytes32 _to, uint256 _value, bytes _data) internal checkPolicyRegistry checkPolicy(_from) checkPolicy(_to) checkGranularity(_value) returns(bool success) {\n        return IPolicyRegistry(policyRegistry).checkChangeTranche(_owner, _from, _to, _value, _data);\n    }\n\n    /**\n    * @notice Keeps track of the number of non-zero token holders\n    * @param _investorData Date releated to investor metrics\n    * @param _from Sender of transfer\n    * @param _to Receiver of transfer\n    * @param _value Value of transfer\n    * @param _balanceTo Balance of the _to address\n    * @param _balanceFrom Balance of the _from address\n    */\n    function _adjustInvestorData(\n        InvestorData storage _investorData,\n        address _from,\n        address _to,\n        uint256 _value,\n        uint256 _balanceTo,\n        uint256 _balanceFrom\n    ) internal  {\n        if ((_value == 0) || (_from == _to)) {\n            return;\n        }\n        // Check whether receiver is a new token holder\n        if ((_balanceTo == 0) && (_to != address(0))) {\n            _investorData.investorCount = (_investorData.investorCount).add(1);\n        }\n        // Check whether sender is moving all of their tokens\n        if (_value == _balanceFrom) {\n            _investorData.investorCount = (_investorData.investorCount).sub(1);\n        }\n        //Also adjust investor list\n        if (!_investorData.investorListed[_to] && (_to != address(0))) {\n            _investorData.investors.push(_to);\n            _investorData.investorListed[_to] = true;\n        }\n\n    }\n\n\n\n}\n",
  "sourcePath": "/Users/tercel/Workspace/oneroot-sto/contracts/SecurityToken.sol",
  "compiler": {
    "name": "solc",
    "version": "0.4.24+commit.e67f0147.Emscripten.clang"
  },
  "schemaVersion": "2.0.1",
  "updatedAt": "2019-01-08T11:20:26.444Z"
}