{
  "contractName": "STGFactory",
  "abi": [
    {
      "constant": true,
      "inputs": [],
      "name": "racRegistry",
      "outputs": [
        {
          "name": "",
          "type": "address"
        }
      ],
      "payable": false,
      "stateMutability": "view",
      "type": "function"
    },
    {
      "constant": true,
      "inputs": [],
      "name": "policyRegistry",
      "outputs": [
        {
          "name": "",
          "type": "address"
        }
      ],
      "payable": false,
      "stateMutability": "view",
      "type": "function"
    },
    {
      "inputs": [
        {
          "name": "_policyRegistry",
          "type": "address"
        },
        {
          "name": "_racRegistry",
          "type": "address"
        }
      ],
      "payable": false,
      "stateMutability": "nonpayable",
      "type": "constructor"
    },
    {
      "anonymous": false,
      "inputs": [
        {
          "indexed": true,
          "name": "_securityToken",
          "type": "address"
        },
        {
          "indexed": false,
          "name": "_symbol",
          "type": "string"
        },
        {
          "indexed": true,
          "name": "_policy",
          "type": "address"
        }
      ],
      "name": "CreateSTG",
      "type": "event"
    },
    {
      "constant": false,
      "inputs": [
        {
          "name": "_issuer",
          "type": "address"
        },
        {
          "name": "_name",
          "type": "string"
        },
        {
          "name": "_symbol",
          "type": "string"
        },
        {
          "name": "_decimals",
          "type": "uint8"
        },
        {
          "name": "_granularity",
          "type": "uint256"
        }
      ],
      "name": "create",
      "outputs": [
        {
          "name": "",
          "type": "address"
        }
      ],
      "payable": false,
      "stateMutability": "nonpayable",
      "type": "function"
    }
  ],
  "bytecode": "0x608060405234801561001057600080fd5b50604051604080615e0083398101604052805160209091015160008054600160a060020a03938416600160a060020a03199182161790915560018054939092169216919091179055615d99806100676000396000f30060806040526004361061003d5763ffffffff60e060020a6000350416630139057c8114610042578063106c5511146100735780631c4dd7d0146100b5575b600080fd5b34801561004e57600080fd5b506100576100ca565b60408051600160a060020a039092168252519081900360200190f35b34801561007f57600080fd5b5061005760048035600160a060020a0316906024803580820192908101359160443590810191013560643560ff166084356100d9565b3480156100c157600080fd5b506100576104f0565b600154600160a060020a031681565b60408051808201909152600881527f637265617465535400000000000000000000000000000000000000000000000060208201526001546000918291829190600160a060020a0316151561018e57604080517f08c379a000000000000000000000000000000000000000000000000000000000815260206004820152601560248201527f52414320646f6573206e6f742052656769737465720000000000000000000000604482015290519081900360640190fd5b600154600160a060020a031663253bd7b7336101a9846104ff565b6040805160e060020a63ffffffff8616028152600160a060020a03909316600484015260248301919091525160448083019260209291908290030181600087803b1580156101f657600080fd5b505af115801561020a573d6000803e3d6000fd5b505050506040513d602081101561022057600080fd5b5051151561028f57604080517f08c379a000000000000000000000000000000000000000000000000000000000815260206004820152600f60248201527f5065726d697373696f6e2064656e790000000000000000000000000000000000604482015290519081900360640190fd5b8a8a8a8a8a8a8a600160009054906101000a9004600160a060020a03166102b4610523565b600160a060020a03808a16825260ff8516606083015260808201849052821660a082015260c0602082018181529082018890526040820160e083018a8a808284379091018481038352888152602001905088888082843782019150509a5050505050505050505050604051809103906000f080158015610338573d6000803e3d6000fd5b50925082610344610533565b600160a060020a03909116815260405190819003602001906000f080158015610371573d6000803e3d6000fd5b5060008054604080517fa1ed5cc1000000000000000000000000000000000000000000000000000000008152600160a060020a03928316600482015290519395509086169263a1ed5cc19260248084019391929182900301818387803b1580156103da57600080fd5b505af11580156103ee573d6000803e3d6000fd5b5050505082600160a060020a031663db7716c361041a60206040519081016040528060008152506104ff565b6040805160e060020a63ffffffff85160281526004810192909252600160a060020a038616602483015251604480830192600092919082900301818387803b15801561046557600080fd5b505af1158015610479573d6000803e3d6000fd5b5050505081600160a060020a031683600160a060020a03167fcc88d7c76e0f1ba3e732a49d210e7af6841d7de88b85e9363304fea5a254ec238a8a6040518080602001828103825284848281815260200192508082843760405192018290039550909350505050a350909998505050505050505050565b600054600160a060020a031681565b805160009082901515610515576000915061051d565b602083015191505b50919050565b6040516140e48061054483390190565b6040516117468061462883390190560060806040526000805460ff191660011790553480156200001e57600080fd5b50604051620040e4380380620040e48339810160409081528151602080840151928401516060850151608086015160a08701516009805433600160a060020a03199182161790915560088054909116600160a060020a03881617905595870180519597909693019491939092916200009d91600191908801906200013c565b508351620000b39060029060208701906200013c565b506004805460ff191660ff8516179055600582905560078054600160a060020a031916600160a060020a038316179055604080516020810190915260008152620001069064010000000062000116810204565b60115550620001e1945050505050565b8051600090829015156200012e576000915062000136565b602083015191505b50919050565b828054600181600116156101000203166002900490600052602060002090601f016020900481019282601f106200017f57805160ff1916838001178555620001af565b82800160010185558215620001af579182015b82811115620001af57825182559160200191906001019062000192565b50620001bd929150620001c1565b5090565b620001de91905b80821115620001bd5760008155600101620001c8565b90565b613ef380620001f16000396000f3006080604052600436106102215763ffffffff60e060020a6000350416630139057c811461022657806301788d561461025757806306fdde031461028d578063095ea7b3146103175780630b3a6a991461034f57806313d867011461042057806318160ddd1461048e5780631b953909146104a35780631c4dd7d0146104c95780631d143848146104de578063210a8d0e146104f357806323b872dd1461050b5780632a8cae51146105355780632a91ec3914610572578063313ce56714610587578063330dfd1f146105b25780633781e5761461061257806340c10f191461063c57806353e1467e1461066057806354990b15146106cf57806354fd4d501461073e578063556f0dc7146107535780635e343e431461076857806368573107146107cb5780636bcf50041461085957806370a08231146108c8578063719181bd146108e95780637e8931591461090a5780639152fa141461092b578063959b8c3f1461094357806395d89b41146109645780639bd80eed146109795780639d68521a14610991578063a1554d35146109b5578063a1ed5cc114610a24578063a3f685f914610a45578063a9059cbb14610a5d578063bd18dee114610a81578063bfbd442a14610b52578063d95b637114610b76578063db7716c314610b9d578063dd62ed3e14610bc1578063e1e2e63414610be8578063e3da9f8f14610c61578063f0141d8414610c82578063fad8b32a14610c97578063fe992c9814610cb8575b600080fd5b34801561023257600080fd5b5061023b610cd9565b60408051600160a060020a039092168252519081900360200190f35b34801561026357600080fd5b5061027b600435600160a060020a0360243516610ce8565b60408051918252519081900360200190f35b34801561029957600080fd5b506102a2610d13565b6040805160208082528351818301528351919283929083019185019080838360005b838110156102dc5781810151838201526020016102c4565b50505050905090810190601f1680156103095780820380516001836020036101000a031916815260200191505b509250505060405180910390f35b34801561032357600080fd5b5061033b600160a060020a0360043516602435610da0565b604080519115158252519081900360200190f35b34801561035b57600080fd5b5060408051602060046024803582810135848102808701860190975280865261033b96843596369660449591949091019291829185019084908082843750506040805187358901803560208181028481018201909552818452989b9a99890198929750908201955093508392508501908490808284375050604080516020601f89358b018035918201839004830284018301909452808352979a999881019791965091820194509250829150840183828082843750949750610e869650505050505050565b34801561042c57600080fd5b5061043e600435602435604435610ee4565b60408051602080825283518183015283519192839290830191858101910280838360005b8381101561047a578181015183820152602001610462565b505050509050019250505060405180910390f35b34801561049a57600080fd5b5061027b611011565b3480156104af57600080fd5b506104c7600435600160a060020a0360243516611017565b005b3480156104d557600080fd5b5061023b61107b565b3480156104ea57600080fd5b5061023b61108a565b3480156104ff57600080fd5b506104c7600435611099565b34801561051757600080fd5b5061033b600160a060020a03600435811690602435166044356112dc565b34801561054157600080fd5b5061033b6004803590600160a060020a03602480358216926044359092169160643591608435908101910135611372565b34801561057e57600080fd5b5061027b61143d565b34801561059357600080fd5b5061059c611443565b6040805160ff9092168252519081900360200190f35b3480156105be57600080fd5b50604080516020600460443581810135601f810184900484028501840190955284845261033b94823594602480359536959460649492019190819084018382808284375094975061144c9650505050505050565b34801561061e57600080fd5b5061033b600435600160a060020a0360243581169060443516611619565b34801561064857600080fd5b5061033b600160a060020a036004351660243561164f565b34801561066c57600080fd5b50604080516020601f6064356004818101359283018490048402850184019095528184526104c794803594600160a060020a03602480359190911695604435953695608494930191819084018382808284375094975061168a9650505050505050565b3480156106db57600080fd5b50604080516020601f60643560048181013592830184900484028501840190955281845261033b94803594600160a060020a0360248035919091169560443595369560849493019181908401838280828437509497506118ae9650505050505050565b34801561074a57600080fd5b5061059c611990565b34801561075f57600080fd5b5061027b611999565b34801561077457600080fd5b50604080516020601f6064356004818101359283018490048402850184019095528184526104c7948035946024803595604435953695608494930191819084018382808284375094975061199f9650505050505050565b3480156107d757600080fd5b506040805160206004803580820135838102808601850190965280855261033b95369593946024949385019291829185019084908082843750506040805187358901803560208181028481018201909552818452989b9a998901989297509082019550935083925085019084908082843750949750611b269650505050505050565b34801561086557600080fd5b50604080516020601f60643560048181013592830184900484028501840190955281845261033b94803594600160a060020a036024803591909116956044359536956084949301918190840183828082843750949750611bdc9650505050505050565b3480156108d457600080fd5b5061027b600160a060020a0360043516612039565b3480156108f557600080fd5b5061027b600160a060020a0360043516612066565b34801561091657600080fd5b506104c7600160a060020a0360043516612081565b34801561093757600080fd5b5061027b60043561226f565b34801561094f57600080fd5b506104c7600160a060020a0360043516612281565b34801561097057600080fd5b506102a261229e565b34801561098557600080fd5b5061027b6004356122f6565b34801561099d57600080fd5b506104c7600435600160a060020a036024351661230b565b3480156109c157600080fd5b50604080516020601f60643560048181013592830184900484028501840190955281845261033b94803594600160a060020a03602480359190911695604435953695608494930191819084018382808284375094975061236c9650505050505050565b348015610a3057600080fd5b506104c7600160a060020a0360043516612442565b348015610a5157600080fd5b5061023b60043561260d565b348015610a6957600080fd5b5061033b600160a060020a0360043516602435612628565b348015610a8d57600080fd5b5060408051602060046024803582810135848102808701860190975280865261033b96843596369660449591949091019291829185019084908082843750506040805187358901803560208181028481018201909552818452989b9a99890198929750908201955093508392508501908490808284375050604080516020601f89358b018035918201839004830284018301909452808352979a9998810197919650918201945092508291508401838280828437509497506126a79650505050505050565b348015610b5e57600080fd5b506104c7600160a060020a0360043516602435612755565b348015610b8257600080fd5b5061033b600160a060020a03600435811690602435166127c8565b348015610ba957600080fd5b506104c7600435600160a060020a03602435166127e3565b348015610bcd57600080fd5b5061027b600160a060020a0360043581169060243516612aab565b348015610bf457600080fd5b50604080516020600460843581810135601f81018490048402850184019095528484526104c79482359460248035600160a060020a039081169660443590911695606435953695919460a4949093910191908190840183828082843750949750612b1f9650505050505050565b348015610c6d57600080fd5b5061043e600160a060020a0360043516612ef3565b348015610c8e57600080fd5b5061027b612f60565b348015610ca357600080fd5b506104c7600160a060020a0360043516612f69565b348015610cc457600080fd5b5061027b600160a060020a0360043516612f83565b600754600160a060020a031681565b600160a060020a0381166000908152600d602090815260408083208584529091529020545b92915050565b60018054604080516020600284861615610100026000190190941693909304601f81018490048402820184019092528181529291830182828015610d985780601f10610d6d57610100808354040283529160200191610d98565b820191906000526020600020905b815481529060010190602001808311610d7b57829003601f168201915b505050505081565b6000600160a060020a0383161515610db757600080fd5b6000821115610e0257336000908152600e60209081526040808320601083528184205484528252808320600160a060020a03871684529091529020805460ff19166001179055610e3d565b336000908152600e60209081526040808320601083528184205484528252808320600160a060020a03871684529091529020805460ff191690555b604080518381529051600160a060020a0385169133917f8c5be1e5ebec7d5bd14f71427d1e84f3dd0314c0f7b2291e5b200ac8c7c3b9259181900360200190a350600192915050565b6000805b8451811015610ed657610ecd868683815181101515610ea557fe5b906020019060200201518684815181101515610ebd57fe5b90602001906020020151866118ae565b50600101610e8a565b600191505b50949350505050565b60008381526013602052604081206001015460609182918190851115610f54576040805160e560020a62461bcd02815260206004820152600b60248201527f496e76616c696420656e64000000000000000000000000000000000000000000604482015290519081900360640190fd5b610f64858763ffffffff612f9e16565b604051908082528060200260200182016040528015610f8d578160200160208202803883390190505b509250600091508590505b84811015611006576000878152601360205260409020600101805482908110610fbd57fe5b6000918252602090912001548351600160a060020a0390911690849084908110610fe357fe5b600160a060020a0390921660209283029091019091015260019182019101610f98565b509095945050505050565b60035481565b336000818152600e602090815260408083208684528252808320600160a060020a0386168085529252808320805460ff1916600117905551909185917f85c214eb8cf789828d89c4f6a3b38d8aaba82abe793d4f911ca7a1e5cda403339190a45050565b600654600160a060020a031681565b600854600160a060020a031681565b60408051808201909152601181527f6368616e67654772616e756c61726974790000000000000000000000000000006020820152600754600160a060020a0316151561111d576040805160e560020a62461bcd0281526020600482015260156024820152600080516020613e08833981519152604482015290519081900360640190fd5b600854600160a060020a03163314156111bc57811515611175576040805160e560020a62461bcd0281526020600482015260136024820152600080516020613e28833981519152604482015290519081900360640190fd5b600554604080519182526020820184905280517f869e3a0fda6d95b52cf731650d000a783a37c9c798737bba1ce3e0ae0ea99cba9281900390910190a160058290556112d8565b600754600160a060020a031663253bd7b7336111d784612fb0565b6040805160e060020a63ffffffff8616028152600160a060020a03909316600484015260248301919091525160448083019260209291908290030181600087803b15801561122457600080fd5b505af1158015611238573d6000803e3d6000fd5b505050506040513d602081101561124e57600080fd5b50511561129a57811515611175576040805160e560020a62461bcd0281526020600482015260136024820152600080516020613e28833981519152604482015290519081900360640190fd5b6040805160e560020a62461bcd02815260206004820152600f6024820152600080516020613ea8833981519152604482015290519081900360640190fd5b5050565b600160a060020a038316600090815260106020908152604080832054815192830190915282825261131291869086908690612fd4565b151561131d57600080fd5b82600160a060020a031684600160a060020a03167fddf252ad1be2c89b69c2b068fc378daa952ba7f163c4a11628f55a4df523b3ef846040518082815260200191505060405180910390a35060019392505050565b60006113b18787878787878080601f01602080910402602001604051908101604052809392919081815260200183838082843750612fd4945050505050565b15156113bc57600080fd5b84600160a060020a031686600160a060020a031633600160a060020a0316600080516020613e488339815191528a888888604051808560001916600019168152602001848152602001806020018281038252848482818152602001925080828437604051920182900397509095505050505050a45060019695505050505050565b60115481565b60045460ff1681565b60408051808201909152600481527f6275726e00000000000000000000000000000000000000000000000000000000602082015260075460009190600160a060020a031615156114d4576040805160e560020a62461bcd0281526020600482015260156024820152600080516020613e08833981519152604482015290519081900360640190fd5b600754600160a060020a031663253bd7b7336114ef84612fb0565b6040805160e060020a63ffffffff8616028152600160a060020a03909316600484015260248301919091525160448083019260209291908290030181600087803b15801561153c57600080fd5b505af1158015611550573d6000803e3d6000fd5b505050506040513d602081101561156657600080fd5b505115156115ac576040805160e560020a62461bcd02815260206004820152600f6024820152600080516020613ea8833981519152604482015290519081900360640190fd5b6115b88533868661322a565b151561160e576040805160e560020a62461bcd02815260206004820152600c60248201527f4275726e20696e76616c69640000000000000000000000000000000000000000604482015290519081900360640190fd5b506001949350505050565b600160a060020a039081166000908152600e60209081526040808320958352948152848220939092168152919052205460ff1690565b600160a060020a03821660009081526010602090815260408083205481519283019091528282526116839185908590611bdc565b9392505050565b60408051808201909152600d81527f666f7263655472616e73666572000000000000000000000000000000000000006020820152600754600160a060020a0316151561170e576040805160e560020a62461bcd0281526020600482015260156024820152600080516020613e08833981519152604482015290519081900360640190fd5b600854600160a060020a03163314156118025761172d8585858561322a565b151561173857600080fd5b60408051868152602080820186905260019282018390526080606083018181528651918401919091528551600160a060020a0389169433947f5347cf2ebefe07b0c1e994def87539634cfcaba78f4a344bf1018ef62e61da88948c948b948b939260a08401919085019080838360005b838110156117c05781810151838201526020016117a8565b50505050905090810190601f1680156117ed5780820380516001836020036101000a031916815260200191505b509550505050505060405180910390a36118a7565b600754600160a060020a031663253bd7b73361181d84612fb0565b6040805160e060020a63ffffffff8616028152600160a060020a03909316600484015260248301919091525160448083019260209291908290030181600087803b15801561186a57600080fd5b505af115801561187e573d6000803e3d6000fd5b505050506040513d602081101561189457600080fd5b50511561129a5761172d8585858561322a565b5050505050565b60006118bc85858585613463565b15156118c757600080fd5b83600160a060020a031633600160a060020a03166000600160a060020a0316600080516020613e4883398151915288878760405180846000191660001916815260200183815260200180602001828103825283818151815260200191508051906020019080838360005b83811015611949578181015183820152602001611931565b50505050905090810190601f1680156119765780820380516001836020036101000a031916815260200191505b5094505050505060405180910390a4506001949350505050565b60005460ff1681565b60055481565b600082116119ac57600080fd5b336000908152600d602090815260408083208784529091529020548211156119d357600080fd5b6119e033858585856135a5565b15156119eb57600080fd5b336000908152600d60209081526040808320878452909152902054611a16908363ffffffff612f9e16565b336000908152600d60209081526040808320888452909152808220929092558481522054611a44908361382f565b336000818152600d6020908152604080832088845282528083209490945583518381528082018990529384018790526060840186905260a06080850181815286519186019190915285517f8ca566a30ea19f07ab98d3c336b45b3a981ccb5d7e2f30570299c6d363fbcbd2958a948a948a948a94909260c0850192860191908190849084905b83811015611ae2578181015183820152602001611aca565b50505050905090810190601f168015611b0f5780820380516001836020036101000a031916815260200191505b50965050505050505060405180910390a150505050565b60008082518451141515611b84576040805160e560020a62461bcd02815260206004820152601060248201527f496e636f727265637420696e7075747300000000000000000000000000000000604482015290519081900360640190fd5b5060005b8351811015611bd257611bc98482815181101515611ba257fe5b906020019060200201518483815181101515611bba57fe5b9060200190602002015161164f565b50600101611b88565b5060019392505050565b60408051808201909152600481527f6d696e7400000000000000000000000000000000000000000000000000000000602082015260075460009190600160a060020a03161515611c64576040805160e560020a62461bcd0281526020600482015260156024820152600080516020613e08833981519152604482015290519081900360640190fd5b600854600160a060020a0316331415611f4057600160a060020a0385161515611cd7576040805160e560020a62461bcd02815260206004820152600d60248201527f496e766573746f72206973203000000000000000000000000000000000000000604482015290519081900360640190fd5b611ce38686868661383e565b1515611d39576040805160e560020a62461bcd02815260206004820152600e60248201527f636865636b4d696e74206661696c000000000000000000000000000000000000604482015290519081900360640190fd5b600354611d4c908563ffffffff61382f16565b6003556000868152600a6020526040902054611d6e908563ffffffff61382f16565b6000878152600a6020908152604080832093909355600160a060020a0388168252600d815282822089835290522054611dad908563ffffffff61382f16565b600160a060020a0386166000818152600d602090815260408083208b84528252808320949094558351888152808201858152885195820195909552875193948b947f32a79e9033cdca8f42e7929c4db83677b87e1894ad6bf03293a9677fa684425b948b948b9493926060850192918601918190849084905b83811015611e3e578181015183820152602001611e26565b50505050905090810190601f168015611e6b5780820380516001836020036101000a031916815260200191505b50935050505060405180910390a384600160a060020a03166000600160a060020a031633600160a060020a0316600080516020613e4883398151915289888860405180846000191660001916815260200183815260200180602001828103825283818151815260200191508051906020019080838360005b83811015611efb578181015183820152602001611ee3565b50505050905090810190601f168015611f285780820380516001836020036101000a031916815260200191505b5094505050505060405180910390a460019150610edb565b600754600160a060020a031663253bd7b733611f5b84612fb0565b6040805160e060020a63ffffffff8616028152600160a060020a03909316600484015260248301919091525160448083019260209291908290030181600087803b158015611fa857600080fd5b505af1158015611fbc573d6000803e3d6000fd5b505050506040513d6020811015611fd257600080fd5b50511561129a57600160a060020a0385161515611cd7576040805160e560020a62461bcd02815260206004820152600d60248201527f496e766573746f72206973203000000000000000000000000000000000000000604482015290519081900360640190fd5b600160a060020a03166000908152600d602090815260408083206010835281842054845290915290205490565b600160a060020a031660009081526010602052604090205490565b60408051808201909152600c81527f6368616e676549737375657200000000000000000000000000000000000000006020820152600754600160a060020a03161515612105576040805160e560020a62461bcd0281526020600482015260156024820152600080516020613e08833981519152604482015290519081900360640190fd5b600854600160a060020a0316331415612177576008805473ffffffffffffffffffffffffffffffffffffffff1916600160a060020a0384811691821792839055604051919216907ff18be32d78988153f69d349f80001a89d9175432388626758c5a19110f5de92a90600090a36112d8565b600754600160a060020a031663253bd7b73361219284612fb0565b6040805160e060020a63ffffffff8616028152600160a060020a03909316600484015260248301919091525160448083019260209291908290030181600087803b1580156121df57600080fd5b505af11580156121f3573d6000803e3d6000fd5b505050506040513d602081101561220957600080fd5b50511561129a576008805473ffffffffffffffffffffffffffffffffffffffff1916600160a060020a0384811691821792839055604051919216907ff18be32d78988153f69d349f80001a89d9175432388626758c5a19110f5de92a90600090a36112d8565b6000908152600a602052604090205490565b3360009081526010602052604090205461229b9082611017565b50565b6002805460408051602060018416156101000260001901909316849004601f81018490048402820184019092528181529291830182828015610d985780601f10610d6d57610100808354040283529160200191610d98565b60009081526013602052604090206002015490565b336000818152600e602090815260408083208684528252808320600160a060020a0386168085529252808320805460ff1916905551909185917fa25d99fe6847fff774277d985adf86ed0406102536418309b4eb286c23be11319190a45050565b600084338561237c838383611619565b15156123d2576040805160e560020a62461bcd02815260206004820152601060248201527f496e76616c6964204f70657261746f7200000000000000000000000000000000604482015290519081900360640190fd5b6123de8888888861322a565b1515612434576040805160e560020a62461bcd02815260206004820152600c60248201527f4275726e20696e76616c69640000000000000000000000000000000000000000604482015290519081900360640190fd5b506001979650505050505050565b60408051808201909152600e81527f7265676973747279506f6c6963790000000000000000000000000000000000006020820152600754600160a060020a031615156124c6576040805160e560020a62461bcd0281526020600482015260156024820152600080516020613e08833981519152604482015290519081900360640190fd5b600754600160a060020a031663253bd7b7336124e184612fb0565b6040805160e060020a63ffffffff8616028152600160a060020a03909316600484015260248301919091525160448083019260209291908290030181600087803b15801561252e57600080fd5b505af1158015612542573d6000803e3d6000fd5b505050506040513d602081101561255857600080fd5b5051151561259e576040805160e560020a62461bcd02815260206004820152600f6024820152600080516020613ea8833981519152604482015290519081900360640190fd5b6006805473ffffffffffffffffffffffffffffffffffffffff1916600160a060020a038481169182179283905560408051939091168352602083019190915280517fe33d296a3c19a0cac91f505a8cc66e56e01db0b707f92fdf2cf1ee937f5ad2939281900390910190a15050565b600090815260126020526040902054600160a060020a031690565b3360009081526010602090815260408083205481519283019091528282526126539185908590613463565b151561265e57600080fd5b604080518381529051600160a060020a0385169133917fddf252ad1be2c89b69c2b068fc378daa952ba7f163c4a11628f55a4df523b3ef9181900360200190a350600192915050565b60008083518551141515612705576040805160e560020a62461bcd02815260206004820152601060248201527f496e636f727265637420696e7075747300000000000000000000000000000000604482015290519081900360640190fd5b5060005b8451811015610ed65761274c86868381518110151561272457fe5b90602001906020020151868481518110151561273c57fe5b9060200190602002015186611bdc565b50600101612709565b600160a060020a03821660008181526010602090815260409182902054825193845290830152818101839052517fbfb34b87e9798eecd6fa2aa01723a959fb6453d3b386709f2296a34b1fa98b309181900360600190a1600160a060020a03909116600090815260106020526040902055565b33600090815260106020526040812054611683908484611619565b600654600160a060020a03161515612833576040805160e560020a62461bcd0281526020600482018190526024820152600080516020613e88833981519152604482015290519081900360640190fd5b60408051808201909152600e81527f7265676973747279506f6c6963790000000000000000000000000000000000006020820152600754600160a060020a031615156128b7576040805160e560020a62461bcd0281526020600482015260156024820152600080516020613e08833981519152604482015290519081900360640190fd5b600754600160a060020a031663253bd7b7336128d284612fb0565b6040805160e060020a63ffffffff8616028152600160a060020a03909316600484015260248301919091525160448083019260209291908290030181600087803b15801561291f57600080fd5b505af1158015612933573d6000803e3d6000fd5b505050506040513d602081101561294957600080fd5b5051151561298f576040805160e560020a62461bcd02815260206004820152600f6024820152600080516020613ea8833981519152604482015290519081900360640190fd5b600654604080517fd22057a900000000000000000000000000000000000000000000000000000000815260048101869052600160a060020a0385811660248301529151919092169163d22057a99160448083019260209291908290030181600087803b1580156129fe57600080fd5b505af1158015612a12573d6000803e3d6000fd5b505050506040513d6020811015612a2857600080fd5b50511515612a3557600080fd5b600083815260126020908152604091829020805473ffffffffffffffffffffffffffffffffffffffff1916600160a060020a03861690811790915582518681529182015281517fe96ccc903c4ef80318825deae36e4a9da57aae208f2ea1cadda10c3416ed6c71929181900390910190a1505050565b600160a060020a038083166000908152600e6020908152604080832060108352818420548452825280832093851683529290529081205460ff1615612b165750600160a060020a0382166000908152601060209081526040808320548352600a909152902054610d0d565b50600092915050565b60408051808201909152600d81527f666f7263655472616e73666572000000000000000000000000000000000000006020820152600754600160a060020a03161515612ba3576040805160e560020a62461bcd0281526020600482015260156024820152600080516020613e08833981519152604482015290519081900360640190fd5b600854600160a060020a0316331415612e3d57600160a060020a0384161515612bcb57600080fd5b600160a060020a0385166000908152600d60209081526040808320898452909152902054831115612bfb57600080fd5b612c088686868686613a8d565b1515612c1357600080fd5b600160a060020a0385166000908152600d60209081526040808320898452909152902054612c47908463ffffffff612f9e16565b600160a060020a038087166000908152600d602081815260408084208c8552825280842095909555928816825282528281208982529091522054612c91908463ffffffff61382f16565b600160a060020a038086166000818152600d602090815260408083208c845282528083209590955584518b8152808201899052600195810186905260806060820181815289519183019190915288519496958c169533957f74e757a0d95b7d5e861f2f150c74c1a6330e1bc35993201905931abd671e9cb0958f958d9593948d9493909260a0850192860191908190849084905b83811015612d3d578181015183820152602001612d25565b50505050905090810190601f168015612d6a5780820380516001836020036101000a031916815260200191505b509550505050505060405180910390a483600160a060020a031633600160a060020a03166000600160a060020a0316600080516020613e4883398151915289878760405180846000191660001916815260200183815260200180602001828103825283818151815260200191508051906020019080838360005b83811015612dfc578181015183820152602001612de4565b50505050905090810190601f168015612e295780820380516001836020036101000a031916815260200191505b5094505050505060405180910390a4612eeb565b600754600160a060020a031663253bd7b733612e5884612fb0565b6040805160e060020a63ffffffff8616028152600160a060020a03909316600484015260248301919091525160448083019260209291908290030181600087803b158015612ea557600080fd5b505af1158015612eb9573d6000803e3d6000fd5b505050506040513d6020811015612ecf57600080fd5b50511561129a57600160a060020a0384161515612bcb57600080fd5b505050505050565b600160a060020a0381166000908152600f6020908152604091829020805483518184028101840190945280845260609392830182828015612f5457602002820191906000526020600020905b81548152600190910190602001808311612f3f575b50505050509050919050565b60045460ff1690565b3360009081526010602052604090205461229b908261230b565b600160a060020a03166000908152600c602052604090205490565b600082821115612faa57fe5b50900390565b805160009082901515612fc65760009150612fce565b602083015191505b50919050565b6000853386612fe4838383611619565b151561303a576040805160e560020a62461bcd02815260206004820152601060248201527f496e76616c6964204f70657261746f7200000000000000000000000000000000604482015290519081900360640190fd5b6130478989898989613a8d565b151561309d576040805160e560020a62461bcd02815260206004820152601260248201527f636865636b5472616e73666572206661696c0000000000000000000000000000604482015290519081900360640190fd5b600160a060020a03871615156130fd576040805160e560020a62461bcd02815260206004820152601d60248201527f746f20616464726573732073686f756c64206e6f74206265207a65726f000000604482015290519081900360640190fd5b600160a060020a0388166000908152600d602090815260408083208c8452909152902054861115613178576040805160e560020a62461bcd02815260206004820152601660248201527f62616c616e636573206973206e6f7420656e6f75676800000000000000000000604482015290519081900360640190fd5b600160a060020a0388166000908152600d602090815260408083208c84529091529020546131ac908763ffffffff612f9e16565b600160a060020a03808a166000908152600d602081815260408084208f8552825280842095909555928b16825282528281208c825290915220546131f6908763ffffffff61382f16565b600160a060020a0388166000908152600d602090815260408083208d84529091529020556001935050505095945050505050565b600160a060020a0383166000908152600d602090815260408083208784529091528120548311156132a5576040805160e560020a62461bcd02815260206004820152600e60248201527f56616c756520746f6f2068696768000000000000000000000000000000000000604482015290519081900360640190fd5b6132b18585858561383e565b1515613307576040805160e560020a62461bcd02815260206004820152600e60248201527f636865636b4275726e206661696c000000000000000000000000000000000000604482015290519081900360640190fd5b600160a060020a0384166000908152600d6020908152604080832088845290915290205461333b908463ffffffff612f9e16565b600160a060020a0385166000908152600d60209081526040808320898452909152902055600354613372908463ffffffff612f9e16565b6003556000858152600a6020526040902054613394908463ffffffff612f9e16565b6000868152600a602090815260408083209390935582518681528082018481528651948201949094528551600160a060020a038916948a947fa27ed3a442ff5022a6524967c3a958547f60418ca52548a9e3c0591db6ef99cc948a948a949093926060850192860191908190849084905b8381101561341d578181015183820152602001613405565b50505050905090810190601f16801561344a5780820380516001836020036101000a031916815260200191505b50935050505060405180910390a3506001949350505050565b60006134728533868686613a8d565b15156134c8576040805160e560020a62461bcd02815260206004820152601060248201527f5472616e7366657220696e76616c696400000000000000000000000000000000604482015290519081900360640190fd5b600160a060020a03841615156134dd57600080fd5b336000908152600d6020908152604080832088845290915290205483111561350457600080fd5b336000908152600d6020908152604080832088845290915290205461352f908463ffffffff612f9e16565b336000908152600d602081815260408084208a8552825280842094909455600160a060020a038816835290815282822088835290522054613576908463ffffffff61382f16565b600160a060020a0385166000908152600d60209081526040808320898452909152902055506001949350505050565b600654600090600160a060020a031615156135f8576040805160e560020a62461bcd0281526020600482018190526024820152600080516020613e88833981519152604482015290519081900360640190fd5b6000858152601260205260409020548590600160a060020a03161515613656576040805160e560020a62461bcd02815260206004820152601d6024820152600080516020613e68833981519152604482015290519081900360640190fd5b6000858152601260205260409020548590600160a060020a031615156136b4576040805160e560020a62461bcd02815260206004820152601d6024820152600080516020613e68833981519152604482015290519081900360640190fd5b84600554818115156136c257fe5b0615613706576040805160e560020a62461bcd0281526020600482015260136024820152600080516020613e28833981519152604482015290519081900360640190fd5b6006546040517f7716841d000000000000000000000000000000000000000000000000000000008152600160a060020a038b811660048301908152602483018c9052604483018b9052606483018a905260a060848401908152895160a485015289519290941693637716841d938e938e938e938e938e9360c490910190602085019080838360005b838110156137a657818101518382015260200161378e565b50505050905090810190601f1680156137d35780820380516001836020036101000a031916815260200191505b509650505050505050602060405180830381600087803b1580156137f657600080fd5b505af115801561380a573d6000803e3d6000fd5b505050506040513d602081101561382057600080fd5b50519998505050505050505050565b60008282018381101561168357fe5b6006546000908190600160a060020a03161515613893576040805160e560020a62461bcd0281526020600482018190526024820152600080516020613e88833981519152604482015290519081900360640190fd5b6000868152601260205260409020548690600160a060020a031615156138f1576040805160e560020a62461bcd02815260206004820152601d6024820152600080516020613e68833981519152604482015290519081900360640190fd5b84600554818115156138ff57fe5b0615613943576040805160e560020a62461bcd0281526020600482015260136024820152600080516020613e28833981519152604482015290519081900360640190fd5b6006546040517f2f456e8a000000000000000000000000000000000000000000000000000000008152600481018a8152600160a060020a038a81166024840152604483018a90526080606484019081528951608485015289519190941693632f456e8a938d938d938d938d93909160a490910190602085019080838360005b838110156139da5781810151838201526020016139c2565b50505050905090810190601f168015613a075780820380516001836020036101000a031916815260200191505b5095505050505050602060405180830381600087803b158015613a2957600080fd5b505af1158015613a3d573d6000803e3d6000fd5b505050506040513d6020811015613a5357600080fd5b505192508215613a81576000888152601360205260408120613a81918989613a7a82612039565b6000613cef565b50909695505050505050565b6006546000908190600160a060020a03161515613ae2576040805160e560020a62461bcd0281526020600482018190526024820152600080516020613e88833981519152604482015290519081900360640190fd5b6000878152601260205260409020548790600160a060020a03161515613b40576040805160e560020a62461bcd02815260206004820152601d6024820152600080516020613e68833981519152604482015290519081900360640190fd5b8460055481811515613b4e57fe5b0615613b92576040805160e560020a62461bcd0281526020600482015260136024820152600080516020613e28833981519152604482015290519081900360640190fd5b6006546040517f0345abe9000000000000000000000000000000000000000000000000000000008152600481018b8152600160a060020a038b811660248401528a81166044840152606483018a905260a060848401908152895160a485015289519190941693630345abe9938e938e938e938e938e939260c490910190602085019080838360005b83811015613c32578181015183820152602001613c1a565b50505050905090810190601f168015613c5f5780820380516001836020036101000a031916815260200191505b509650505050505050602060405180830381600087803b158015613c8257600080fd5b505af1158015613c96573d6000803e3d6000fd5b505050506040513d6020811015613cac57600080fd5b505192508215613ce2576000898152601360205260409020613ce290898989613cd482612039565b613cdd8e612039565b613cef565b5090979650505050505050565b821580613d0d575083600160a060020a031685600160a060020a0316145b15613d1757612eeb565b81158015613d2d5750600160a060020a03841615155b15613d4e576002860154613d4890600163ffffffff61382f16565b60028701555b80831415613d72576002860154613d6c90600163ffffffff612f9e16565b60028701555b600160a060020a03841660009081526020879052604090205460ff16158015613da35750600160a060020a03841615155b15612eeb57600180870180548083018255600091825260208083209091018054600160a060020a03891673ffffffffffffffffffffffffffffffffffffffff199091168117909155825288905260409020805460ff19169091179055505050505050560052414320646f6573206e6f742072656769737465720000000000000000000000496e76616c6964206772616e756c617269747900000000000000000000000000f89a8d698099cd2cc7abc25a561083447afb0c24ce401d676f040f27da0832df496e76616c696420506f6c696379206f6620746865207472616e636865000000506f6c696379526567697374727920646f6573206e6f742052656769737465725065726d697373696f6e2064656e790000000000000000000000000000000000a165627a7a723058206f95056c460ec0334ecfb98284c5973916e516b4d77dfacc67c10af32f6f88c000296000805460ff1916600190811790915560c0604052601360808190527f5365637572697479546f6b656e506f6c6963790000000000000000000000000060a09081526200004d929162000137565b503480156200005b57600080fd5b5060405160208062001746833981016040818152915160028054600160a060020a031916600160a060020a0380841691909117918290557f0139057c000000000000000000000000000000000000000000000000000000008452935191931691630139057c9160048083019260209291908290030181600087803b158015620000e357600080fd5b505af1158015620000f8573d6000803e3d6000fd5b505050506040513d60208110156200010f57600080fd5b505160038054600160a060020a031916600160a060020a0390921691909117905550620001dc565b828054600181600116156101000203166002900490600052602060002090601f016020900481019282601f106200017a57805160ff1916838001178555620001aa565b82800160010185558215620001aa579182015b82811115620001aa5782518255916020019190600101906200018d565b50620001b8929150620001bc565b5090565b620001d991905b80821115620001b85760008155600101620001c3565b90565b61155a80620001ec6000396000f3006080604052600436106100c15763ffffffff60e060020a6000350416630139057c81146100c65780630345abe9146100f757806303977b541461018457806306fdde03146101ae578063118ec75114610238578063261540a4146102845780632f456e8a146103f857806348703cfe1461046757806354fd4d50146104855780637716841d146104b05780637a6fade714610524578063a5198d901461057b578063b84dfbd214610593578063c2e0cb47146105a8578063ff79acd1146105da575b600080fd5b3480156100d257600080fd5b506100db610649565b60408051600160a060020a039092168252519081900360200190f35b34801561010357600080fd5b50604080516020600460843581810135601f81018490048402850184019095528484526101709482359460248035600160a060020a039081169660443590911695606435953695919460a49490939101919081908401838280828437509497506106589650505050505050565b604080519115158252519081900360200190f35b34801561019057600080fd5b5061019c6004356106c7565b60408051918252519081900360200190f35b3480156101ba57600080fd5b506101c36106d9565b6040805160208082528351818301528351919283929083019185019080838360005b838110156101fd5781810151838201526020016101e5565b50505050905090810190601f16801561022a5780820380516001836020036101000a031916815260200191505b509250505060405180910390f35b34801561024457600080fd5b5061025c600160a060020a0360043516602435610766565b6040805194855260208501939093528383019190915215156060830152519081900360800190f35b34801561029057600080fd5b50604080516020600480358082013583810280860185019096528085526103f695369593946024949385019291829185019084908082843750506040805187358901803560208181028481018201909552818452989b9a998901989297509082019550935083925085019084908082843750506040805187358901803560208181028481018201909552818452989b9a998901989297509082019550935083925085019084908082843750506040805187358901803560208181028481018201909552818452989b9a998901989297509082019550935083925085019084908082843750506040805187358901803560208181028481018201909552818452989b9a998901989297509082019550935083925085019084908082843750506040805187358901803560208181028481018201909552818452989b9a99890198929750908201955093508392508501908490808284375094975061079b9650505050505050565b005b34801561040457600080fd5b50604080516020601f60643560048181013592830184900484028501840190955281845261017094803594600160a060020a036024803591909116956044359536956084949301918190840183828082843750949750610b4f9650505050505050565b34801561047357600080fd5b506103f6600435602435604435610bd8565b34801561049157600080fd5b5061049a610ddf565b6040805160ff9092168252519081900360200190f35b3480156104bc57600080fd5b50604080516020601f60843560048181013592830184900484028501840190955281845261017094600160a060020a03813516946024803595604435956064359536959460a4949093910191908190840183828082843750949750610de89650505050505050565b34801561053057600080fd5b50610548600160a060020a0360043516602435610df3565b604080519687526020870195909552858501939093529015156060850152608084015260a0830152519081900360c00190f35b34801561058757600080fd5b5061019c600435610e4c565b34801561059f57600080fd5b506100db610e5e565b3480156105b457600080fd5b506103f6600160a060020a0360043516602435604435606435608435151560a435610e6d565b3480156105e657600080fd5b50604080516020601f60643560048181013592830184900484028501840190955281845261017094803594600160a060020a0360248035919091169560443595369560849493019181908401838280828437509497506111309650505050505050565b600354600160a060020a031681565b600061066586868661113a565b15156106bb576040805160e560020a62461bcd02815260206004820152601360248201527f636865636b5768696c654c697374206661696c00000000000000000000000000604482015290519081900360640190fd5b50600195945050505050565b60056020526000908152604090205481565b60018054604080516020600284861615610100026000190190941693909304601f8101849004840282018401909252818152929183018282801561075e5780601f106107335761010080835404028352916020019161075e565b820191906000526020600020905b81548152906001019060200180831161074157829003601f168201915b505050505081565b600460209081526000928352604080842090915290825290208054600182015460028301546003909301549192909160ff1684565b60408051808201909152600f81527f6d6f6469667957686974656c6973740000000000000000000000000000000000602082015260035460009190600160a060020a03161515610835576040805160e560020a62461bcd02815260206004820152601560248201527f52414320646f6573206e6f742052656769737465720000000000000000000000604482015290519081900360640190fd5b600354600160a060020a031663253bd7b733610850846114aa565b6040805160e060020a63ffffffff8616028152600160a060020a03909316600484015260248301919091525160448083019260209291908290030181600087803b15801561089d57600080fd5b505af11580156108b1573d6000803e3d6000fd5b505050506040513d60208110156108c757600080fd5b5051151561091f576040805160e560020a62461bcd02815260206004820152600f60248201527f5065726d697373696f6e2064656e790000000000000000000000000000000000604482015290519081900360640190fd5b8251885114610966576040805160e560020a62461bcd02815260206004820152601860248201526000805160206114ef833981519152604482015290519081900360640190fd5b86518851146109ad576040805160e560020a62461bcd02815260206004820152601860248201526000805160206114ef833981519152604482015290519081900360640190fd5b85518751146109f4576040805160e560020a62461bcd02815260206004820152601860248201526000805160206114ef833981519152604482015290519081900360640190fd5b8451865114610a3b576040805160e560020a62461bcd02815260206004820152601860248201526000805160206114ef833981519152604482015290519081900360640190fd5b8551845114610a94576040805160e560020a62461bcd02815260206004820152601760248201527f4d69736d61746368656420696e707574206c656e677468000000000000000000604482015290519081900360640190fd5b600091505b8751821015610b4557610b3a8883815181101515610ab357fe5b906020019060200201518884815181101515610acb57fe5b906020019060200201518885815181101515610ae357fe5b906020019060200201518886815181101515610afb57fe5b906020019060200201518887815181101515610b1357fe5b906020019060200201518888815181101515610b2b57fe5b90602001906020020151610e6d565b600190910190610a99565b5050505050505050565b600160a060020a0383166000908152600460209081526040808320878452909152812060020154421115610bcd576040805160e560020a62461bcd02815260206004820152600f60248201527f6163636f756e7420657870697265640000000000000000000000000000000000604482015290519081900360640190fd5b506001949350505050565b60408051808201909152600c81527f636f6e666967506f6c69637900000000000000000000000000000000000000006020820152600354600160a060020a03161515610c6e576040805160e560020a62461bcd02815260206004820152601560248201527f52414320646f6573206e6f742052656769737465720000000000000000000000604482015290519081900360640190fd5b600354600160a060020a031663253bd7b733610c89846114aa565b6040805160e060020a63ffffffff8616028152600160a060020a03909316600484015260248301919091525160448083019260209291908290030181600087803b158015610cd657600080fd5b505af1158015610cea573d6000803e3d6000fd5b505050506040513d6020811015610d0057600080fd5b50511515610d58576040805160e560020a62461bcd02815260206004820152600f60248201527f5065726d697373696f6e2064656e790000000000000000000000000000000000604482015290519081900360640190fd5b60008481526005602090815260408083205460068352928190205481518881529283019390935281810186905260608201929092526080810184905290517f3efe5ecfb49866315de7659e7f52e27e7121c2f2b35c239f4ac31b4a53930e5c9181900360a00190a15060009283526005602090815260408085209390935560069052912055565b60005460ff1681565b600195945050505050565b600160a060020a0391909116600090815260046020908152604080832093835292815282822080546001820154600283015460039093015460058552868620546006909552959094205490959394919360ff9092169291565b60066020526000908152604090205481565b600254600160a060020a031681565b60408051808201909152600f81527f6d6f6469667957686974656c69737400000000000000000000000000000000006020820152600354600160a060020a03161515610f03576040805160e560020a62461bcd02815260206004820152601560248201527f52414320646f6573206e6f742052656769737465720000000000000000000000604482015290519081900360640190fd5b600354600160a060020a031663253bd7b733610f1e846114aa565b6040805160e060020a63ffffffff8616028152600160a060020a03909316600484015260248301919091525160448083019260209291908290030181600087803b158015610f6b57600080fd5b505af1158015610f7f573d6000803e3d6000fd5b505050506040513d6020811015610f9557600080fd5b50511515610fed576040805160e560020a62461bcd02815260206004820152600f60248201527f5065726d697373696f6e2064656e790000000000000000000000000000000000604482015290519081900360640190fd5b6080604051908101604052808781526020018681526020018581526020018415158152506004600089600160a060020a0316600160a060020a031681526020019081526020016000206000846000191660001916815260200190815260200160002060008201518160000155602082015181600101556040820151816002015560608201518160030160006101000a81548160ff0219169083151502179055509050507f470b2da8ce108716374df2bca80ab2136e62432634b20d62a600692daec87e5a8288888888883360405180886000191660001916815260200187600160a060020a0316600160a060020a031681526020018681526020018581526020018481526020018315151515815260200182600160a060020a0316600160a060020a0316815260200197505050505050505060405180910390a150505050505050565b6001949350505050565b600160a060020a038216600090815260046020908152604080832086845290915281206003015460ff1615156111ea5760408051600160208201526060808252600e9082015260008051602061150f833981519152608082015260a08183018190526017908201527f5f66726f6d2063616e5472616e736665722066616c736500000000000000000060c082015290516000805160206114cf8339815191529181900360e00190a15060006114a3565b600160a060020a03831660009081526004602090815260408083208784529091529020544210156112955760408051600260208201526060808252600e9082015260008051602061150f833981519152608082015260a08183018190526014908201527f5f66726f6d2066726f6d54696d65203e206e6f7700000000000000000000000060c082015290516000805160206114cf8339815191529181900360e00190a15060006114a3565b600160a060020a03831660009081526004602090815260408083208784529091529020600201544211156113435760408051600360208201526060808252600e9082015260008051602061150f833981519152608082015260a08183018190526016908201527f5f66726f6d2065787069727954696d65203c206e6f770000000000000000000060c082015290516000805160206114cf8339815191529181900360e00190a15060006114a3565b600160a060020a03821660009081526004602090815260408083208784529091529020600101544210156113f15760408051600460208201526060808252600e9082015260008051602061150f833981519152608082015260a08183018190526010908201527f5f746f20746f54696d65203e206e6f770000000000000000000000000000000060c082015290516000805160206114cf8339815191529181900360e00190a15060006114a3565b600160a060020a038216600090815260046020908152604080832087845290915290206002015442111561149f5760408051600560208201526060808252600e9082015260008051602061150f833981519152608082015260a08183018190526014908201527f5f746f2065787069727954696d65203c206e6f7700000000000000000000000060c082015290516000805160206114cf8339815191529181900360e00190a15060006114a3565b5060015b9392505050565b8051600090829015156114c057600091506114c8565b602083015191505b5091905056002889a9dad0676c5d3968f68aee3cf08ec189617986e3bc741824fabbae1dfddd4d69736d61746368656420696e707574206c656e677468730000000000000000636865636b5768696c654c697374000000000000000000000000000000000000a165627a7a723058200fc37f467d124891b259c900d4dba4aaa5e2f59aa29e609d1c5917f901e5094f0029a165627a7a72305820e8dce4fc0a1c545dd2e219ee575fa36ba7a36ef83412075e0f80a5329b789a6c0029",
  "source": "pragma solidity ^0.4.24;\n\nimport \"./SecurityToken.sol\";\nimport \"./policies/GeneralPolicy.sol\";\nimport \"./interfaces/ICheckRAC.sol\";\nimport \"./modules/DataType.sol\";\n\n\n/**\n * @title Proxy for deploying SecurityToken and GeneralPolicy instances\n */\ncontract STGFactory is DataType {\n\n    address public policyRegistry;\n    address public racRegistry;\n\n    event CreateSTG(address indexed _securityToken, string _symbol, address indexed _policy);\n\n    // Constructor\n    constructor (address _policyRegistry, address _racRegistry) public\n    {\n        policyRegistry = _policyRegistry;\n        racRegistry = _racRegistry;\n    }\n\n    /**\n    * @dev modifier to scope access to a single role (uses msg.sender as addr)\n    * @param _action the name of the role\n    */\n    modifier onlyRole(string _action)\n    {\n        require(racRegistry != address(0), \"RAC does not Register\");\n        require(ICheckRAC(racRegistry).check(msg.sender, stringToBytes32(_action)), \"Permission deny\");\n        _;\n    }\n\n    /**\n     * @notice create the token and adds default policy like the GeneralPolicy.\n     * Future versions of the proxy can attach different policy or pass different parameters.\n     */\n    function create(\n        address _issuer,\n        string _name,\n        string _symbol,\n        uint8 _decimals,\n        uint256 _granularity\n    ) external onlyRole('createST') returns (address) {\n        address stAddress = new SecurityToken(\n            _issuer,\n            _name,\n            _symbol,\n            _decimals,\n            _granularity,\n            racRegistry\n        );\n\n        address policyAddress = new GeneralPolicy(stAddress);\n        SecurityToken(stAddress).changePolicyRegistry(policyRegistry);\n        SecurityToken(stAddress).registryPolicy(stringToBytes32(\"\"), policyAddress);\n        emit CreateSTG(stAddress, _symbol, policyAddress);\n        return stAddress;\n    }\n\n}\n",
  "sourcePath": "/Users/tercel/Workspace/oneroot-sto/contracts/STGFactory.sol",
  "compiler": {
    "name": "solc",
    "version": "0.4.24+commit.e67f0147.Emscripten.clang"
  },
  "schemaVersion": "2.0.1",
  "updatedAt": "2019-01-08T11:20:26.332Z"
}